{
	"contracts/1_Storage.sol": {
		"OrderManagement": {
			"abi": [
				{
					"inputs": [
						{
							"internalType": "address[]",
							"name": "_admins",
							"type": "address[]"
						}
					],
					"stateMutability": "nonpayable",
					"type": "constructor"
				},
				{
					"inputs": [
						{
							"internalType": "uint256",
							"name": "",
							"type": "uint256"
						}
					],
					"name": "admins",
					"outputs": [
						{
							"internalType": "address",
							"name": "",
							"type": "address"
						}
					],
					"stateMutability": "view",
					"type": "function"
				},
				{
					"inputs": [
						{
							"internalType": "uint256",
							"name": "orderId",
							"type": "uint256"
						}
					],
					"name": "getOrder",
					"outputs": [
						{
							"components": [
								{
									"internalType": "string",
									"name": "productId",
									"type": "string"
								},
								{
									"internalType": "string",
									"name": "userId",
									"type": "string"
								},
								{
									"internalType": "string",
									"name": "sellerId",
									"type": "string"
								},
								{
									"internalType": "string",
									"name": "status",
									"type": "string"
								}
							],
							"internalType": "struct OrderManagement.Order",
							"name": "",
							"type": "tuple"
						}
					],
					"stateMutability": "view",
					"type": "function"
				},
				{
					"inputs": [
						{
							"internalType": "uint256",
							"name": "orderId",
							"type": "uint256"
						},
						{
							"internalType": "string",
							"name": "productId",
							"type": "string"
						},
						{
							"internalType": "string",
							"name": "userId",
							"type": "string"
						},
						{
							"internalType": "string",
							"name": "sellerId",
							"type": "string"
						},
						{
							"internalType": "string",
							"name": "status",
							"type": "string"
						}
					],
					"name": "pushOrder",
					"outputs": [],
					"stateMutability": "nonpayable",
					"type": "function"
				},
				{
					"inputs": [
						{
							"internalType": "uint256",
							"name": "orderId",
							"type": "uint256"
						},
						{
							"internalType": "string",
							"name": "newStatus",
							"type": "string"
						}
					],
					"name": "updateOrderStatus",
					"outputs": [],
					"stateMutability": "nonpayable",
					"type": "function"
				}
			],
			"devdoc": {
				"kind": "dev",
				"methods": {},
				"version": 1
			},
			"evm": {
				"assembly": "    /* \"contracts/1_Storage.sol\":33:1175  contract OrderManagement {... */\n  mstore(0x40, 0x80)\n    /* \"contracts/1_Storage.sol\":255:326  constructor(address[] memory _admins) {... */\n  callvalue\n  dup1\n  iszero\n  tag_1\n  jumpi\n  0x00\n  dup1\n  revert\ntag_1:\n  pop\n  mload(0x40)\n  sub(codesize, bytecodeSize)\n  dup1\n  bytecodeSize\n  dup4\n  codecopy\n  dup2\n  dup2\n  add\n  0x40\n  mstore\n  dup2\n  add\n  swap1\n  tag_2\n  swap2\n  swap1\n  tag_3\n  jump\t// in\ntag_2:\n    /* \"contracts/1_Storage.sol\":312:319  _admins */\n  dup1\n    /* \"contracts/1_Storage.sol\":303:309  admins */\n  0x01\n    /* \"contracts/1_Storage.sol\":303:319  admins = _admins */\n  swap1\n  dup1\n  mload\n  swap1\n  0x20\n  add\n  swap1\n  tag_6\n  swap3\n  swap2\n  swap1\n  tag_7\n  jump\t// in\ntag_6:\n  pop\n    /* \"contracts/1_Storage.sol\":255:326  constructor(address[] memory _admins) {... */\n  pop\n    /* \"contracts/1_Storage.sol\":33:1175  contract OrderManagement {... */\n  jump(tag_8)\ntag_7:\n  dup3\n  dup1\n  sload\n  dup3\n  dup3\n  sstore\n  swap1\n  0x00\n  mstore\n  keccak256(0x00, 0x20)\n  swap1\n  dup2\n  add\n  swap3\n  dup3\n  iszero\n  tag_9\n  jumpi\n  swap2\n  0x20\n  mul\n  dup3\n  add\ntag_10:\n  dup3\n  dup2\n  gt\n  iszero\n  tag_11\n  jumpi\n  dup3\n  mload\n  dup3\n  exp(0x0100, 0x00)\n  dup2\n  sload\n  dup2\n  0xffffffffffffffffffffffffffffffffffffffff\n  mul\n  not\n  and\n  swap1\n  dup4\n  0xffffffffffffffffffffffffffffffffffffffff\n  and\n  mul\n  or\n  swap1\n  sstore\n  pop\n  swap2\n  0x20\n  add\n  swap2\n  swap1\n  0x01\n  add\n  swap1\n  jump(tag_10)\ntag_11:\ntag_9:\n  pop\n  swap1\n  pop\n  tag_12\n  swap2\n  swap1\n  tag_13\n  jump\t// in\ntag_12:\n  pop\n  swap1\n  jump\t// out\ntag_13:\ntag_14:\n  dup1\n  dup3\n  gt\n  iszero\n  tag_15\n  jumpi\n  0x00\n  dup2\n  0x00\n  swap1\n  sstore\n  pop\n  0x01\n  add\n  jump(tag_14)\ntag_15:\n  pop\n  swap1\n  jump\t// out\n    /* \"#utility.yul\":7:82   */\ntag_16:\n    /* \"#utility.yul\":40:46   */\n  0x00\n    /* \"#utility.yul\":73:75   */\n  0x40\n    /* \"#utility.yul\":67:76   */\n  mload\n    /* \"#utility.yul\":57:76   */\n  swap1\n  pop\n    /* \"#utility.yul\":7:82   */\n  swap1\n  jump\t// out\n    /* \"#utility.yul\":88:205   */\ntag_17:\n    /* \"#utility.yul\":197:198   */\n  0x00\n    /* \"#utility.yul\":194:195   */\n  dup1\n    /* \"#utility.yul\":187:199   */\n  revert\n    /* \"#utility.yul\":211:328   */\ntag_18:\n    /* \"#utility.yul\":320:321   */\n  0x00\n    /* \"#utility.yul\":317:318   */\n  dup1\n    /* \"#utility.yul\":310:322   */\n  revert\n    /* \"#utility.yul\":334:451   */\ntag_19:\n    /* \"#utility.yul\":443:444   */\n  0x00\n    /* \"#utility.yul\":440:441   */\n  dup1\n    /* \"#utility.yul\":433:445   */\n  revert\n    /* \"#utility.yul\":457:559   */\ntag_20:\n    /* \"#utility.yul\":498:504   */\n  0x00\n    /* \"#utility.yul\":549:551   */\n  0x1f\n    /* \"#utility.yul\":545:552   */\n  not\n    /* \"#utility.yul\":540:542   */\n  0x1f\n    /* \"#utility.yul\":533:538   */\n  dup4\n    /* \"#utility.yul\":529:543   */\n  add\n    /* \"#utility.yul\":525:553   */\n  and\n    /* \"#utility.yul\":515:553   */\n  swap1\n  pop\n    /* \"#utility.yul\":457:559   */\n  swap2\n  swap1\n  pop\n  jump\t// out\n    /* \"#utility.yul\":565:745   */\ntag_21:\n    /* \"#utility.yul\":613:690   */\n  0x4e487b7100000000000000000000000000000000000000000000000000000000\n    /* \"#utility.yul\":610:611   */\n  0x00\n    /* \"#utility.yul\":603:691   */\n  mstore\n    /* \"#utility.yul\":710:714   */\n  0x41\n    /* \"#utility.yul\":707:708   */\n  0x04\n    /* \"#utility.yul\":700:715   */\n  mstore\n    /* \"#utility.yul\":734:738   */\n  0x24\n    /* \"#utility.yul\":731:732   */\n  0x00\n    /* \"#utility.yul\":724:739   */\n  revert\n    /* \"#utility.yul\":751:1032   */\ntag_22:\n    /* \"#utility.yul\":834:861   */\n  tag_40\n    /* \"#utility.yul\":856:860   */\n  dup3\n    /* \"#utility.yul\":834:861   */\n  tag_20\n  jump\t// in\ntag_40:\n    /* \"#utility.yul\":826:832   */\n  dup2\n    /* \"#utility.yul\":822:862   */\n  add\n    /* \"#utility.yul\":964:970   */\n  dup2\n    /* \"#utility.yul\":952:962   */\n  dup2\n    /* \"#utility.yul\":949:971   */\n  lt\n    /* \"#utility.yul\":928:946   */\n  0xffffffffffffffff\n    /* \"#utility.yul\":916:926   */\n  dup3\n    /* \"#utility.yul\":913:947   */\n  gt\n    /* \"#utility.yul\":910:972   */\n  or\n    /* \"#utility.yul\":907:995   */\n  iszero\n  tag_41\n  jumpi\n    /* \"#utility.yul\":975:993   */\n  tag_42\n  tag_21\n  jump\t// in\ntag_42:\n    /* \"#utility.yul\":907:995   */\ntag_41:\n    /* \"#utility.yul\":1015:1025   */\n  dup1\n    /* \"#utility.yul\":1011:1013   */\n  0x40\n    /* \"#utility.yul\":1004:1026   */\n  mstore\n    /* \"#utility.yul\":794:1032   */\n  pop\n    /* \"#utility.yul\":751:1032   */\n  pop\n  pop\n  jump\t// out\n    /* \"#utility.yul\":1038:1167   */\ntag_23:\n    /* \"#utility.yul\":1072:1078   */\n  0x00\n    /* \"#utility.yul\":1099:1119   */\n  tag_44\n  tag_16\n  jump\t// in\ntag_44:\n    /* \"#utility.yul\":1089:1119   */\n  swap1\n  pop\n    /* \"#utility.yul\":1128:1161   */\n  tag_45\n    /* \"#utility.yul\":1156:1160   */\n  dup3\n    /* \"#utility.yul\":1148:1154   */\n  dup3\n    /* \"#utility.yul\":1128:1161   */\n  tag_22\n  jump\t// in\ntag_45:\n    /* \"#utility.yul\":1038:1167   */\n  swap2\n  swap1\n  pop\n  jump\t// out\n    /* \"#utility.yul\":1173:1484   */\ntag_24:\n    /* \"#utility.yul\":1250:1254   */\n  0x00\n    /* \"#utility.yul\":1340:1358   */\n  0xffffffffffffffff\n    /* \"#utility.yul\":1332:1338   */\n  dup3\n    /* \"#utility.yul\":1329:1359   */\n  gt\n    /* \"#utility.yul\":1326:1382   */\n  iszero\n  tag_47\n  jumpi\n    /* \"#utility.yul\":1362:1380   */\n  tag_48\n  tag_21\n  jump\t// in\ntag_48:\n    /* \"#utility.yul\":1326:1382   */\ntag_47:\n    /* \"#utility.yul\":1412:1416   */\n  0x20\n    /* \"#utility.yul\":1404:1410   */\n  dup3\n    /* \"#utility.yul\":1400:1417   */\n  mul\n    /* \"#utility.yul\":1392:1417   */\n  swap1\n  pop\n    /* \"#utility.yul\":1472:1476   */\n  0x20\n    /* \"#utility.yul\":1466:1470   */\n  dup2\n    /* \"#utility.yul\":1462:1477   */\n  add\n    /* \"#utility.yul\":1454:1477   */\n  swap1\n  pop\n    /* \"#utility.yul\":1173:1484   */\n  swap2\n  swap1\n  pop\n  jump\t// out\n    /* \"#utility.yul\":1490:1607   */\ntag_25:\n    /* \"#utility.yul\":1599:1600   */\n  0x00\n    /* \"#utility.yul\":1596:1597   */\n  dup1\n    /* \"#utility.yul\":1589:1601   */\n  revert\n    /* \"#utility.yul\":1613:1739   */\ntag_26:\n    /* \"#utility.yul\":1650:1657   */\n  0x00\n    /* \"#utility.yul\":1690:1732   */\n  0xffffffffffffffffffffffffffffffffffffffff\n    /* \"#utility.yul\":1683:1688   */\n  dup3\n    /* \"#utility.yul\":1679:1733   */\n  and\n    /* \"#utility.yul\":1668:1733   */\n  swap1\n  pop\n    /* \"#utility.yul\":1613:1739   */\n  swap2\n  swap1\n  pop\n  jump\t// out\n    /* \"#utility.yul\":1745:1841   */\ntag_27:\n    /* \"#utility.yul\":1782:1789   */\n  0x00\n    /* \"#utility.yul\":1811:1835   */\n  tag_52\n    /* \"#utility.yul\":1829:1834   */\n  dup3\n    /* \"#utility.yul\":1811:1835   */\n  tag_26\n  jump\t// in\ntag_52:\n    /* \"#utility.yul\":1800:1835   */\n  swap1\n  pop\n    /* \"#utility.yul\":1745:1841   */\n  swap2\n  swap1\n  pop\n  jump\t// out\n    /* \"#utility.yul\":1847:1969   */\ntag_28:\n    /* \"#utility.yul\":1920:1944   */\n  tag_54\n    /* \"#utility.yul\":1938:1943   */\n  dup2\n    /* \"#utility.yul\":1920:1944   */\n  tag_27\n  jump\t// in\ntag_54:\n    /* \"#utility.yul\":1913:1918   */\n  dup2\n    /* \"#utility.yul\":1910:1945   */\n  eq\n    /* \"#utility.yul\":1900:1963   */\n  tag_55\n  jumpi\n    /* \"#utility.yul\":1959:1960   */\n  0x00\n    /* \"#utility.yul\":1956:1957   */\n  dup1\n    /* \"#utility.yul\":1949:1961   */\n  revert\n    /* \"#utility.yul\":1900:1963   */\ntag_55:\n    /* \"#utility.yul\":1847:1969   */\n  pop\n  jump\t// out\n    /* \"#utility.yul\":1975:2118   */\ntag_29:\n    /* \"#utility.yul\":2032:2037   */\n  0x00\n    /* \"#utility.yul\":2063:2069   */\n  dup2\n    /* \"#utility.yul\":2057:2070   */\n  mload\n    /* \"#utility.yul\":2048:2070   */\n  swap1\n  pop\n    /* \"#utility.yul\":2079:2112   */\n  tag_57\n    /* \"#utility.yul\":2106:2111   */\n  dup2\n    /* \"#utility.yul\":2079:2112   */\n  tag_28\n  jump\t// in\ntag_57:\n    /* \"#utility.yul\":1975:2118   */\n  swap3\n  swap2\n  pop\n  pop\n  jump\t// out\n    /* \"#utility.yul\":2141:2873   */\ntag_30:\n    /* \"#utility.yul\":2248:2253   */\n  0x00\n    /* \"#utility.yul\":2273:2354   */\n  tag_59\n    /* \"#utility.yul\":2289:2353   */\n  tag_60\n    /* \"#utility.yul\":2346:2352   */\n  dup5\n    /* \"#utility.yul\":2289:2353   */\n  tag_24\n  jump\t// in\ntag_60:\n    /* \"#utility.yul\":2273:2354   */\n  tag_23\n  jump\t// in\ntag_59:\n    /* \"#utility.yul\":2264:2354   */\n  swap1\n  pop\n    /* \"#utility.yul\":2374:2379   */\n  dup1\n    /* \"#utility.yul\":2403:2409   */\n  dup4\n    /* \"#utility.yul\":2396:2401   */\n  dup3\n    /* \"#utility.yul\":2389:2410   */\n  mstore\n    /* \"#utility.yul\":2437:2441   */\n  0x20\n    /* \"#utility.yul\":2430:2435   */\n  dup3\n    /* \"#utility.yul\":2426:2442   */\n  add\n    /* \"#utility.yul\":2419:2442   */\n  swap1\n  pop\n    /* \"#utility.yul\":2490:2494   */\n  0x20\n    /* \"#utility.yul\":2482:2488   */\n  dup5\n    /* \"#utility.yul\":2478:2495   */\n  mul\n    /* \"#utility.yul\":2470:2476   */\n  dup4\n    /* \"#utility.yul\":2466:2496   */\n  add\n    /* \"#utility.yul\":2519:2522   */\n  dup6\n    /* \"#utility.yul\":2511:2517   */\n  dup2\n    /* \"#utility.yul\":2508:2523   */\n  gt\n    /* \"#utility.yul\":2505:2627   */\n  iszero\n  tag_61\n  jumpi\n    /* \"#utility.yul\":2538:2617   */\n  tag_62\n  tag_25\n  jump\t// in\ntag_62:\n    /* \"#utility.yul\":2505:2627   */\ntag_61:\n    /* \"#utility.yul\":2653:2659   */\n  dup4\n    /* \"#utility.yul\":2636:2867   */\ntag_63:\n    /* \"#utility.yul\":2670:2676   */\n  dup2\n    /* \"#utility.yul\":2665:2668   */\n  dup2\n    /* \"#utility.yul\":2662:2677   */\n  lt\n    /* \"#utility.yul\":2636:2867   */\n  iszero\n  tag_65\n  jumpi\n    /* \"#utility.yul\":2745:2748   */\n  dup1\n    /* \"#utility.yul\":2774:2822   */\n  tag_66\n    /* \"#utility.yul\":2818:2821   */\n  dup9\n    /* \"#utility.yul\":2806:2816   */\n  dup3\n    /* \"#utility.yul\":2774:2822   */\n  tag_29\n  jump\t// in\ntag_66:\n    /* \"#utility.yul\":2769:2772   */\n  dup5\n    /* \"#utility.yul\":2762:2823   */\n  mstore\n    /* \"#utility.yul\":2852:2856   */\n  0x20\n    /* \"#utility.yul\":2847:2850   */\n  dup5\n    /* \"#utility.yul\":2843:2857   */\n  add\n    /* \"#utility.yul\":2836:2857   */\n  swap4\n  pop\n    /* \"#utility.yul\":2712:2867   */\n  pop\n    /* \"#utility.yul\":2696:2700   */\n  0x20\n    /* \"#utility.yul\":2691:2694   */\n  dup2\n    /* \"#utility.yul\":2687:2701   */\n  add\n    /* \"#utility.yul\":2680:2701   */\n  swap1\n  pop\n    /* \"#utility.yul\":2636:2867   */\n  jump(tag_63)\ntag_65:\n    /* \"#utility.yul\":2640:2661   */\n  pop\n    /* \"#utility.yul\":2254:2873   */\n  pop\n  pop\n    /* \"#utility.yul\":2141:2873   */\n  swap4\n  swap3\n  pop\n  pop\n  pop\n  jump\t// out\n    /* \"#utility.yul\":2896:3281   */\ntag_31:\n    /* \"#utility.yul\":2978:2983   */\n  0x00\n    /* \"#utility.yul\":3027:3030   */\n  dup3\n    /* \"#utility.yul\":3020:3024   */\n  0x1f\n    /* \"#utility.yul\":3012:3018   */\n  dup4\n    /* \"#utility.yul\":3008:3025   */\n  add\n    /* \"#utility.yul\":3004:3031   */\n  slt\n    /* \"#utility.yul\":2994:3116   */\n  tag_68\n  jumpi\n    /* \"#utility.yul\":3035:3114   */\n  tag_69\n  tag_19\n  jump\t// in\ntag_69:\n    /* \"#utility.yul\":2994:3116   */\ntag_68:\n    /* \"#utility.yul\":3145:3151   */\n  dup2\n    /* \"#utility.yul\":3139:3152   */\n  mload\n    /* \"#utility.yul\":3170:3275   */\n  tag_70\n    /* \"#utility.yul\":3271:3274   */\n  dup5\n    /* \"#utility.yul\":3263:3269   */\n  dup3\n    /* \"#utility.yul\":3256:3260   */\n  0x20\n    /* \"#utility.yul\":3248:3254   */\n  dup7\n    /* \"#utility.yul\":3244:3261   */\n  add\n    /* \"#utility.yul\":3170:3275   */\n  tag_30\n  jump\t// in\ntag_70:\n    /* \"#utility.yul\":3161:3275   */\n  swap2\n  pop\n    /* \"#utility.yul\":2984:3281   */\n  pop\n    /* \"#utility.yul\":2896:3281   */\n  swap3\n  swap2\n  pop\n  pop\n  jump\t// out\n    /* \"#utility.yul\":3287:3841   */\ntag_3:\n    /* \"#utility.yul\":3382:3388   */\n  0x00\n    /* \"#utility.yul\":3431:3433   */\n  0x20\n    /* \"#utility.yul\":3419:3428   */\n  dup3\n    /* \"#utility.yul\":3410:3417   */\n  dup5\n    /* \"#utility.yul\":3406:3429   */\n  sub\n    /* \"#utility.yul\":3402:3434   */\n  slt\n    /* \"#utility.yul\":3399:3518   */\n  iszero\n  tag_72\n  jumpi\n    /* \"#utility.yul\":3437:3516   */\n  tag_73\n  tag_17\n  jump\t// in\ntag_73:\n    /* \"#utility.yul\":3399:3518   */\ntag_72:\n    /* \"#utility.yul\":3578:3579   */\n  0x00\n    /* \"#utility.yul\":3567:3576   */\n  dup3\n    /* \"#utility.yul\":3563:3580   */\n  add\n    /* \"#utility.yul\":3557:3581   */\n  mload\n    /* \"#utility.yul\":3608:3626   */\n  0xffffffffffffffff\n    /* \"#utility.yul\":3600:3606   */\n  dup2\n    /* \"#utility.yul\":3597:3627   */\n  gt\n    /* \"#utility.yul\":3594:3711   */\n  iszero\n  tag_74\n  jumpi\n    /* \"#utility.yul\":3630:3709   */\n  tag_75\n  tag_18\n  jump\t// in\ntag_75:\n    /* \"#utility.yul\":3594:3711   */\ntag_74:\n    /* \"#utility.yul\":3735:3824   */\n  tag_76\n    /* \"#utility.yul\":3816:3823   */\n  dup5\n    /* \"#utility.yul\":3807:3813   */\n  dup3\n    /* \"#utility.yul\":3796:3805   */\n  dup6\n    /* \"#utility.yul\":3792:3814   */\n  add\n    /* \"#utility.yul\":3735:3824   */\n  tag_31\n  jump\t// in\ntag_76:\n    /* \"#utility.yul\":3725:3824   */\n  swap2\n  pop\n    /* \"#utility.yul\":3528:3834   */\n  pop\n    /* \"#utility.yul\":3287:3841   */\n  swap3\n  swap2\n  pop\n  pop\n  jump\t// out\n    /* \"contracts/1_Storage.sol\":33:1175  contract OrderManagement {... */\ntag_8:\n  dataSize(sub_0)\n  dup1\n  dataOffset(sub_0)\n  0x00\n  codecopy\n  0x00\n  return\nstop\n\nsub_0: assembly {\n        /* \"contracts/1_Storage.sol\":33:1175  contract OrderManagement {... */\n      mstore(0x40, 0x80)\n      callvalue\n      dup1\n      iszero\n      tag_1\n      jumpi\n      0x00\n      dup1\n      revert\n    tag_1:\n      pop\n      jumpi(tag_2, lt(calldatasize, 0x04))\n      shr(0xe0, calldataload(0x00))\n      dup1\n      0x14bfd6d0\n      eq\n      tag_3\n      jumpi\n      dup1\n      0x205fdde6\n      eq\n      tag_4\n      jumpi\n      dup1\n      0x7830e6dd\n      eq\n      tag_5\n      jumpi\n      dup1\n      0xd09ef241\n      eq\n      tag_6\n      jumpi\n    tag_2:\n      0x00\n      dup1\n      revert\n        /* \"contracts/1_Storage.sol\":225:248  address[] public admins */\n    tag_3:\n      tag_7\n      0x04\n      dup1\n      calldatasize\n      sub\n      dup2\n      add\n      swap1\n      tag_8\n      swap2\n      swap1\n      tag_9\n      jump\t// in\n    tag_8:\n      tag_10\n      jump\t// in\n    tag_7:\n      mload(0x40)\n      tag_11\n      swap2\n      swap1\n      tag_12\n      jump\t// in\n    tag_11:\n      mload(0x40)\n      dup1\n      swap2\n      sub\n      swap1\n      return\n        /* \"contracts/1_Storage.sol\":1036:1173  function updateOrderStatus(uint256 orderId, string memory newStatus) public onlyAdmin {... */\n    tag_4:\n      tag_13\n      0x04\n      dup1\n      calldatasize\n      sub\n      dup2\n      add\n      swap1\n      tag_14\n      swap2\n      swap1\n      tag_15\n      jump\t// in\n    tag_14:\n      tag_16\n      jump\t// in\n    tag_13:\n      stop\n        /* \"contracts/1_Storage.sol\":650:915  function pushOrder(uint256 orderId, string memory productId, string memory userId, string memory sellerId, string memory status) public onlyAdmin {... */\n    tag_5:\n      tag_17\n      0x04\n      dup1\n      calldatasize\n      sub\n      dup2\n      add\n      swap1\n      tag_18\n      swap2\n      swap1\n      tag_19\n      jump\t// in\n    tag_18:\n      tag_20\n      jump\t// in\n    tag_17:\n      stop\n        /* \"contracts/1_Storage.sol\":921:1030  function getOrder(uint256 orderId) public view returns (Order memory) {... */\n    tag_6:\n      tag_21\n      0x04\n      dup1\n      calldatasize\n      sub\n      dup2\n      add\n      swap1\n      tag_22\n      swap2\n      swap1\n      tag_9\n      jump\t// in\n    tag_22:\n      tag_23\n      jump\t// in\n    tag_21:\n      mload(0x40)\n      tag_24\n      swap2\n      swap1\n      tag_25\n      jump\t// in\n    tag_24:\n      mload(0x40)\n      dup1\n      swap2\n      sub\n      swap1\n      return\n        /* \"contracts/1_Storage.sol\":225:248  address[] public admins */\n    tag_10:\n      0x01\n      dup2\n      dup2\n      sload\n      dup2\n      lt\n      tag_26\n      jumpi\n      0x00\n      dup1\n      revert\n    tag_26:\n      swap1\n      0x00\n      mstore\n      keccak256(0x00, 0x20)\n      add\n      0x00\n      swap2\n      pop\n      sload\n      swap1\n      0x0100\n      exp\n      swap1\n      div\n      0xffffffffffffffffffffffffffffffffffffffff\n      and\n      dup2\n      jump\t// out\n        /* \"contracts/1_Storage.sol\":1036:1173  function updateOrderStatus(uint256 orderId, string memory newStatus) public onlyAdmin {... */\n    tag_16:\n        /* \"contracts/1_Storage.sol\":363:375  bool isAdmin */\n      0x00\n        /* \"contracts/1_Storage.sol\":398:407  uint256 i */\n      dup1\n        /* \"contracts/1_Storage.sol\":393:560  for (uint256 i = 0; i < admins.length; i++) {... */\n    tag_29:\n        /* \"contracts/1_Storage.sol\":417:423  admins */\n      0x01\n        /* \"contracts/1_Storage.sol\":417:430  admins.length */\n      dup1\n      sload\n      swap1\n      pop\n        /* \"contracts/1_Storage.sol\":413:414  i */\n      dup2\n        /* \"contracts/1_Storage.sol\":413:430  i < admins.length */\n      lt\n        /* \"contracts/1_Storage.sol\":393:560  for (uint256 i = 0; i < admins.length; i++) {... */\n      iszero\n      tag_30\n      jumpi\n        /* \"contracts/1_Storage.sol\":469:475  admins */\n      0x01\n        /* \"contracts/1_Storage.sol\":476:477  i */\n      dup2\n        /* \"contracts/1_Storage.sol\":469:478  admins[i] */\n      dup2\n      sload\n      dup2\n      lt\n      tag_32\n      jumpi\n      tag_33\n      tag_34\n      jump\t// in\n    tag_33:\n    tag_32:\n      swap1\n      0x00\n      mstore\n      keccak256(0x00, 0x20)\n      add\n      0x00\n      swap1\n      sload\n      swap1\n      0x0100\n      exp\n      swap1\n      div\n      0xffffffffffffffffffffffffffffffffffffffff\n      and\n        /* \"contracts/1_Storage.sol\":455:478  msg.sender == admins[i] */\n      0xffffffffffffffffffffffffffffffffffffffff\n      and\n        /* \"contracts/1_Storage.sol\":455:465  msg.sender */\n      caller\n        /* \"contracts/1_Storage.sol\":455:478  msg.sender == admins[i] */\n      0xffffffffffffffffffffffffffffffffffffffff\n      and\n      sub\n        /* \"contracts/1_Storage.sol\":451:550  if (msg.sender == admins[i]) {... */\n      tag_36\n      jumpi\n        /* \"contracts/1_Storage.sol\":508:512  true */\n      0x01\n        /* \"contracts/1_Storage.sol\":498:512  isAdmin = true */\n      swap2\n      pop\n        /* \"contracts/1_Storage.sol\":530:535  break */\n      jump(tag_30)\n        /* \"contracts/1_Storage.sol\":451:550  if (msg.sender == admins[i]) {... */\n    tag_36:\n        /* \"contracts/1_Storage.sol\":432:435  i++ */\n      dup1\n      dup1\n      tag_37\n      swap1\n      tag_38\n      jump\t// in\n    tag_37:\n      swap2\n      pop\n      pop\n        /* \"contracts/1_Storage.sol\":393:560  for (uint256 i = 0; i < admins.length; i++) {... */\n      jump(tag_29)\n    tag_30:\n      pop\n        /* \"contracts/1_Storage.sol\":577:584  isAdmin */\n      dup1\n        /* \"contracts/1_Storage.sol\":569:626  require(isAdmin, \"Only an admin can call this function.\") */\n      tag_39\n      jumpi\n      mload(0x40)\n      0x08c379a000000000000000000000000000000000000000000000000000000000\n      dup2\n      mstore\n      0x04\n      add\n      tag_40\n      swap1\n      tag_41\n      jump\t// in\n    tag_40:\n      mload(0x40)\n      dup1\n      swap2\n      sub\n      swap1\n      revert\n    tag_39:\n        /* \"contracts/1_Storage.sol\":1157:1166  newStatus */\n      dup2\n        /* \"contracts/1_Storage.sol\":1132:1138  orders */\n      0x00\n        /* \"contracts/1_Storage.sol\":1132:1147  orders[orderId] */\n      dup1\n        /* \"contracts/1_Storage.sol\":1139:1146  orderId */\n      dup6\n        /* \"contracts/1_Storage.sol\":1132:1147  orders[orderId] */\n      dup2\n      mstore\n      0x20\n      add\n      swap1\n      dup2\n      mstore\n      0x20\n      add\n      0x00\n      keccak256\n        /* \"contracts/1_Storage.sol\":1132:1154  orders[orderId].status */\n      0x03\n      add\n        /* \"contracts/1_Storage.sol\":1132:1166  orders[orderId].status = newStatus */\n      swap1\n      dup2\n      tag_43\n      swap2\n      swap1\n      tag_44\n      jump\t// in\n    tag_43:\n      pop\n        /* \"contracts/1_Storage.sol\":353:644  {... */\n      pop\n        /* \"contracts/1_Storage.sol\":1036:1173  function updateOrderStatus(uint256 orderId, string memory newStatus) public onlyAdmin {... */\n      pop\n      pop\n      jump\t// out\n        /* \"contracts/1_Storage.sol\":650:915  function pushOrder(uint256 orderId, string memory productId, string memory userId, string memory sellerId, string memory status) public onlyAdmin {... */\n    tag_20:\n        /* \"contracts/1_Storage.sol\":363:375  bool isAdmin */\n      0x00\n        /* \"contracts/1_Storage.sol\":398:407  uint256 i */\n      dup1\n        /* \"contracts/1_Storage.sol\":393:560  for (uint256 i = 0; i < admins.length; i++) {... */\n    tag_46:\n        /* \"contracts/1_Storage.sol\":417:423  admins */\n      0x01\n        /* \"contracts/1_Storage.sol\":417:430  admins.length */\n      dup1\n      sload\n      swap1\n      pop\n        /* \"contracts/1_Storage.sol\":413:414  i */\n      dup2\n        /* \"contracts/1_Storage.sol\":413:430  i < admins.length */\n      lt\n        /* \"contracts/1_Storage.sol\":393:560  for (uint256 i = 0; i < admins.length; i++) {... */\n      iszero\n      tag_47\n      jumpi\n        /* \"contracts/1_Storage.sol\":469:475  admins */\n      0x01\n        /* \"contracts/1_Storage.sol\":476:477  i */\n      dup2\n        /* \"contracts/1_Storage.sol\":469:478  admins[i] */\n      dup2\n      sload\n      dup2\n      lt\n      tag_49\n      jumpi\n      tag_50\n      tag_34\n      jump\t// in\n    tag_50:\n    tag_49:\n      swap1\n      0x00\n      mstore\n      keccak256(0x00, 0x20)\n      add\n      0x00\n      swap1\n      sload\n      swap1\n      0x0100\n      exp\n      swap1\n      div\n      0xffffffffffffffffffffffffffffffffffffffff\n      and\n        /* \"contracts/1_Storage.sol\":455:478  msg.sender == admins[i] */\n      0xffffffffffffffffffffffffffffffffffffffff\n      and\n        /* \"contracts/1_Storage.sol\":455:465  msg.sender */\n      caller\n        /* \"contracts/1_Storage.sol\":455:478  msg.sender == admins[i] */\n      0xffffffffffffffffffffffffffffffffffffffff\n      and\n      sub\n        /* \"contracts/1_Storage.sol\":451:550  if (msg.sender == admins[i]) {... */\n      tag_52\n      jumpi\n        /* \"contracts/1_Storage.sol\":508:512  true */\n      0x01\n        /* \"contracts/1_Storage.sol\":498:512  isAdmin = true */\n      swap2\n      pop\n        /* \"contracts/1_Storage.sol\":530:535  break */\n      jump(tag_47)\n        /* \"contracts/1_Storage.sol\":451:550  if (msg.sender == admins[i]) {... */\n    tag_52:\n        /* \"contracts/1_Storage.sol\":432:435  i++ */\n      dup1\n      dup1\n      tag_53\n      swap1\n      tag_38\n      jump\t// in\n    tag_53:\n      swap2\n      pop\n      pop\n        /* \"contracts/1_Storage.sol\":393:560  for (uint256 i = 0; i < admins.length; i++) {... */\n      jump(tag_46)\n    tag_47:\n      pop\n        /* \"contracts/1_Storage.sol\":577:584  isAdmin */\n      dup1\n        /* \"contracts/1_Storage.sol\":569:626  require(isAdmin, \"Only an admin can call this function.\") */\n      tag_54\n      jumpi\n      mload(0x40)\n      0x08c379a000000000000000000000000000000000000000000000000000000000\n      dup2\n      mstore\n      0x04\n      add\n      tag_55\n      swap1\n      tag_41\n      jump\t// in\n    tag_55:\n      mload(0x40)\n      dup1\n      swap2\n      sub\n      swap1\n      revert\n    tag_54:\n        /* \"contracts/1_Storage.sol\":806:827  Order memory newOrder */\n      0x00\n        /* \"contracts/1_Storage.sol\":830:872  Order(productId, userId, sellerId, status) */\n      mload(0x40)\n      dup1\n      0x80\n      add\n      0x40\n      mstore\n      dup1\n        /* \"contracts/1_Storage.sol\":836:845  productId */\n      dup8\n        /* \"contracts/1_Storage.sol\":830:872  Order(productId, userId, sellerId, status) */\n      dup2\n      mstore\n      0x20\n      add\n        /* \"contracts/1_Storage.sol\":847:853  userId */\n      dup7\n        /* \"contracts/1_Storage.sol\":830:872  Order(productId, userId, sellerId, status) */\n      dup2\n      mstore\n      0x20\n      add\n        /* \"contracts/1_Storage.sol\":855:863  sellerId */\n      dup6\n        /* \"contracts/1_Storage.sol\":830:872  Order(productId, userId, sellerId, status) */\n      dup2\n      mstore\n      0x20\n      add\n        /* \"contracts/1_Storage.sol\":865:871  status */\n      dup5\n        /* \"contracts/1_Storage.sol\":830:872  Order(productId, userId, sellerId, status) */\n      dup2\n      mstore\n      pop\n        /* \"contracts/1_Storage.sol\":806:872  Order memory newOrder = Order(productId, userId, sellerId, status) */\n      swap1\n      pop\n        /* \"contracts/1_Storage.sol\":900:908  newOrder */\n      dup1\n        /* \"contracts/1_Storage.sol\":882:888  orders */\n      0x00\n        /* \"contracts/1_Storage.sol\":882:897  orders[orderId] */\n      dup1\n        /* \"contracts/1_Storage.sol\":889:896  orderId */\n      dup10\n        /* \"contracts/1_Storage.sol\":882:897  orders[orderId] */\n      dup2\n      mstore\n      0x20\n      add\n      swap1\n      dup2\n      mstore\n      0x20\n      add\n      0x00\n      keccak256\n        /* \"contracts/1_Storage.sol\":882:908  orders[orderId] = newOrder */\n      0x00\n      dup3\n      add\n      mload\n      dup2\n      0x00\n      add\n      swap1\n      dup2\n      tag_57\n      swap2\n      swap1\n      tag_44\n      jump\t// in\n    tag_57:\n      pop\n      0x20\n      dup3\n      add\n      mload\n      dup2\n      0x01\n      add\n      swap1\n      dup2\n      tag_58\n      swap2\n      swap1\n      tag_44\n      jump\t// in\n    tag_58:\n      pop\n      0x40\n      dup3\n      add\n      mload\n      dup2\n      0x02\n      add\n      swap1\n      dup2\n      tag_59\n      swap2\n      swap1\n      tag_44\n      jump\t// in\n    tag_59:\n      pop\n      0x60\n      dup3\n      add\n      mload\n      dup2\n      0x03\n      add\n      swap1\n      dup2\n      tag_60\n      swap2\n      swap1\n      tag_44\n      jump\t// in\n    tag_60:\n      pop\n      swap1\n      pop\n      pop\n        /* \"contracts/1_Storage.sol\":796:915  {... */\n      pop\n        /* \"contracts/1_Storage.sol\":353:644  {... */\n      pop\n        /* \"contracts/1_Storage.sol\":650:915  function pushOrder(uint256 orderId, string memory productId, string memory userId, string memory sellerId, string memory status) public onlyAdmin {... */\n      pop\n      pop\n      pop\n      pop\n      pop\n      jump\t// out\n        /* \"contracts/1_Storage.sol\":921:1030  function getOrder(uint256 orderId) public view returns (Order memory) {... */\n    tag_23:\n        /* \"contracts/1_Storage.sol\":977:989  Order memory */\n      tag_61\n      tag_62\n      jump\t// in\n    tag_61:\n        /* \"contracts/1_Storage.sol\":1008:1014  orders */\n      0x00\n        /* \"contracts/1_Storage.sol\":1008:1023  orders[orderId] */\n      dup1\n        /* \"contracts/1_Storage.sol\":1015:1022  orderId */\n      dup4\n        /* \"contracts/1_Storage.sol\":1008:1023  orders[orderId] */\n      dup2\n      mstore\n      0x20\n      add\n      swap1\n      dup2\n      mstore\n      0x20\n      add\n      0x00\n      keccak256\n        /* \"contracts/1_Storage.sol\":1001:1023  return orders[orderId] */\n      mload(0x40)\n      dup1\n      0x80\n      add\n      0x40\n      mstore\n      swap1\n      dup2\n      0x00\n      dup3\n      add\n      dup1\n      sload\n      tag_64\n      swap1\n      tag_65\n      jump\t// in\n    tag_64:\n      dup1\n      0x1f\n      add\n      0x20\n      dup1\n      swap2\n      div\n      mul\n      0x20\n      add\n      mload(0x40)\n      swap1\n      dup2\n      add\n      0x40\n      mstore\n      dup1\n      swap3\n      swap2\n      swap1\n      dup2\n      dup2\n      mstore\n      0x20\n      add\n      dup3\n      dup1\n      sload\n      tag_66\n      swap1\n      tag_65\n      jump\t// in\n    tag_66:\n      dup1\n      iszero\n      tag_67\n      jumpi\n      dup1\n      0x1f\n      lt\n      tag_68\n      jumpi\n      0x0100\n      dup1\n      dup4\n      sload\n      div\n      mul\n      dup4\n      mstore\n      swap2\n      0x20\n      add\n      swap2\n      jump(tag_67)\n    tag_68:\n      dup3\n      add\n      swap2\n      swap1\n      0x00\n      mstore\n      keccak256(0x00, 0x20)\n      swap1\n    tag_69:\n      dup2\n      sload\n      dup2\n      mstore\n      swap1\n      0x01\n      add\n      swap1\n      0x20\n      add\n      dup1\n      dup4\n      gt\n      tag_69\n      jumpi\n      dup3\n      swap1\n      sub\n      0x1f\n      and\n      dup3\n      add\n      swap2\n    tag_67:\n      pop\n      pop\n      pop\n      pop\n      pop\n      dup2\n      mstore\n      0x20\n      add\n      0x01\n      dup3\n      add\n      dup1\n      sload\n      tag_70\n      swap1\n      tag_65\n      jump\t// in\n    tag_70:\n      dup1\n      0x1f\n      add\n      0x20\n      dup1\n      swap2\n      div\n      mul\n      0x20\n      add\n      mload(0x40)\n      swap1\n      dup2\n      add\n      0x40\n      mstore\n      dup1\n      swap3\n      swap2\n      swap1\n      dup2\n      dup2\n      mstore\n      0x20\n      add\n      dup3\n      dup1\n      sload\n      tag_71\n      swap1\n      tag_65\n      jump\t// in\n    tag_71:\n      dup1\n      iszero\n      tag_72\n      jumpi\n      dup1\n      0x1f\n      lt\n      tag_73\n      jumpi\n      0x0100\n      dup1\n      dup4\n      sload\n      div\n      mul\n      dup4\n      mstore\n      swap2\n      0x20\n      add\n      swap2\n      jump(tag_72)\n    tag_73:\n      dup3\n      add\n      swap2\n      swap1\n      0x00\n      mstore\n      keccak256(0x00, 0x20)\n      swap1\n    tag_74:\n      dup2\n      sload\n      dup2\n      mstore\n      swap1\n      0x01\n      add\n      swap1\n      0x20\n      add\n      dup1\n      dup4\n      gt\n      tag_74\n      jumpi\n      dup3\n      swap1\n      sub\n      0x1f\n      and\n      dup3\n      add\n      swap2\n    tag_72:\n      pop\n      pop\n      pop\n      pop\n      pop\n      dup2\n      mstore\n      0x20\n      add\n      0x02\n      dup3\n      add\n      dup1\n      sload\n      tag_75\n      swap1\n      tag_65\n      jump\t// in\n    tag_75:\n      dup1\n      0x1f\n      add\n      0x20\n      dup1\n      swap2\n      div\n      mul\n      0x20\n      add\n      mload(0x40)\n      swap1\n      dup2\n      add\n      0x40\n      mstore\n      dup1\n      swap3\n      swap2\n      swap1\n      dup2\n      dup2\n      mstore\n      0x20\n      add\n      dup3\n      dup1\n      sload\n      tag_76\n      swap1\n      tag_65\n      jump\t// in\n    tag_76:\n      dup1\n      iszero\n      tag_77\n      jumpi\n      dup1\n      0x1f\n      lt\n      tag_78\n      jumpi\n      0x0100\n      dup1\n      dup4\n      sload\n      div\n      mul\n      dup4\n      mstore\n      swap2\n      0x20\n      add\n      swap2\n      jump(tag_77)\n    tag_78:\n      dup3\n      add\n      swap2\n      swap1\n      0x00\n      mstore\n      keccak256(0x00, 0x20)\n      swap1\n    tag_79:\n      dup2\n      sload\n      dup2\n      mstore\n      swap1\n      0x01\n      add\n      swap1\n      0x20\n      add\n      dup1\n      dup4\n      gt\n      tag_79\n      jumpi\n      dup3\n      swap1\n      sub\n      0x1f\n      and\n      dup3\n      add\n      swap2\n    tag_77:\n      pop\n      pop\n      pop\n      pop\n      pop\n      dup2\n      mstore\n      0x20\n      add\n      0x03\n      dup3\n      add\n      dup1\n      sload\n      tag_80\n      swap1\n      tag_65\n      jump\t// in\n    tag_80:\n      dup1\n      0x1f\n      add\n      0x20\n      dup1\n      swap2\n      div\n      mul\n      0x20\n      add\n      mload(0x40)\n      swap1\n      dup2\n      add\n      0x40\n      mstore\n      dup1\n      swap3\n      swap2\n      swap1\n      dup2\n      dup2\n      mstore\n      0x20\n      add\n      dup3\n      dup1\n      sload\n      tag_81\n      swap1\n      tag_65\n      jump\t// in\n    tag_81:\n      dup1\n      iszero\n      tag_82\n      jumpi\n      dup1\n      0x1f\n      lt\n      tag_83\n      jumpi\n      0x0100\n      dup1\n      dup4\n      sload\n      div\n      mul\n      dup4\n      mstore\n      swap2\n      0x20\n      add\n      swap2\n      jump(tag_82)\n    tag_83:\n      dup3\n      add\n      swap2\n      swap1\n      0x00\n      mstore\n      keccak256(0x00, 0x20)\n      swap1\n    tag_84:\n      dup2\n      sload\n      dup2\n      mstore\n      swap1\n      0x01\n      add\n      swap1\n      0x20\n      add\n      dup1\n      dup4\n      gt\n      tag_84\n      jumpi\n      dup3\n      swap1\n      sub\n      0x1f\n      and\n      dup3\n      add\n      swap2\n    tag_82:\n      pop\n      pop\n      pop\n      pop\n      pop\n      dup2\n      mstore\n      pop\n      pop\n      swap1\n      pop\n        /* \"contracts/1_Storage.sol\":921:1030  function getOrder(uint256 orderId) public view returns (Order memory) {... */\n      swap2\n      swap1\n      pop\n      jump\t// out\n    tag_62:\n      mload(0x40)\n      dup1\n      0x80\n      add\n      0x40\n      mstore\n      dup1\n      0x60\n      dup2\n      mstore\n      0x20\n      add\n      0x60\n      dup2\n      mstore\n      0x20\n      add\n      0x60\n      dup2\n      mstore\n      0x20\n      add\n      0x60\n      dup2\n      mstore\n      pop\n      swap1\n      jump\t// out\n        /* \"#utility.yul\":7:82   */\n    tag_85:\n        /* \"#utility.yul\":40:46   */\n      0x00\n        /* \"#utility.yul\":73:75   */\n      0x40\n        /* \"#utility.yul\":67:76   */\n      mload\n        /* \"#utility.yul\":57:76   */\n      swap1\n      pop\n        /* \"#utility.yul\":7:82   */\n      swap1\n      jump\t// out\n        /* \"#utility.yul\":88:205   */\n    tag_86:\n        /* \"#utility.yul\":197:198   */\n      0x00\n        /* \"#utility.yul\":194:195   */\n      dup1\n        /* \"#utility.yul\":187:199   */\n      revert\n        /* \"#utility.yul\":211:328   */\n    tag_87:\n        /* \"#utility.yul\":320:321   */\n      0x00\n        /* \"#utility.yul\":317:318   */\n      dup1\n        /* \"#utility.yul\":310:322   */\n      revert\n        /* \"#utility.yul\":334:411   */\n    tag_88:\n        /* \"#utility.yul\":371:378   */\n      0x00\n        /* \"#utility.yul\":400:405   */\n      dup2\n        /* \"#utility.yul\":389:405   */\n      swap1\n      pop\n        /* \"#utility.yul\":334:411   */\n      swap2\n      swap1\n      pop\n      jump\t// out\n        /* \"#utility.yul\":417:539   */\n    tag_89:\n        /* \"#utility.yul\":490:514   */\n      tag_135\n        /* \"#utility.yul\":508:513   */\n      dup2\n        /* \"#utility.yul\":490:514   */\n      tag_88\n      jump\t// in\n    tag_135:\n        /* \"#utility.yul\":483:488   */\n      dup2\n        /* \"#utility.yul\":480:515   */\n      eq\n        /* \"#utility.yul\":470:533   */\n      tag_136\n      jumpi\n        /* \"#utility.yul\":529:530   */\n      0x00\n        /* \"#utility.yul\":526:527   */\n      dup1\n        /* \"#utility.yul\":519:531   */\n      revert\n        /* \"#utility.yul\":470:533   */\n    tag_136:\n        /* \"#utility.yul\":417:539   */\n      pop\n      jump\t// out\n        /* \"#utility.yul\":545:684   */\n    tag_90:\n        /* \"#utility.yul\":591:596   */\n      0x00\n        /* \"#utility.yul\":629:635   */\n      dup2\n        /* \"#utility.yul\":616:636   */\n      calldataload\n        /* \"#utility.yul\":607:636   */\n      swap1\n      pop\n        /* \"#utility.yul\":645:678   */\n      tag_138\n        /* \"#utility.yul\":672:677   */\n      dup2\n        /* \"#utility.yul\":645:678   */\n      tag_89\n      jump\t// in\n    tag_138:\n        /* \"#utility.yul\":545:684   */\n      swap3\n      swap2\n      pop\n      pop\n      jump\t// out\n        /* \"#utility.yul\":690:1019   */\n    tag_9:\n        /* \"#utility.yul\":749:755   */\n      0x00\n        /* \"#utility.yul\":798:800   */\n      0x20\n        /* \"#utility.yul\":786:795   */\n      dup3\n        /* \"#utility.yul\":777:784   */\n      dup5\n        /* \"#utility.yul\":773:796   */\n      sub\n        /* \"#utility.yul\":769:801   */\n      slt\n        /* \"#utility.yul\":766:885   */\n      iszero\n      tag_140\n      jumpi\n        /* \"#utility.yul\":804:883   */\n      tag_141\n      tag_86\n      jump\t// in\n    tag_141:\n        /* \"#utility.yul\":766:885   */\n    tag_140:\n        /* \"#utility.yul\":924:925   */\n      0x00\n        /* \"#utility.yul\":949:1002   */\n      tag_142\n        /* \"#utility.yul\":994:1001   */\n      dup5\n        /* \"#utility.yul\":985:991   */\n      dup3\n        /* \"#utility.yul\":974:983   */\n      dup6\n        /* \"#utility.yul\":970:992   */\n      add\n        /* \"#utility.yul\":949:1002   */\n      tag_90\n      jump\t// in\n    tag_142:\n        /* \"#utility.yul\":939:1002   */\n      swap2\n      pop\n        /* \"#utility.yul\":895:1012   */\n      pop\n        /* \"#utility.yul\":690:1019   */\n      swap3\n      swap2\n      pop\n      pop\n      jump\t// out\n        /* \"#utility.yul\":1025:1151   */\n    tag_91:\n        /* \"#utility.yul\":1062:1069   */\n      0x00\n        /* \"#utility.yul\":1102:1144   */\n      0xffffffffffffffffffffffffffffffffffffffff\n        /* \"#utility.yul\":1095:1100   */\n      dup3\n        /* \"#utility.yul\":1091:1145   */\n      and\n        /* \"#utility.yul\":1080:1145   */\n      swap1\n      pop\n        /* \"#utility.yul\":1025:1151   */\n      swap2\n      swap1\n      pop\n      jump\t// out\n        /* \"#utility.yul\":1157:1253   */\n    tag_92:\n        /* \"#utility.yul\":1194:1201   */\n      0x00\n        /* \"#utility.yul\":1223:1247   */\n      tag_145\n        /* \"#utility.yul\":1241:1246   */\n      dup3\n        /* \"#utility.yul\":1223:1247   */\n      tag_91\n      jump\t// in\n    tag_145:\n        /* \"#utility.yul\":1212:1247   */\n      swap1\n      pop\n        /* \"#utility.yul\":1157:1253   */\n      swap2\n      swap1\n      pop\n      jump\t// out\n        /* \"#utility.yul\":1259:1377   */\n    tag_93:\n        /* \"#utility.yul\":1346:1370   */\n      tag_147\n        /* \"#utility.yul\":1364:1369   */\n      dup2\n        /* \"#utility.yul\":1346:1370   */\n      tag_92\n      jump\t// in\n    tag_147:\n        /* \"#utility.yul\":1341:1344   */\n      dup3\n        /* \"#utility.yul\":1334:1371   */\n      mstore\n        /* \"#utility.yul\":1259:1377   */\n      pop\n      pop\n      jump\t// out\n        /* \"#utility.yul\":1383:1605   */\n    tag_12:\n        /* \"#utility.yul\":1476:1480   */\n      0x00\n        /* \"#utility.yul\":1514:1516   */\n      0x20\n        /* \"#utility.yul\":1503:1512   */\n      dup3\n        /* \"#utility.yul\":1499:1517   */\n      add\n        /* \"#utility.yul\":1491:1517   */\n      swap1\n      pop\n        /* \"#utility.yul\":1527:1598   */\n      tag_149\n        /* \"#utility.yul\":1595:1596   */\n      0x00\n        /* \"#utility.yul\":1584:1593   */\n      dup4\n        /* \"#utility.yul\":1580:1597   */\n      add\n        /* \"#utility.yul\":1571:1577   */\n      dup5\n        /* \"#utility.yul\":1527:1598   */\n      tag_93\n      jump\t// in\n    tag_149:\n        /* \"#utility.yul\":1383:1605   */\n      swap3\n      swap2\n      pop\n      pop\n      jump\t// out\n        /* \"#utility.yul\":1611:1728   */\n    tag_94:\n        /* \"#utility.yul\":1720:1721   */\n      0x00\n        /* \"#utility.yul\":1717:1718   */\n      dup1\n        /* \"#utility.yul\":1710:1722   */\n      revert\n        /* \"#utility.yul\":1734:1851   */\n    tag_95:\n        /* \"#utility.yul\":1843:1844   */\n      0x00\n        /* \"#utility.yul\":1840:1841   */\n      dup1\n        /* \"#utility.yul\":1833:1845   */\n      revert\n        /* \"#utility.yul\":1857:1959   */\n    tag_96:\n        /* \"#utility.yul\":1898:1904   */\n      0x00\n        /* \"#utility.yul\":1949:1951   */\n      0x1f\n        /* \"#utility.yul\":1945:1952   */\n      not\n        /* \"#utility.yul\":1940:1942   */\n      0x1f\n        /* \"#utility.yul\":1933:1938   */\n      dup4\n        /* \"#utility.yul\":1929:1943   */\n      add\n        /* \"#utility.yul\":1925:1953   */\n      and\n        /* \"#utility.yul\":1915:1953   */\n      swap1\n      pop\n        /* \"#utility.yul\":1857:1959   */\n      swap2\n      swap1\n      pop\n      jump\t// out\n        /* \"#utility.yul\":1965:2145   */\n    tag_97:\n        /* \"#utility.yul\":2013:2090   */\n      0x4e487b7100000000000000000000000000000000000000000000000000000000\n        /* \"#utility.yul\":2010:2011   */\n      0x00\n        /* \"#utility.yul\":2003:2091   */\n      mstore\n        /* \"#utility.yul\":2110:2114   */\n      0x41\n        /* \"#utility.yul\":2107:2108   */\n      0x04\n        /* \"#utility.yul\":2100:2115   */\n      mstore\n        /* \"#utility.yul\":2134:2138   */\n      0x24\n        /* \"#utility.yul\":2131:2132   */\n      0x00\n        /* \"#utility.yul\":2124:2139   */\n      revert\n        /* \"#utility.yul\":2151:2432   */\n    tag_98:\n        /* \"#utility.yul\":2234:2261   */\n      tag_155\n        /* \"#utility.yul\":2256:2260   */\n      dup3\n        /* \"#utility.yul\":2234:2261   */\n      tag_96\n      jump\t// in\n    tag_155:\n        /* \"#utility.yul\":2226:2232   */\n      dup2\n        /* \"#utility.yul\":2222:2262   */\n      add\n        /* \"#utility.yul\":2364:2370   */\n      dup2\n        /* \"#utility.yul\":2352:2362   */\n      dup2\n        /* \"#utility.yul\":2349:2371   */\n      lt\n        /* \"#utility.yul\":2328:2346   */\n      0xffffffffffffffff\n        /* \"#utility.yul\":2316:2326   */\n      dup3\n        /* \"#utility.yul\":2313:2347   */\n      gt\n        /* \"#utility.yul\":2310:2372   */\n      or\n        /* \"#utility.yul\":2307:2395   */\n      iszero\n      tag_156\n      jumpi\n        /* \"#utility.yul\":2375:2393   */\n      tag_157\n      tag_97\n      jump\t// in\n    tag_157:\n        /* \"#utility.yul\":2307:2395   */\n    tag_156:\n        /* \"#utility.yul\":2415:2425   */\n      dup1\n        /* \"#utility.yul\":2411:2413   */\n      0x40\n        /* \"#utility.yul\":2404:2426   */\n      mstore\n        /* \"#utility.yul\":2194:2432   */\n      pop\n        /* \"#utility.yul\":2151:2432   */\n      pop\n      pop\n      jump\t// out\n        /* \"#utility.yul\":2438:2567   */\n    tag_99:\n        /* \"#utility.yul\":2472:2478   */\n      0x00\n        /* \"#utility.yul\":2499:2519   */\n      tag_159\n      tag_85\n      jump\t// in\n    tag_159:\n        /* \"#utility.yul\":2489:2519   */\n      swap1\n      pop\n        /* \"#utility.yul\":2528:2561   */\n      tag_160\n        /* \"#utility.yul\":2556:2560   */\n      dup3\n        /* \"#utility.yul\":2548:2554   */\n      dup3\n        /* \"#utility.yul\":2528:2561   */\n      tag_98\n      jump\t// in\n    tag_160:\n        /* \"#utility.yul\":2438:2567   */\n      swap2\n      swap1\n      pop\n      jump\t// out\n        /* \"#utility.yul\":2573:2881   */\n    tag_100:\n        /* \"#utility.yul\":2635:2639   */\n      0x00\n        /* \"#utility.yul\":2725:2743   */\n      0xffffffffffffffff\n        /* \"#utility.yul\":2717:2723   */\n      dup3\n        /* \"#utility.yul\":2714:2744   */\n      gt\n        /* \"#utility.yul\":2711:2767   */\n      iszero\n      tag_162\n      jumpi\n        /* \"#utility.yul\":2747:2765   */\n      tag_163\n      tag_97\n      jump\t// in\n    tag_163:\n        /* \"#utility.yul\":2711:2767   */\n    tag_162:\n        /* \"#utility.yul\":2785:2814   */\n      tag_164\n        /* \"#utility.yul\":2807:2813   */\n      dup3\n        /* \"#utility.yul\":2785:2814   */\n      tag_96\n      jump\t// in\n    tag_164:\n        /* \"#utility.yul\":2777:2814   */\n      swap1\n      pop\n        /* \"#utility.yul\":2869:2873   */\n      0x20\n        /* \"#utility.yul\":2863:2867   */\n      dup2\n        /* \"#utility.yul\":2859:2874   */\n      add\n        /* \"#utility.yul\":2851:2874   */\n      swap1\n      pop\n        /* \"#utility.yul\":2573:2881   */\n      swap2\n      swap1\n      pop\n      jump\t// out\n        /* \"#utility.yul\":2887:3033   */\n    tag_101:\n        /* \"#utility.yul\":2984:2990   */\n      dup3\n        /* \"#utility.yul\":2979:2982   */\n      dup2\n        /* \"#utility.yul\":2974:2977   */\n      dup4\n        /* \"#utility.yul\":2961:2991   */\n      calldatacopy\n        /* \"#utility.yul\":3025:3026   */\n      0x00\n        /* \"#utility.yul\":3016:3022   */\n      dup4\n        /* \"#utility.yul\":3011:3014   */\n      dup4\n        /* \"#utility.yul\":3007:3023   */\n      add\n        /* \"#utility.yul\":3000:3027   */\n      mstore\n        /* \"#utility.yul\":2887:3033   */\n      pop\n      pop\n      pop\n      jump\t// out\n        /* \"#utility.yul\":3039:3464   */\n    tag_102:\n        /* \"#utility.yul\":3117:3122   */\n      0x00\n        /* \"#utility.yul\":3142:3208   */\n      tag_167\n        /* \"#utility.yul\":3158:3207   */\n      tag_168\n        /* \"#utility.yul\":3200:3206   */\n      dup5\n        /* \"#utility.yul\":3158:3207   */\n      tag_100\n      jump\t// in\n    tag_168:\n        /* \"#utility.yul\":3142:3208   */\n      tag_99\n      jump\t// in\n    tag_167:\n        /* \"#utility.yul\":3133:3208   */\n      swap1\n      pop\n        /* \"#utility.yul\":3231:3237   */\n      dup3\n        /* \"#utility.yul\":3224:3229   */\n      dup2\n        /* \"#utility.yul\":3217:3238   */\n      mstore\n        /* \"#utility.yul\":3269:3273   */\n      0x20\n        /* \"#utility.yul\":3262:3267   */\n      dup2\n        /* \"#utility.yul\":3258:3274   */\n      add\n        /* \"#utility.yul\":3307:3310   */\n      dup5\n        /* \"#utility.yul\":3298:3304   */\n      dup5\n        /* \"#utility.yul\":3293:3296   */\n      dup5\n        /* \"#utility.yul\":3289:3305   */\n      add\n        /* \"#utility.yul\":3286:3311   */\n      gt\n        /* \"#utility.yul\":3283:3395   */\n      iszero\n      tag_169\n      jumpi\n        /* \"#utility.yul\":3314:3393   */\n      tag_170\n      tag_95\n      jump\t// in\n    tag_170:\n        /* \"#utility.yul\":3283:3395   */\n    tag_169:\n        /* \"#utility.yul\":3404:3458   */\n      tag_171\n        /* \"#utility.yul\":3451:3457   */\n      dup5\n        /* \"#utility.yul\":3446:3449   */\n      dup3\n        /* \"#utility.yul\":3441:3444   */\n      dup6\n        /* \"#utility.yul\":3404:3458   */\n      tag_101\n      jump\t// in\n    tag_171:\n        /* \"#utility.yul\":3123:3464   */\n      pop\n        /* \"#utility.yul\":3039:3464   */\n      swap4\n      swap3\n      pop\n      pop\n      pop\n      jump\t// out\n        /* \"#utility.yul\":3484:3824   */\n    tag_103:\n        /* \"#utility.yul\":3540:3545   */\n      0x00\n        /* \"#utility.yul\":3589:3592   */\n      dup3\n        /* \"#utility.yul\":3582:3586   */\n      0x1f\n        /* \"#utility.yul\":3574:3580   */\n      dup4\n        /* \"#utility.yul\":3570:3587   */\n      add\n        /* \"#utility.yul\":3566:3593   */\n      slt\n        /* \"#utility.yul\":3556:3678   */\n      tag_173\n      jumpi\n        /* \"#utility.yul\":3597:3676   */\n      tag_174\n      tag_94\n      jump\t// in\n    tag_174:\n        /* \"#utility.yul\":3556:3678   */\n    tag_173:\n        /* \"#utility.yul\":3714:3720   */\n      dup2\n        /* \"#utility.yul\":3701:3721   */\n      calldataload\n        /* \"#utility.yul\":3739:3818   */\n      tag_175\n        /* \"#utility.yul\":3814:3817   */\n      dup5\n        /* \"#utility.yul\":3806:3812   */\n      dup3\n        /* \"#utility.yul\":3799:3803   */\n      0x20\n        /* \"#utility.yul\":3791:3797   */\n      dup7\n        /* \"#utility.yul\":3787:3804   */\n      add\n        /* \"#utility.yul\":3739:3818   */\n      tag_102\n      jump\t// in\n    tag_175:\n        /* \"#utility.yul\":3730:3818   */\n      swap2\n      pop\n        /* \"#utility.yul\":3546:3824   */\n      pop\n        /* \"#utility.yul\":3484:3824   */\n      swap3\n      swap2\n      pop\n      pop\n      jump\t// out\n        /* \"#utility.yul\":3830:4484   */\n    tag_15:\n        /* \"#utility.yul\":3908:3914   */\n      0x00\n        /* \"#utility.yul\":3916:3922   */\n      dup1\n        /* \"#utility.yul\":3965:3967   */\n      0x40\n        /* \"#utility.yul\":3953:3962   */\n      dup4\n        /* \"#utility.yul\":3944:3951   */\n      dup6\n        /* \"#utility.yul\":3940:3963   */\n      sub\n        /* \"#utility.yul\":3936:3968   */\n      slt\n        /* \"#utility.yul\":3933:4052   */\n      iszero\n      tag_177\n      jumpi\n        /* \"#utility.yul\":3971:4050   */\n      tag_178\n      tag_86\n      jump\t// in\n    tag_178:\n        /* \"#utility.yul\":3933:4052   */\n    tag_177:\n        /* \"#utility.yul\":4091:4092   */\n      0x00\n        /* \"#utility.yul\":4116:4169   */\n      tag_179\n        /* \"#utility.yul\":4161:4168   */\n      dup6\n        /* \"#utility.yul\":4152:4158   */\n      dup3\n        /* \"#utility.yul\":4141:4150   */\n      dup7\n        /* \"#utility.yul\":4137:4159   */\n      add\n        /* \"#utility.yul\":4116:4169   */\n      tag_90\n      jump\t// in\n    tag_179:\n        /* \"#utility.yul\":4106:4169   */\n      swap3\n      pop\n        /* \"#utility.yul\":4062:4179   */\n      pop\n        /* \"#utility.yul\":4246:4248   */\n      0x20\n        /* \"#utility.yul\":4235:4244   */\n      dup4\n        /* \"#utility.yul\":4231:4249   */\n      add\n        /* \"#utility.yul\":4218:4250   */\n      calldataload\n        /* \"#utility.yul\":4277:4295   */\n      0xffffffffffffffff\n        /* \"#utility.yul\":4269:4275   */\n      dup2\n        /* \"#utility.yul\":4266:4296   */\n      gt\n        /* \"#utility.yul\":4263:4380   */\n      iszero\n      tag_180\n      jumpi\n        /* \"#utility.yul\":4299:4378   */\n      tag_181\n      tag_87\n      jump\t// in\n    tag_181:\n        /* \"#utility.yul\":4263:4380   */\n    tag_180:\n        /* \"#utility.yul\":4404:4467   */\n      tag_182\n        /* \"#utility.yul\":4459:4466   */\n      dup6\n        /* \"#utility.yul\":4450:4456   */\n      dup3\n        /* \"#utility.yul\":4439:4448   */\n      dup7\n        /* \"#utility.yul\":4435:4457   */\n      add\n        /* \"#utility.yul\":4404:4467   */\n      tag_103\n      jump\t// in\n    tag_182:\n        /* \"#utility.yul\":4394:4467   */\n      swap2\n      pop\n        /* \"#utility.yul\":4189:4477   */\n      pop\n        /* \"#utility.yul\":3830:4484   */\n      swap3\n      pop\n      swap3\n      swap1\n      pop\n      jump\t// out\n        /* \"#utility.yul\":4490:6121   */\n    tag_19:\n        /* \"#utility.yul\":4625:4631   */\n      0x00\n        /* \"#utility.yul\":4633:4639   */\n      dup1\n        /* \"#utility.yul\":4641:4647   */\n      0x00\n        /* \"#utility.yul\":4649:4655   */\n      dup1\n        /* \"#utility.yul\":4657:4663   */\n      0x00\n        /* \"#utility.yul\":4706:4709   */\n      0xa0\n        /* \"#utility.yul\":4694:4703   */\n      dup7\n        /* \"#utility.yul\":4685:4692   */\n      dup9\n        /* \"#utility.yul\":4681:4704   */\n      sub\n        /* \"#utility.yul\":4677:4710   */\n      slt\n        /* \"#utility.yul\":4674:4794   */\n      iszero\n      tag_184\n      jumpi\n        /* \"#utility.yul\":4713:4792   */\n      tag_185\n      tag_86\n      jump\t// in\n    tag_185:\n        /* \"#utility.yul\":4674:4794   */\n    tag_184:\n        /* \"#utility.yul\":4833:4834   */\n      0x00\n        /* \"#utility.yul\":4858:4911   */\n      tag_186\n        /* \"#utility.yul\":4903:4910   */\n      dup9\n        /* \"#utility.yul\":4894:4900   */\n      dup3\n        /* \"#utility.yul\":4883:4892   */\n      dup10\n        /* \"#utility.yul\":4879:4901   */\n      add\n        /* \"#utility.yul\":4858:4911   */\n      tag_90\n      jump\t// in\n    tag_186:\n        /* \"#utility.yul\":4848:4911   */\n      swap6\n      pop\n        /* \"#utility.yul\":4804:4921   */\n      pop\n        /* \"#utility.yul\":4988:4990   */\n      0x20\n        /* \"#utility.yul\":4977:4986   */\n      dup7\n        /* \"#utility.yul\":4973:4991   */\n      add\n        /* \"#utility.yul\":4960:4992   */\n      calldataload\n        /* \"#utility.yul\":5019:5037   */\n      0xffffffffffffffff\n        /* \"#utility.yul\":5011:5017   */\n      dup2\n        /* \"#utility.yul\":5008:5038   */\n      gt\n        /* \"#utility.yul\":5005:5122   */\n      iszero\n      tag_187\n      jumpi\n        /* \"#utility.yul\":5041:5120   */\n      tag_188\n      tag_87\n      jump\t// in\n    tag_188:\n        /* \"#utility.yul\":5005:5122   */\n    tag_187:\n        /* \"#utility.yul\":5146:5209   */\n      tag_189\n        /* \"#utility.yul\":5201:5208   */\n      dup9\n        /* \"#utility.yul\":5192:5198   */\n      dup3\n        /* \"#utility.yul\":5181:5190   */\n      dup10\n        /* \"#utility.yul\":5177:5199   */\n      add\n        /* \"#utility.yul\":5146:5209   */\n      tag_103\n      jump\t// in\n    tag_189:\n        /* \"#utility.yul\":5136:5209   */\n      swap5\n      pop\n        /* \"#utility.yul\":4931:5219   */\n      pop\n        /* \"#utility.yul\":5286:5288   */\n      0x40\n        /* \"#utility.yul\":5275:5284   */\n      dup7\n        /* \"#utility.yul\":5271:5289   */\n      add\n        /* \"#utility.yul\":5258:5290   */\n      calldataload\n        /* \"#utility.yul\":5317:5335   */\n      0xffffffffffffffff\n        /* \"#utility.yul\":5309:5315   */\n      dup2\n        /* \"#utility.yul\":5306:5336   */\n      gt\n        /* \"#utility.yul\":5303:5420   */\n      iszero\n      tag_190\n      jumpi\n        /* \"#utility.yul\":5339:5418   */\n      tag_191\n      tag_87\n      jump\t// in\n    tag_191:\n        /* \"#utility.yul\":5303:5420   */\n    tag_190:\n        /* \"#utility.yul\":5444:5507   */\n      tag_192\n        /* \"#utility.yul\":5499:5506   */\n      dup9\n        /* \"#utility.yul\":5490:5496   */\n      dup3\n        /* \"#utility.yul\":5479:5488   */\n      dup10\n        /* \"#utility.yul\":5475:5497   */\n      add\n        /* \"#utility.yul\":5444:5507   */\n      tag_103\n      jump\t// in\n    tag_192:\n        /* \"#utility.yul\":5434:5507   */\n      swap4\n      pop\n        /* \"#utility.yul\":5229:5517   */\n      pop\n        /* \"#utility.yul\":5584:5586   */\n      0x60\n        /* \"#utility.yul\":5573:5582   */\n      dup7\n        /* \"#utility.yul\":5569:5587   */\n      add\n        /* \"#utility.yul\":5556:5588   */\n      calldataload\n        /* \"#utility.yul\":5615:5633   */\n      0xffffffffffffffff\n        /* \"#utility.yul\":5607:5613   */\n      dup2\n        /* \"#utility.yul\":5604:5634   */\n      gt\n        /* \"#utility.yul\":5601:5718   */\n      iszero\n      tag_193\n      jumpi\n        /* \"#utility.yul\":5637:5716   */\n      tag_194\n      tag_87\n      jump\t// in\n    tag_194:\n        /* \"#utility.yul\":5601:5718   */\n    tag_193:\n        /* \"#utility.yul\":5742:5805   */\n      tag_195\n        /* \"#utility.yul\":5797:5804   */\n      dup9\n        /* \"#utility.yul\":5788:5794   */\n      dup3\n        /* \"#utility.yul\":5777:5786   */\n      dup10\n        /* \"#utility.yul\":5773:5795   */\n      add\n        /* \"#utility.yul\":5742:5805   */\n      tag_103\n      jump\t// in\n    tag_195:\n        /* \"#utility.yul\":5732:5805   */\n      swap3\n      pop\n        /* \"#utility.yul\":5527:5815   */\n      pop\n        /* \"#utility.yul\":5882:5885   */\n      0x80\n        /* \"#utility.yul\":5871:5880   */\n      dup7\n        /* \"#utility.yul\":5867:5886   */\n      add\n        /* \"#utility.yul\":5854:5887   */\n      calldataload\n        /* \"#utility.yul\":5914:5932   */\n      0xffffffffffffffff\n        /* \"#utility.yul\":5906:5912   */\n      dup2\n        /* \"#utility.yul\":5903:5933   */\n      gt\n        /* \"#utility.yul\":5900:6017   */\n      iszero\n      tag_196\n      jumpi\n        /* \"#utility.yul\":5936:6015   */\n      tag_197\n      tag_87\n      jump\t// in\n    tag_197:\n        /* \"#utility.yul\":5900:6017   */\n    tag_196:\n        /* \"#utility.yul\":6041:6104   */\n      tag_198\n        /* \"#utility.yul\":6096:6103   */\n      dup9\n        /* \"#utility.yul\":6087:6093   */\n      dup3\n        /* \"#utility.yul\":6076:6085   */\n      dup10\n        /* \"#utility.yul\":6072:6094   */\n      add\n        /* \"#utility.yul\":6041:6104   */\n      tag_103\n      jump\t// in\n    tag_198:\n        /* \"#utility.yul\":6031:6104   */\n      swap2\n      pop\n        /* \"#utility.yul\":5825:6114   */\n      pop\n        /* \"#utility.yul\":4490:6121   */\n      swap3\n      swap6\n      pop\n      swap3\n      swap6\n      swap1\n      swap4\n      pop\n      jump\t// out\n        /* \"#utility.yul\":6127:6226   */\n    tag_104:\n        /* \"#utility.yul\":6179:6185   */\n      0x00\n        /* \"#utility.yul\":6213:6218   */\n      dup2\n        /* \"#utility.yul\":6207:6219   */\n      mload\n        /* \"#utility.yul\":6197:6219   */\n      swap1\n      pop\n        /* \"#utility.yul\":6127:6226   */\n      swap2\n      swap1\n      pop\n      jump\t// out\n        /* \"#utility.yul\":6232:6391   */\n    tag_105:\n        /* \"#utility.yul\":6306:6317   */\n      0x00\n        /* \"#utility.yul\":6340:6346   */\n      dup3\n        /* \"#utility.yul\":6335:6338   */\n      dup3\n        /* \"#utility.yul\":6328:6347   */\n      mstore\n        /* \"#utility.yul\":6380:6384   */\n      0x20\n        /* \"#utility.yul\":6375:6378   */\n      dup3\n        /* \"#utility.yul\":6371:6385   */\n      add\n        /* \"#utility.yul\":6356:6385   */\n      swap1\n      pop\n        /* \"#utility.yul\":6232:6391   */\n      swap3\n      swap2\n      pop\n      pop\n      jump\t// out\n        /* \"#utility.yul\":6397:6643   */\n    tag_106:\n        /* \"#utility.yul\":6478:6479   */\n      0x00\n        /* \"#utility.yul\":6488:6601   */\n    tag_202:\n        /* \"#utility.yul\":6502:6508   */\n      dup4\n        /* \"#utility.yul\":6499:6500   */\n      dup2\n        /* \"#utility.yul\":6496:6509   */\n      lt\n        /* \"#utility.yul\":6488:6601   */\n      iszero\n      tag_204\n      jumpi\n        /* \"#utility.yul\":6587:6588   */\n      dup1\n        /* \"#utility.yul\":6582:6585   */\n      dup3\n        /* \"#utility.yul\":6578:6589   */\n      add\n        /* \"#utility.yul\":6572:6590   */\n      mload\n        /* \"#utility.yul\":6568:6569   */\n      dup2\n        /* \"#utility.yul\":6563:6566   */\n      dup5\n        /* \"#utility.yul\":6559:6570   */\n      add\n        /* \"#utility.yul\":6552:6591   */\n      mstore\n        /* \"#utility.yul\":6524:6526   */\n      0x20\n        /* \"#utility.yul\":6521:6522   */\n      dup2\n        /* \"#utility.yul\":6517:6527   */\n      add\n        /* \"#utility.yul\":6512:6527   */\n      swap1\n      pop\n        /* \"#utility.yul\":6488:6601   */\n      jump(tag_202)\n    tag_204:\n        /* \"#utility.yul\":6635:6636   */\n      0x00\n        /* \"#utility.yul\":6626:6632   */\n      dup5\n        /* \"#utility.yul\":6621:6624   */\n      dup5\n        /* \"#utility.yul\":6617:6633   */\n      add\n        /* \"#utility.yul\":6610:6637   */\n      mstore\n        /* \"#utility.yul\":6459:6643   */\n      pop\n        /* \"#utility.yul\":6397:6643   */\n      pop\n      pop\n      pop\n      jump\t// out\n        /* \"#utility.yul\":6649:7006   */\n    tag_107:\n        /* \"#utility.yul\":6727:6730   */\n      0x00\n        /* \"#utility.yul\":6755:6794   */\n      tag_206\n        /* \"#utility.yul\":6788:6793   */\n      dup3\n        /* \"#utility.yul\":6755:6794   */\n      tag_104\n      jump\t// in\n    tag_206:\n        /* \"#utility.yul\":6810:6871   */\n      tag_207\n        /* \"#utility.yul\":6864:6870   */\n      dup2\n        /* \"#utility.yul\":6859:6862   */\n      dup6\n        /* \"#utility.yul\":6810:6871   */\n      tag_105\n      jump\t// in\n    tag_207:\n        /* \"#utility.yul\":6803:6871   */\n      swap4\n      pop\n        /* \"#utility.yul\":6880:6945   */\n      tag_208\n        /* \"#utility.yul\":6938:6944   */\n      dup2\n        /* \"#utility.yul\":6933:6936   */\n      dup6\n        /* \"#utility.yul\":6926:6930   */\n      0x20\n        /* \"#utility.yul\":6919:6924   */\n      dup7\n        /* \"#utility.yul\":6915:6931   */\n      add\n        /* \"#utility.yul\":6880:6945   */\n      tag_106\n      jump\t// in\n    tag_208:\n        /* \"#utility.yul\":6970:6999   */\n      tag_209\n        /* \"#utility.yul\":6992:6998   */\n      dup2\n        /* \"#utility.yul\":6970:6999   */\n      tag_96\n      jump\t// in\n    tag_209:\n        /* \"#utility.yul\":6965:6968   */\n      dup5\n        /* \"#utility.yul\":6961:7000   */\n      add\n        /* \"#utility.yul\":6954:7000   */\n      swap2\n      pop\n        /* \"#utility.yul\":6731:7006   */\n      pop\n        /* \"#utility.yul\":6649:7006   */\n      swap3\n      swap2\n      pop\n      pop\n      jump\t// out\n        /* \"#utility.yul\":7080:8252   */\n    tag_108:\n        /* \"#utility.yul\":7191:7194   */\n      0x00\n        /* \"#utility.yul\":7227:7231   */\n      0x80\n        /* \"#utility.yul\":7222:7225   */\n      dup4\n        /* \"#utility.yul\":7218:7232   */\n      add\n        /* \"#utility.yul\":7319:7323   */\n      0x00\n        /* \"#utility.yul\":7312:7317   */\n      dup4\n        /* \"#utility.yul\":7308:7324   */\n      add\n        /* \"#utility.yul\":7302:7325   */\n      mload\n        /* \"#utility.yul\":7372:7375   */\n      dup5\n        /* \"#utility.yul\":7366:7370   */\n      dup3\n        /* \"#utility.yul\":7362:7376   */\n      sub\n        /* \"#utility.yul\":7355:7359   */\n      0x00\n        /* \"#utility.yul\":7350:7353   */\n      dup7\n        /* \"#utility.yul\":7346:7360   */\n      add\n        /* \"#utility.yul\":7339:7377   */\n      mstore\n        /* \"#utility.yul\":7398:7471   */\n      tag_211\n        /* \"#utility.yul\":7466:7470   */\n      dup3\n        /* \"#utility.yul\":7452:7464   */\n      dup3\n        /* \"#utility.yul\":7398:7471   */\n      tag_107\n      jump\t// in\n    tag_211:\n        /* \"#utility.yul\":7390:7471   */\n      swap2\n      pop\n        /* \"#utility.yul\":7242:7482   */\n      pop\n        /* \"#utility.yul\":7566:7570   */\n      0x20\n        /* \"#utility.yul\":7559:7564   */\n      dup4\n        /* \"#utility.yul\":7555:7571   */\n      add\n        /* \"#utility.yul\":7549:7572   */\n      mload\n        /* \"#utility.yul\":7619:7622   */\n      dup5\n        /* \"#utility.yul\":7613:7617   */\n      dup3\n        /* \"#utility.yul\":7609:7623   */\n      sub\n        /* \"#utility.yul\":7602:7606   */\n      0x20\n        /* \"#utility.yul\":7597:7600   */\n      dup7\n        /* \"#utility.yul\":7593:7607   */\n      add\n        /* \"#utility.yul\":7586:7624   */\n      mstore\n        /* \"#utility.yul\":7645:7718   */\n      tag_212\n        /* \"#utility.yul\":7713:7717   */\n      dup3\n        /* \"#utility.yul\":7699:7711   */\n      dup3\n        /* \"#utility.yul\":7645:7718   */\n      tag_107\n      jump\t// in\n    tag_212:\n        /* \"#utility.yul\":7637:7718   */\n      swap2\n      pop\n        /* \"#utility.yul\":7492:7729   */\n      pop\n        /* \"#utility.yul\":7815:7819   */\n      0x40\n        /* \"#utility.yul\":7808:7813   */\n      dup4\n        /* \"#utility.yul\":7804:7820   */\n      add\n        /* \"#utility.yul\":7798:7821   */\n      mload\n        /* \"#utility.yul\":7868:7871   */\n      dup5\n        /* \"#utility.yul\":7862:7866   */\n      dup3\n        /* \"#utility.yul\":7858:7872   */\n      sub\n        /* \"#utility.yul\":7851:7855   */\n      0x40\n        /* \"#utility.yul\":7846:7849   */\n      dup7\n        /* \"#utility.yul\":7842:7856   */\n      add\n        /* \"#utility.yul\":7835:7873   */\n      mstore\n        /* \"#utility.yul\":7894:7967   */\n      tag_213\n        /* \"#utility.yul\":7962:7966   */\n      dup3\n        /* \"#utility.yul\":7948:7960   */\n      dup3\n        /* \"#utility.yul\":7894:7967   */\n      tag_107\n      jump\t// in\n    tag_213:\n        /* \"#utility.yul\":7886:7967   */\n      swap2\n      pop\n        /* \"#utility.yul\":7739:7978   */\n      pop\n        /* \"#utility.yul\":8062:8066   */\n      0x60\n        /* \"#utility.yul\":8055:8060   */\n      dup4\n        /* \"#utility.yul\":8051:8067   */\n      add\n        /* \"#utility.yul\":8045:8068   */\n      mload\n        /* \"#utility.yul\":8115:8118   */\n      dup5\n        /* \"#utility.yul\":8109:8113   */\n      dup3\n        /* \"#utility.yul\":8105:8119   */\n      sub\n        /* \"#utility.yul\":8098:8102   */\n      0x60\n        /* \"#utility.yul\":8093:8096   */\n      dup7\n        /* \"#utility.yul\":8089:8103   */\n      add\n        /* \"#utility.yul\":8082:8120   */\n      mstore\n        /* \"#utility.yul\":8141:8214   */\n      tag_214\n        /* \"#utility.yul\":8209:8213   */\n      dup3\n        /* \"#utility.yul\":8195:8207   */\n      dup3\n        /* \"#utility.yul\":8141:8214   */\n      tag_107\n      jump\t// in\n    tag_214:\n        /* \"#utility.yul\":8133:8214   */\n      swap2\n      pop\n        /* \"#utility.yul\":7988:8225   */\n      pop\n        /* \"#utility.yul\":8242:8246   */\n      dup1\n        /* \"#utility.yul\":8235:8246   */\n      swap2\n      pop\n        /* \"#utility.yul\":7196:8252   */\n      pop\n        /* \"#utility.yul\":7080:8252   */\n      swap3\n      swap2\n      pop\n      pop\n      jump\t// out\n        /* \"#utility.yul\":8258:8615   */\n    tag_25:\n        /* \"#utility.yul\":8393:8397   */\n      0x00\n        /* \"#utility.yul\":8431:8433   */\n      0x20\n        /* \"#utility.yul\":8420:8429   */\n      dup3\n        /* \"#utility.yul\":8416:8434   */\n      add\n        /* \"#utility.yul\":8408:8434   */\n      swap1\n      pop\n        /* \"#utility.yul\":8480:8489   */\n      dup2\n        /* \"#utility.yul\":8474:8478   */\n      dup2\n        /* \"#utility.yul\":8470:8490   */\n      sub\n        /* \"#utility.yul\":8466:8467   */\n      0x00\n        /* \"#utility.yul\":8455:8464   */\n      dup4\n        /* \"#utility.yul\":8451:8468   */\n      add\n        /* \"#utility.yul\":8444:8491   */\n      mstore\n        /* \"#utility.yul\":8508:8608   */\n      tag_216\n        /* \"#utility.yul\":8603:8607   */\n      dup2\n        /* \"#utility.yul\":8594:8600   */\n      dup5\n        /* \"#utility.yul\":8508:8608   */\n      tag_108\n      jump\t// in\n    tag_216:\n        /* \"#utility.yul\":8500:8608   */\n      swap1\n      pop\n        /* \"#utility.yul\":8258:8615   */\n      swap3\n      swap2\n      pop\n      pop\n      jump\t// out\n        /* \"#utility.yul\":8621:8801   */\n    tag_34:\n        /* \"#utility.yul\":8669:8746   */\n      0x4e487b7100000000000000000000000000000000000000000000000000000000\n        /* \"#utility.yul\":8666:8667   */\n      0x00\n        /* \"#utility.yul\":8659:8747   */\n      mstore\n        /* \"#utility.yul\":8766:8770   */\n      0x32\n        /* \"#utility.yul\":8763:8764   */\n      0x04\n        /* \"#utility.yul\":8756:8771   */\n      mstore\n        /* \"#utility.yul\":8790:8794   */\n      0x24\n        /* \"#utility.yul\":8787:8788   */\n      0x00\n        /* \"#utility.yul\":8780:8795   */\n      revert\n        /* \"#utility.yul\":8807:8987   */\n    tag_109:\n        /* \"#utility.yul\":8855:8932   */\n      0x4e487b7100000000000000000000000000000000000000000000000000000000\n        /* \"#utility.yul\":8852:8853   */\n      0x00\n        /* \"#utility.yul\":8845:8933   */\n      mstore\n        /* \"#utility.yul\":8952:8956   */\n      0x11\n        /* \"#utility.yul\":8949:8950   */\n      0x04\n        /* \"#utility.yul\":8942:8957   */\n      mstore\n        /* \"#utility.yul\":8976:8980   */\n      0x24\n        /* \"#utility.yul\":8973:8974   */\n      0x00\n        /* \"#utility.yul\":8966:8981   */\n      revert\n        /* \"#utility.yul\":8993:9226   */\n    tag_38:\n        /* \"#utility.yul\":9032:9035   */\n      0x00\n        /* \"#utility.yul\":9055:9079   */\n      tag_220\n        /* \"#utility.yul\":9073:9078   */\n      dup3\n        /* \"#utility.yul\":9055:9079   */\n      tag_88\n      jump\t// in\n    tag_220:\n        /* \"#utility.yul\":9046:9079   */\n      swap2\n      pop\n        /* \"#utility.yul\":9101:9167   */\n      0xffffffffffffffffffffffffffffffffffffffffffffffffffffffffffffffff\n        /* \"#utility.yul\":9094:9099   */\n      dup3\n        /* \"#utility.yul\":9091:9168   */\n      sub\n        /* \"#utility.yul\":9088:9191   */\n      tag_221\n      jumpi\n        /* \"#utility.yul\":9171:9189   */\n      tag_222\n      tag_109\n      jump\t// in\n    tag_222:\n        /* \"#utility.yul\":9088:9191   */\n    tag_221:\n        /* \"#utility.yul\":9218:9219   */\n      0x01\n        /* \"#utility.yul\":9211:9216   */\n      dup3\n        /* \"#utility.yul\":9207:9220   */\n      add\n        /* \"#utility.yul\":9200:9220   */\n      swap1\n      pop\n        /* \"#utility.yul\":8993:9226   */\n      swap2\n      swap1\n      pop\n      jump\t// out\n        /* \"#utility.yul\":9232:9401   */\n    tag_110:\n        /* \"#utility.yul\":9316:9327   */\n      0x00\n        /* \"#utility.yul\":9350:9356   */\n      dup3\n        /* \"#utility.yul\":9345:9348   */\n      dup3\n        /* \"#utility.yul\":9338:9357   */\n      mstore\n        /* \"#utility.yul\":9390:9394   */\n      0x20\n        /* \"#utility.yul\":9385:9388   */\n      dup3\n        /* \"#utility.yul\":9381:9395   */\n      add\n        /* \"#utility.yul\":9366:9395   */\n      swap1\n      pop\n        /* \"#utility.yul\":9232:9401   */\n      swap3\n      swap2\n      pop\n      pop\n      jump\t// out\n        /* \"#utility.yul\":9407:9631   */\n    tag_111:\n        /* \"#utility.yul\":9547:9581   */\n      0x4f6e6c7920616e2061646d696e2063616e2063616c6c20746869732066756e63\n        /* \"#utility.yul\":9543:9544   */\n      0x00\n        /* \"#utility.yul\":9535:9541   */\n      dup3\n        /* \"#utility.yul\":9531:9545   */\n      add\n        /* \"#utility.yul\":9524:9582   */\n      mstore\n        /* \"#utility.yul\":9616:9623   */\n      0x74696f6e2e000000000000000000000000000000000000000000000000000000\n        /* \"#utility.yul\":9611:9613   */\n      0x20\n        /* \"#utility.yul\":9603:9609   */\n      dup3\n        /* \"#utility.yul\":9599:9614   */\n      add\n        /* \"#utility.yul\":9592:9624   */\n      mstore\n        /* \"#utility.yul\":9407:9631   */\n      pop\n      jump\t// out\n        /* \"#utility.yul\":9637:10003   */\n    tag_112:\n        /* \"#utility.yul\":9779:9782   */\n      0x00\n        /* \"#utility.yul\":9800:9867   */\n      tag_226\n        /* \"#utility.yul\":9864:9866   */\n      0x25\n        /* \"#utility.yul\":9859:9862   */\n      dup4\n        /* \"#utility.yul\":9800:9867   */\n      tag_110\n      jump\t// in\n    tag_226:\n        /* \"#utility.yul\":9793:9867   */\n      swap2\n      pop\n        /* \"#utility.yul\":9876:9969   */\n      tag_227\n        /* \"#utility.yul\":9965:9968   */\n      dup3\n        /* \"#utility.yul\":9876:9969   */\n      tag_111\n      jump\t// in\n    tag_227:\n        /* \"#utility.yul\":9994:9996   */\n      0x40\n        /* \"#utility.yul\":9989:9992   */\n      dup3\n        /* \"#utility.yul\":9985:9997   */\n      add\n        /* \"#utility.yul\":9978:9997   */\n      swap1\n      pop\n        /* \"#utility.yul\":9637:10003   */\n      swap2\n      swap1\n      pop\n      jump\t// out\n        /* \"#utility.yul\":10009:10428   */\n    tag_41:\n        /* \"#utility.yul\":10175:10179   */\n      0x00\n        /* \"#utility.yul\":10213:10215   */\n      0x20\n        /* \"#utility.yul\":10202:10211   */\n      dup3\n        /* \"#utility.yul\":10198:10216   */\n      add\n        /* \"#utility.yul\":10190:10216   */\n      swap1\n      pop\n        /* \"#utility.yul\":10262:10271   */\n      dup2\n        /* \"#utility.yul\":10256:10260   */\n      dup2\n        /* \"#utility.yul\":10252:10272   */\n      sub\n        /* \"#utility.yul\":10248:10249   */\n      0x00\n        /* \"#utility.yul\":10237:10246   */\n      dup4\n        /* \"#utility.yul\":10233:10250   */\n      add\n        /* \"#utility.yul\":10226:10273   */\n      mstore\n        /* \"#utility.yul\":10290:10421   */\n      tag_229\n        /* \"#utility.yul\":10416:10420   */\n      dup2\n        /* \"#utility.yul\":10290:10421   */\n      tag_112\n      jump\t// in\n    tag_229:\n        /* \"#utility.yul\":10282:10421   */\n      swap1\n      pop\n        /* \"#utility.yul\":10009:10428   */\n      swap2\n      swap1\n      pop\n      jump\t// out\n        /* \"#utility.yul\":10434:10614   */\n    tag_113:\n        /* \"#utility.yul\":10482:10559   */\n      0x4e487b7100000000000000000000000000000000000000000000000000000000\n        /* \"#utility.yul\":10479:10480   */\n      0x00\n        /* \"#utility.yul\":10472:10560   */\n      mstore\n        /* \"#utility.yul\":10579:10583   */\n      0x22\n        /* \"#utility.yul\":10576:10577   */\n      0x04\n        /* \"#utility.yul\":10569:10584   */\n      mstore\n        /* \"#utility.yul\":10603:10607   */\n      0x24\n        /* \"#utility.yul\":10600:10601   */\n      0x00\n        /* \"#utility.yul\":10593:10608   */\n      revert\n        /* \"#utility.yul\":10620:10940   */\n    tag_65:\n        /* \"#utility.yul\":10664:10670   */\n      0x00\n        /* \"#utility.yul\":10701:10702   */\n      0x02\n        /* \"#utility.yul\":10695:10699   */\n      dup3\n        /* \"#utility.yul\":10691:10703   */\n      div\n        /* \"#utility.yul\":10681:10703   */\n      swap1\n      pop\n        /* \"#utility.yul\":10748:10749   */\n      0x01\n        /* \"#utility.yul\":10742:10746   */\n      dup3\n        /* \"#utility.yul\":10738:10750   */\n      and\n        /* \"#utility.yul\":10769:10787   */\n      dup1\n        /* \"#utility.yul\":10759:10840   */\n      tag_232\n      jumpi\n        /* \"#utility.yul\":10825:10829   */\n      0x7f\n        /* \"#utility.yul\":10817:10823   */\n      dup3\n        /* \"#utility.yul\":10813:10830   */\n      and\n        /* \"#utility.yul\":10803:10830   */\n      swap2\n      pop\n        /* \"#utility.yul\":10759:10840   */\n    tag_232:\n        /* \"#utility.yul\":10887:10889   */\n      0x20\n        /* \"#utility.yul\":10879:10885   */\n      dup3\n        /* \"#utility.yul\":10876:10890   */\n      lt\n        /* \"#utility.yul\":10856:10874   */\n      dup2\n        /* \"#utility.yul\":10853:10891   */\n      sub\n        /* \"#utility.yul\":10850:10934   */\n      tag_233\n      jumpi\n        /* \"#utility.yul\":10906:10924   */\n      tag_234\n      tag_113\n      jump\t// in\n    tag_234:\n        /* \"#utility.yul\":10850:10934   */\n    tag_233:\n        /* \"#utility.yul\":10671:10940   */\n      pop\n        /* \"#utility.yul\":10620:10940   */\n      swap2\n      swap1\n      pop\n      jump\t// out\n        /* \"#utility.yul\":10946:11087   */\n    tag_114:\n        /* \"#utility.yul\":10995:10999   */\n      0x00\n        /* \"#utility.yul\":11018:11021   */\n      dup2\n        /* \"#utility.yul\":11010:11021   */\n      swap1\n      pop\n        /* \"#utility.yul\":11041:11044   */\n      dup2\n        /* \"#utility.yul\":11038:11039   */\n      0x00\n        /* \"#utility.yul\":11031:11045   */\n      mstore\n        /* \"#utility.yul\":11075:11079   */\n      0x20\n        /* \"#utility.yul\":11072:11073   */\n      0x00\n        /* \"#utility.yul\":11062:11080   */\n      keccak256\n        /* \"#utility.yul\":11054:11080   */\n      swap1\n      pop\n        /* \"#utility.yul\":10946:11087   */\n      swap2\n      swap1\n      pop\n      jump\t// out\n        /* \"#utility.yul\":11093:11186   */\n    tag_115:\n        /* \"#utility.yul\":11130:11136   */\n      0x00\n        /* \"#utility.yul\":11177:11179   */\n      0x20\n        /* \"#utility.yul\":11172:11174   */\n      0x1f\n        /* \"#utility.yul\":11165:11170   */\n      dup4\n        /* \"#utility.yul\":11161:11175   */\n      add\n        /* \"#utility.yul\":11157:11180   */\n      div\n        /* \"#utility.yul\":11147:11180   */\n      swap1\n      pop\n        /* \"#utility.yul\":11093:11186   */\n      swap2\n      swap1\n      pop\n      jump\t// out\n        /* \"#utility.yul\":11192:11299   */\n    tag_116:\n        /* \"#utility.yul\":11236:11244   */\n      0x00\n        /* \"#utility.yul\":11286:11291   */\n      dup3\n        /* \"#utility.yul\":11280:11284   */\n      dup3\n        /* \"#utility.yul\":11276:11292   */\n      shl\n        /* \"#utility.yul\":11255:11292   */\n      swap1\n      pop\n        /* \"#utility.yul\":11192:11299   */\n      swap3\n      swap2\n      pop\n      pop\n      jump\t// out\n        /* \"#utility.yul\":11305:11698   */\n    tag_117:\n        /* \"#utility.yul\":11374:11380   */\n      0x00\n        /* \"#utility.yul\":11424:11425   */\n      0x08\n        /* \"#utility.yul\":11412:11422   */\n      dup4\n        /* \"#utility.yul\":11408:11426   */\n      mul\n        /* \"#utility.yul\":11447:11544   */\n      tag_239\n        /* \"#utility.yul\":11477:11543   */\n      0xffffffffffffffffffffffffffffffffffffffffffffffffffffffffffffffff\n        /* \"#utility.yul\":11466:11475   */\n      dup3\n        /* \"#utility.yul\":11447:11544   */\n      tag_116\n      jump\t// in\n    tag_239:\n        /* \"#utility.yul\":11565:11604   */\n      tag_240\n        /* \"#utility.yul\":11595:11603   */\n      dup7\n        /* \"#utility.yul\":11584:11593   */\n      dup4\n        /* \"#utility.yul\":11565:11604   */\n      tag_116\n      jump\t// in\n    tag_240:\n        /* \"#utility.yul\":11553:11604   */\n      swap6\n      pop\n        /* \"#utility.yul\":11637:11641   */\n      dup1\n        /* \"#utility.yul\":11633:11642   */\n      not\n        /* \"#utility.yul\":11626:11631   */\n      dup5\n        /* \"#utility.yul\":11622:11643   */\n      and\n        /* \"#utility.yul\":11613:11643   */\n      swap4\n      pop\n        /* \"#utility.yul\":11686:11690   */\n      dup1\n        /* \"#utility.yul\":11676:11684   */\n      dup7\n        /* \"#utility.yul\":11672:11691   */\n      and\n        /* \"#utility.yul\":11665:11670   */\n      dup5\n        /* \"#utility.yul\":11662:11692   */\n      or\n        /* \"#utility.yul\":11652:11692   */\n      swap3\n      pop\n        /* \"#utility.yul\":11381:11698   */\n      pop\n      pop\n        /* \"#utility.yul\":11305:11698   */\n      swap4\n      swap3\n      pop\n      pop\n      pop\n      jump\t// out\n        /* \"#utility.yul\":11704:11764   */\n    tag_118:\n        /* \"#utility.yul\":11732:11735   */\n      0x00\n        /* \"#utility.yul\":11753:11758   */\n      dup2\n        /* \"#utility.yul\":11746:11758   */\n      swap1\n      pop\n        /* \"#utility.yul\":11704:11764   */\n      swap2\n      swap1\n      pop\n      jump\t// out\n        /* \"#utility.yul\":11770:11912   */\n    tag_119:\n        /* \"#utility.yul\":11820:11829   */\n      0x00\n        /* \"#utility.yul\":11853:11906   */\n      tag_243\n        /* \"#utility.yul\":11871:11905   */\n      tag_244\n        /* \"#utility.yul\":11880:11904   */\n      tag_245\n        /* \"#utility.yul\":11898:11903   */\n      dup5\n        /* \"#utility.yul\":11880:11904   */\n      tag_88\n      jump\t// in\n    tag_245:\n        /* \"#utility.yul\":11871:11905   */\n      tag_118\n      jump\t// in\n    tag_244:\n        /* \"#utility.yul\":11853:11906   */\n      tag_88\n      jump\t// in\n    tag_243:\n        /* \"#utility.yul\":11840:11906   */\n      swap1\n      pop\n        /* \"#utility.yul\":11770:11912   */\n      swap2\n      swap1\n      pop\n      jump\t// out\n        /* \"#utility.yul\":11918:11993   */\n    tag_120:\n        /* \"#utility.yul\":11961:11964   */\n      0x00\n        /* \"#utility.yul\":11982:11987   */\n      dup2\n        /* \"#utility.yul\":11975:11987   */\n      swap1\n      pop\n        /* \"#utility.yul\":11918:11993   */\n      swap2\n      swap1\n      pop\n      jump\t// out\n        /* \"#utility.yul\":11999:12268   */\n    tag_121:\n        /* \"#utility.yul\":12109:12148   */\n      tag_248\n        /* \"#utility.yul\":12140:12147   */\n      dup4\n        /* \"#utility.yul\":12109:12148   */\n      tag_119\n      jump\t// in\n    tag_248:\n        /* \"#utility.yul\":12170:12261   */\n      tag_249\n        /* \"#utility.yul\":12219:12260   */\n      tag_250\n        /* \"#utility.yul\":12243:12259   */\n      dup3\n        /* \"#utility.yul\":12219:12260   */\n      tag_120\n      jump\t// in\n    tag_250:\n        /* \"#utility.yul\":12211:12217   */\n      dup5\n        /* \"#utility.yul\":12204:12208   */\n      dup5\n        /* \"#utility.yul\":12198:12209   */\n      sload\n        /* \"#utility.yul\":12170:12261   */\n      tag_117\n      jump\t// in\n    tag_249:\n        /* \"#utility.yul\":12164:12168   */\n      dup3\n        /* \"#utility.yul\":12157:12262   */\n      sstore\n        /* \"#utility.yul\":12075:12268   */\n      pop\n        /* \"#utility.yul\":11999:12268   */\n      pop\n      pop\n      pop\n      jump\t// out\n        /* \"#utility.yul\":12274:12347   */\n    tag_122:\n        /* \"#utility.yul\":12319:12322   */\n      0x00\n        /* \"#utility.yul\":12274:12347   */\n      swap1\n      jump\t// out\n        /* \"#utility.yul\":12353:12542   */\n    tag_123:\n        /* \"#utility.yul\":12430:12462   */\n      tag_253\n      tag_122\n      jump\t// in\n    tag_253:\n        /* \"#utility.yul\":12471:12536   */\n      tag_254\n        /* \"#utility.yul\":12529:12535   */\n      dup2\n        /* \"#utility.yul\":12521:12527   */\n      dup5\n        /* \"#utility.yul\":12515:12519   */\n      dup5\n        /* \"#utility.yul\":12471:12536   */\n      tag_121\n      jump\t// in\n    tag_254:\n        /* \"#utility.yul\":12406:12542   */\n      pop\n        /* \"#utility.yul\":12353:12542   */\n      pop\n      pop\n      jump\t// out\n        /* \"#utility.yul\":12548:12734   */\n    tag_124:\n        /* \"#utility.yul\":12608:12728   */\n    tag_256:\n        /* \"#utility.yul\":12625:12628   */\n      dup2\n        /* \"#utility.yul\":12618:12623   */\n      dup2\n        /* \"#utility.yul\":12615:12629   */\n      lt\n        /* \"#utility.yul\":12608:12728   */\n      iszero\n      tag_258\n      jumpi\n        /* \"#utility.yul\":12679:12718   */\n      tag_259\n        /* \"#utility.yul\":12716:12717   */\n      0x00\n        /* \"#utility.yul\":12709:12714   */\n      dup3\n        /* \"#utility.yul\":12679:12718   */\n      tag_123\n      jump\t// in\n    tag_259:\n        /* \"#utility.yul\":12652:12653   */\n      0x01\n        /* \"#utility.yul\":12645:12650   */\n      dup2\n        /* \"#utility.yul\":12641:12654   */\n      add\n        /* \"#utility.yul\":12632:12654   */\n      swap1\n      pop\n        /* \"#utility.yul\":12608:12728   */\n      jump(tag_256)\n    tag_258:\n        /* \"#utility.yul\":12548:12734   */\n      pop\n      pop\n      jump\t// out\n        /* \"#utility.yul\":12740:13283   */\n    tag_125:\n        /* \"#utility.yul\":12841:12843   */\n      0x1f\n        /* \"#utility.yul\":12836:12839   */\n      dup3\n        /* \"#utility.yul\":12833:12844   */\n      gt\n        /* \"#utility.yul\":12830:13276   */\n      iszero\n      tag_261\n      jumpi\n        /* \"#utility.yul\":12875:12913   */\n      tag_262\n        /* \"#utility.yul\":12907:12912   */\n      dup2\n        /* \"#utility.yul\":12875:12913   */\n      tag_114\n      jump\t// in\n    tag_262:\n        /* \"#utility.yul\":12959:12988   */\n      tag_263\n        /* \"#utility.yul\":12977:12987   */\n      dup5\n        /* \"#utility.yul\":12959:12988   */\n      tag_115\n      jump\t// in\n    tag_263:\n        /* \"#utility.yul\":12949:12957   */\n      dup2\n        /* \"#utility.yul\":12945:12989   */\n      add\n        /* \"#utility.yul\":13142:13144   */\n      0x20\n        /* \"#utility.yul\":13130:13140   */\n      dup6\n        /* \"#utility.yul\":13127:13145   */\n      lt\n        /* \"#utility.yul\":13124:13173   */\n      iszero\n      tag_264\n      jumpi\n        /* \"#utility.yul\":13163:13171   */\n      dup2\n        /* \"#utility.yul\":13148:13171   */\n      swap1\n      pop\n        /* \"#utility.yul\":13124:13173   */\n    tag_264:\n        /* \"#utility.yul\":13186:13266   */\n      tag_265\n        /* \"#utility.yul\":13242:13264   */\n      tag_266\n        /* \"#utility.yul\":13260:13263   */\n      dup6\n        /* \"#utility.yul\":13242:13264   */\n      tag_115\n      jump\t// in\n    tag_266:\n        /* \"#utility.yul\":13232:13240   */\n      dup4\n        /* \"#utility.yul\":13228:13265   */\n      add\n        /* \"#utility.yul\":13215:13226   */\n      dup3\n        /* \"#utility.yul\":13186:13266   */\n      tag_124\n      jump\t// in\n    tag_265:\n        /* \"#utility.yul\":12845:13276   */\n      pop\n      pop\n        /* \"#utility.yul\":12830:13276   */\n    tag_261:\n        /* \"#utility.yul\":12740:13283   */\n      pop\n      pop\n      pop\n      jump\t// out\n        /* \"#utility.yul\":13289:13406   */\n    tag_126:\n        /* \"#utility.yul\":13343:13351   */\n      0x00\n        /* \"#utility.yul\":13393:13398   */\n      dup3\n        /* \"#utility.yul\":13387:13391   */\n      dup3\n        /* \"#utility.yul\":13383:13399   */\n      shr\n        /* \"#utility.yul\":13362:13399   */\n      swap1\n      pop\n        /* \"#utility.yul\":13289:13406   */\n      swap3\n      swap2\n      pop\n      pop\n      jump\t// out\n        /* \"#utility.yul\":13412:13581   */\n    tag_127:\n        /* \"#utility.yul\":13456:13462   */\n      0x00\n        /* \"#utility.yul\":13489:13540   */\n      tag_269\n        /* \"#utility.yul\":13537:13538   */\n      0x00\n        /* \"#utility.yul\":13533:13539   */\n      not\n        /* \"#utility.yul\":13525:13530   */\n      dup5\n        /* \"#utility.yul\":13522:13523   */\n      0x08\n        /* \"#utility.yul\":13518:13531   */\n      mul\n        /* \"#utility.yul\":13489:13540   */\n      tag_126\n      jump\t// in\n    tag_269:\n        /* \"#utility.yul\":13485:13541   */\n      not\n        /* \"#utility.yul\":13570:13574   */\n      dup1\n        /* \"#utility.yul\":13564:13568   */\n      dup4\n        /* \"#utility.yul\":13560:13575   */\n      and\n        /* \"#utility.yul\":13550:13575   */\n      swap2\n      pop\n        /* \"#utility.yul\":13463:13581   */\n      pop\n        /* \"#utility.yul\":13412:13581   */\n      swap3\n      swap2\n      pop\n      pop\n      jump\t// out\n        /* \"#utility.yul\":13586:13881   */\n    tag_128:\n        /* \"#utility.yul\":13662:13666   */\n      0x00\n        /* \"#utility.yul\":13808:13837   */\n      tag_271\n        /* \"#utility.yul\":13833:13836   */\n      dup4\n        /* \"#utility.yul\":13827:13831   */\n      dup4\n        /* \"#utility.yul\":13808:13837   */\n      tag_127\n      jump\t// in\n    tag_271:\n        /* \"#utility.yul\":13800:13837   */\n      swap2\n      pop\n        /* \"#utility.yul\":13870:13873   */\n      dup3\n        /* \"#utility.yul\":13867:13868   */\n      0x02\n        /* \"#utility.yul\":13863:13874   */\n      mul\n        /* \"#utility.yul\":13857:13861   */\n      dup3\n        /* \"#utility.yul\":13854:13875   */\n      or\n        /* \"#utility.yul\":13846:13875   */\n      swap1\n      pop\n        /* \"#utility.yul\":13586:13881   */\n      swap3\n      swap2\n      pop\n      pop\n      jump\t// out\n        /* \"#utility.yul\":13886:15281   */\n    tag_44:\n        /* \"#utility.yul\":14003:14040   */\n      tag_273\n        /* \"#utility.yul\":14036:14039   */\n      dup3\n        /* \"#utility.yul\":14003:14040   */\n      tag_104\n      jump\t// in\n    tag_273:\n        /* \"#utility.yul\":14105:14123   */\n      0xffffffffffffffff\n        /* \"#utility.yul\":14097:14103   */\n      dup2\n        /* \"#utility.yul\":14094:14124   */\n      gt\n        /* \"#utility.yul\":14091:14147   */\n      iszero\n      tag_274\n      jumpi\n        /* \"#utility.yul\":14127:14145   */\n      tag_275\n      tag_97\n      jump\t// in\n    tag_275:\n        /* \"#utility.yul\":14091:14147   */\n    tag_274:\n        /* \"#utility.yul\":14171:14209   */\n      tag_276\n        /* \"#utility.yul\":14203:14207   */\n      dup3\n        /* \"#utility.yul\":14197:14208   */\n      sload\n        /* \"#utility.yul\":14171:14209   */\n      tag_65\n      jump\t// in\n    tag_276:\n        /* \"#utility.yul\":14256:14323   */\n      tag_277\n        /* \"#utility.yul\":14316:14322   */\n      dup3\n        /* \"#utility.yul\":14308:14314   */\n      dup3\n        /* \"#utility.yul\":14302:14306   */\n      dup6\n        /* \"#utility.yul\":14256:14323   */\n      tag_125\n      jump\t// in\n    tag_277:\n        /* \"#utility.yul\":14350:14351   */\n      0x00\n        /* \"#utility.yul\":14374:14378   */\n      0x20\n        /* \"#utility.yul\":14361:14378   */\n      swap1\n      pop\n        /* \"#utility.yul\":14406:14408   */\n      0x1f\n        /* \"#utility.yul\":14398:14404   */\n      dup4\n        /* \"#utility.yul\":14395:14409   */\n      gt\n        /* \"#utility.yul\":14423:14424   */\n      0x01\n        /* \"#utility.yul\":14418:15036   */\n      dup2\n      eq\n      tag_279\n      jumpi\n        /* \"#utility.yul\":15080:15081   */\n      0x00\n        /* \"#utility.yul\":15097:15103   */\n      dup5\n        /* \"#utility.yul\":15094:15171   */\n      iszero\n      tag_280\n      jumpi\n        /* \"#utility.yul\":15146:15155   */\n      dup3\n        /* \"#utility.yul\":15141:15144   */\n      dup8\n        /* \"#utility.yul\":15137:15156   */\n      add\n        /* \"#utility.yul\":15131:15157   */\n      mload\n        /* \"#utility.yul\":15122:15157   */\n      swap1\n      pop\n        /* \"#utility.yul\":15094:15171   */\n    tag_280:\n        /* \"#utility.yul\":15197:15264   */\n      tag_281\n        /* \"#utility.yul\":15257:15263   */\n      dup6\n        /* \"#utility.yul\":15250:15255   */\n      dup3\n        /* \"#utility.yul\":15197:15264   */\n      tag_128\n      jump\t// in\n    tag_281:\n        /* \"#utility.yul\":15191:15195   */\n      dup7\n        /* \"#utility.yul\":15184:15265   */\n      sstore\n        /* \"#utility.yul\":15053:15275   */\n      pop\n        /* \"#utility.yul\":14388:15275   */\n      jump(tag_278)\n        /* \"#utility.yul\":14418:15036   */\n    tag_279:\n        /* \"#utility.yul\":14470:14474   */\n      0x1f\n        /* \"#utility.yul\":14466:14475   */\n      not\n        /* \"#utility.yul\":14458:14464   */\n      dup5\n        /* \"#utility.yul\":14454:14476   */\n      and\n        /* \"#utility.yul\":14504:14541   */\n      tag_282\n        /* \"#utility.yul\":14536:14540   */\n      dup7\n        /* \"#utility.yul\":14504:14541   */\n      tag_114\n      jump\t// in\n    tag_282:\n        /* \"#utility.yul\":14563:14564   */\n      0x00\n        /* \"#utility.yul\":14577:14785   */\n    tag_283:\n        /* \"#utility.yul\":14591:14598   */\n      dup3\n        /* \"#utility.yul\":14588:14589   */\n      dup2\n        /* \"#utility.yul\":14585:14599   */\n      lt\n        /* \"#utility.yul\":14577:14785   */\n      iszero\n      tag_285\n      jumpi\n        /* \"#utility.yul\":14670:14679   */\n      dup5\n        /* \"#utility.yul\":14665:14668   */\n      dup10\n        /* \"#utility.yul\":14661:14680   */\n      add\n        /* \"#utility.yul\":14655:14681   */\n      mload\n        /* \"#utility.yul\":14647:14653   */\n      dup3\n        /* \"#utility.yul\":14640:14682   */\n      sstore\n        /* \"#utility.yul\":14721:14722   */\n      0x01\n        /* \"#utility.yul\":14713:14719   */\n      dup3\n        /* \"#utility.yul\":14709:14723   */\n      add\n        /* \"#utility.yul\":14699:14723   */\n      swap2\n      pop\n        /* \"#utility.yul\":14768:14770   */\n      0x20\n        /* \"#utility.yul\":14757:14766   */\n      dup6\n        /* \"#utility.yul\":14753:14771   */\n      add\n        /* \"#utility.yul\":14740:14771   */\n      swap5\n      pop\n        /* \"#utility.yul\":14614:14618   */\n      0x20\n        /* \"#utility.yul\":14611:14612   */\n      dup2\n        /* \"#utility.yul\":14607:14619   */\n      add\n        /* \"#utility.yul\":14602:14619   */\n      swap1\n      pop\n        /* \"#utility.yul\":14577:14785   */\n      jump(tag_283)\n    tag_285:\n        /* \"#utility.yul\":14813:14819   */\n      dup7\n        /* \"#utility.yul\":14804:14811   */\n      dup4\n        /* \"#utility.yul\":14801:14820   */\n      lt\n        /* \"#utility.yul\":14798:14977   */\n      iszero\n      tag_286\n      jumpi\n        /* \"#utility.yul\":14871:14880   */\n      dup5\n        /* \"#utility.yul\":14866:14869   */\n      dup10\n        /* \"#utility.yul\":14862:14881   */\n      add\n        /* \"#utility.yul\":14856:14882   */\n      mload\n        /* \"#utility.yul\":14914:14962   */\n      tag_287\n        /* \"#utility.yul\":14956:14960   */\n      0x1f\n        /* \"#utility.yul\":14948:14954   */\n      dup10\n        /* \"#utility.yul\":14944:14961   */\n      and\n        /* \"#utility.yul\":14933:14942   */\n      dup3\n        /* \"#utility.yul\":14914:14962   */\n      tag_127\n      jump\t// in\n    tag_287:\n        /* \"#utility.yul\":14906:14912   */\n      dup4\n        /* \"#utility.yul\":14899:14963   */\n      sstore\n        /* \"#utility.yul\":14821:14977   */\n      pop\n        /* \"#utility.yul\":14798:14977   */\n    tag_286:\n        /* \"#utility.yul\":15023:15024   */\n      0x01\n        /* \"#utility.yul\":15019:15020   */\n      0x02\n        /* \"#utility.yul\":15011:15017   */\n      dup9\n        /* \"#utility.yul\":15007:15021   */\n      mul\n        /* \"#utility.yul\":15003:15025   */\n      add\n        /* \"#utility.yul\":14997:15001   */\n      dup9\n        /* \"#utility.yul\":14990:15026   */\n      sstore\n        /* \"#utility.yul\":14425:15036   */\n      pop\n      pop\n      pop\n        /* \"#utility.yul\":14388:15275   */\n    tag_278:\n      pop\n        /* \"#utility.yul\":13978:15281   */\n      pop\n      pop\n      pop\n        /* \"#utility.yul\":13886:15281   */\n      pop\n      pop\n      jump\t// out\n\n    auxdata: 0xa2646970667358221220cf2ccce6ee40e9550fd8dd163963c2d84c532bc474b61e59eef66b8cbf8f899264736f6c63430008120033\n}\n",
				"bytecode": {
					"linkReferences": {},
					"object": "60806040523480156200001157600080fd5b5060405162001270380380620012708339818101604052810190620000379190620002f3565b80600190805190602001906200004f92919062000057565b505062000344565b828054828255906000526020600020908101928215620000d3579160200282015b82811115620000d25782518260006101000a81548173ffffffffffffffffffffffffffffffffffffffff021916908373ffffffffffffffffffffffffffffffffffffffff1602179055509160200191906001019062000078565b5b509050620000e29190620000e6565b5090565b5b8082111562000101576000816000905550600101620000e7565b5090565b6000604051905090565b600080fd5b600080fd5b600080fd5b6000601f19601f8301169050919050565b7f4e487b7100000000000000000000000000000000000000000000000000000000600052604160045260246000fd5b62000169826200011e565b810181811067ffffffffffffffff821117156200018b576200018a6200012f565b5b80604052505050565b6000620001a062000105565b9050620001ae82826200015e565b919050565b600067ffffffffffffffff821115620001d157620001d06200012f565b5b602082029050602081019050919050565b600080fd5b600073ffffffffffffffffffffffffffffffffffffffff82169050919050565b60006200021482620001e7565b9050919050565b620002268162000207565b81146200023257600080fd5b50565b60008151905062000246816200021b565b92915050565b6000620002636200025d84620001b3565b62000194565b90508083825260208201905060208402830185811115620002895762000288620001e2565b5b835b81811015620002b65780620002a1888262000235565b8452602084019350506020810190506200028b565b5050509392505050565b600082601f830112620002d857620002d762000119565b5b8151620002ea8482602086016200024c565b91505092915050565b6000602082840312156200030c576200030b6200010f565b5b600082015167ffffffffffffffff8111156200032d576200032c62000114565b5b6200033b84828501620002c0565b91505092915050565b610f1c80620003546000396000f3fe608060405234801561001057600080fd5b506004361061004c5760003560e01c806314bfd6d014610051578063205fdde6146100815780637830e6dd1461009d578063d09ef241146100b9575b600080fd5b61006b60048036038101906100669190610690565b6100e9565b60405161007891906106fe565b60405180910390f35b61009b6004803603810190610096919061085f565b610128565b005b6100b760048036038101906100b291906108bb565b61022f565b005b6100d360048036038101906100ce9190610690565b6103aa565b6040516100e09190610a9d565b60405180910390f35b600181815481106100f957600080fd5b906000526020600020016000915054906101000a900473ffffffffffffffffffffffffffffffffffffffff1681565b6000805b6001805490508110156101c6576001818154811061014d5761014c610abf565b5b9060005260206000200160009054906101000a900473ffffffffffffffffffffffffffffffffffffffff1673ffffffffffffffffffffffffffffffffffffffff163373ffffffffffffffffffffffffffffffffffffffff16036101b357600191506101c6565b80806101be90610b1d565b91505061012c565b5080610207576040517f08c379a00000000000000000000000000000000000000000000000000000000081526004016101fe90610be8565b60405180910390fd5b8160008085815260200190815260200160002060030190816102299190610e14565b50505050565b6000805b6001805490508110156102cd576001818154811061025457610253610abf565b5b9060005260206000200160009054906101000a900473ffffffffffffffffffffffffffffffffffffffff1673ffffffffffffffffffffffffffffffffffffffff163373ffffffffffffffffffffffffffffffffffffffff16036102ba57600191506102cd565b80806102c590610b1d565b915050610233565b508061030e576040517f08c379a000000000000000000000000000000000000000000000000000000000815260040161030590610be8565b60405180910390fd5b6000604051806080016040528087815260200186815260200185815260200184815250905080600080898152602001908152602001600020600082015181600001908161035b9190610e14565b5060208201518160010190816103719190610e14565b5060408201518160020190816103879190610e14565b50606082015181600301908161039d9190610e14565b5090505050505050505050565b6103b261061e565b6000808381526020019081526020016000206040518060800160405290816000820180546103df90610c37565b80601f016020809104026020016040519081016040528092919081815260200182805461040b90610c37565b80156104585780601f1061042d57610100808354040283529160200191610458565b820191906000526020600020905b81548152906001019060200180831161043b57829003601f168201915b5050505050815260200160018201805461047190610c37565b80601f016020809104026020016040519081016040528092919081815260200182805461049d90610c37565b80156104ea5780601f106104bf576101008083540402835291602001916104ea565b820191906000526020600020905b8154815290600101906020018083116104cd57829003601f168201915b5050505050815260200160028201805461050390610c37565b80601f016020809104026020016040519081016040528092919081815260200182805461052f90610c37565b801561057c5780601f106105515761010080835404028352916020019161057c565b820191906000526020600020905b81548152906001019060200180831161055f57829003601f168201915b5050505050815260200160038201805461059590610c37565b80601f01602080910402602001604051908101604052809291908181526020018280546105c190610c37565b801561060e5780601f106105e35761010080835404028352916020019161060e565b820191906000526020600020905b8154815290600101906020018083116105f157829003601f168201915b5050505050815250509050919050565b6040518060800160405280606081526020016060815260200160608152602001606081525090565b6000604051905090565b600080fd5b600080fd5b6000819050919050565b61066d8161065a565b811461067857600080fd5b50565b60008135905061068a81610664565b92915050565b6000602082840312156106a6576106a5610650565b5b60006106b48482850161067b565b91505092915050565b600073ffffffffffffffffffffffffffffffffffffffff82169050919050565b60006106e8826106bd565b9050919050565b6106f8816106dd565b82525050565b600060208201905061071360008301846106ef565b92915050565b600080fd5b600080fd5b6000601f19601f8301169050919050565b7f4e487b7100000000000000000000000000000000000000000000000000000000600052604160045260246000fd5b61076c82610723565b810181811067ffffffffffffffff8211171561078b5761078a610734565b5b80604052505050565b600061079e610646565b90506107aa8282610763565b919050565b600067ffffffffffffffff8211156107ca576107c9610734565b5b6107d382610723565b9050602081019050919050565b82818337600083830152505050565b60006108026107fd846107af565b610794565b90508281526020810184848401111561081e5761081d61071e565b5b6108298482856107e0565b509392505050565b600082601f83011261084657610845610719565b5b81356108568482602086016107ef565b91505092915050565b6000806040838503121561087657610875610650565b5b60006108848582860161067b565b925050602083013567ffffffffffffffff8111156108a5576108a4610655565b5b6108b185828601610831565b9150509250929050565b600080600080600060a086880312156108d7576108d6610650565b5b60006108e58882890161067b565b955050602086013567ffffffffffffffff81111561090657610905610655565b5b61091288828901610831565b945050604086013567ffffffffffffffff81111561093357610932610655565b5b61093f88828901610831565b935050606086013567ffffffffffffffff8111156109605761095f610655565b5b61096c88828901610831565b925050608086013567ffffffffffffffff81111561098d5761098c610655565b5b61099988828901610831565b9150509295509295909350565b600081519050919050565b600082825260208201905092915050565b60005b838110156109e05780820151818401526020810190506109c5565b60008484015250505050565b60006109f7826109a6565b610a0181856109b1565b9350610a118185602086016109c2565b610a1a81610723565b840191505092915050565b60006080830160008301518482036000860152610a4282826109ec565b91505060208301518482036020860152610a5c82826109ec565b91505060408301518482036040860152610a7682826109ec565b91505060608301518482036060860152610a9082826109ec565b9150508091505092915050565b60006020820190508181036000830152610ab78184610a25565b905092915050565b7f4e487b7100000000000000000000000000000000000000000000000000000000600052603260045260246000fd5b7f4e487b7100000000000000000000000000000000000000000000000000000000600052601160045260246000fd5b6000610b288261065a565b91507fffffffffffffffffffffffffffffffffffffffffffffffffffffffffffffffff8203610b5a57610b59610aee565b5b600182019050919050565b600082825260208201905092915050565b7f4f6e6c7920616e2061646d696e2063616e2063616c6c20746869732066756e6360008201527f74696f6e2e000000000000000000000000000000000000000000000000000000602082015250565b6000610bd2602583610b65565b9150610bdd82610b76565b604082019050919050565b60006020820190508181036000830152610c0181610bc5565b9050919050565b7f4e487b7100000000000000000000000000000000000000000000000000000000600052602260045260246000fd5b60006002820490506001821680610c4f57607f821691505b602082108103610c6257610c61610c08565b5b50919050565b60008190508160005260206000209050919050565b60006020601f8301049050919050565b600082821b905092915050565b600060088302610cca7fffffffffffffffffffffffffffffffffffffffffffffffffffffffffffffffff82610c8d565b610cd48683610c8d565b95508019841693508086168417925050509392505050565b6000819050919050565b6000610d11610d0c610d078461065a565b610cec565b61065a565b9050919050565b6000819050919050565b610d2b83610cf6565b610d3f610d3782610d18565b848454610c9a565b825550505050565b600090565b610d54610d47565b610d5f818484610d22565b505050565b5b81811015610d8357610d78600082610d4c565b600181019050610d65565b5050565b601f821115610dc857610d9981610c68565b610da284610c7d565b81016020851015610db1578190505b610dc5610dbd85610c7d565b830182610d64565b50505b505050565b600082821c905092915050565b6000610deb60001984600802610dcd565b1980831691505092915050565b6000610e048383610dda565b9150826002028217905092915050565b610e1d826109a6565b67ffffffffffffffff811115610e3657610e35610734565b5b610e408254610c37565b610e4b828285610d87565b600060209050601f831160018114610e7e5760008415610e6c578287015190505b610e768582610df8565b865550610ede565b601f198416610e8c86610c68565b60005b82811015610eb457848901518255600182019150602085019450602081019050610e8f565b86831015610ed15784890151610ecd601f891682610dda565b8355505b6001600288020188555050505b50505050505056fea2646970667358221220cf2ccce6ee40e9550fd8dd163963c2d84c532bc474b61e59eef66b8cbf8f899264736f6c63430008120033",
					"opcodes": "PUSH1 0x80 PUSH1 0x40 MSTORE CALLVALUE DUP1 ISZERO PUSH3 0x11 JUMPI PUSH1 0x0 DUP1 REVERT JUMPDEST POP PUSH1 0x40 MLOAD PUSH3 0x1270 CODESIZE SUB DUP1 PUSH3 0x1270 DUP4 CODECOPY DUP2 DUP2 ADD PUSH1 0x40 MSTORE DUP2 ADD SWAP1 PUSH3 0x37 SWAP2 SWAP1 PUSH3 0x2F3 JUMP JUMPDEST DUP1 PUSH1 0x1 SWAP1 DUP1 MLOAD SWAP1 PUSH1 0x20 ADD SWAP1 PUSH3 0x4F SWAP3 SWAP2 SWAP1 PUSH3 0x57 JUMP JUMPDEST POP POP PUSH3 0x344 JUMP JUMPDEST DUP3 DUP1 SLOAD DUP3 DUP3 SSTORE SWAP1 PUSH1 0x0 MSTORE PUSH1 0x20 PUSH1 0x0 KECCAK256 SWAP1 DUP2 ADD SWAP3 DUP3 ISZERO PUSH3 0xD3 JUMPI SWAP2 PUSH1 0x20 MUL DUP3 ADD JUMPDEST DUP3 DUP2 GT ISZERO PUSH3 0xD2 JUMPI DUP3 MLOAD DUP3 PUSH1 0x0 PUSH2 0x100 EXP DUP2 SLOAD DUP2 PUSH20 0xFFFFFFFFFFFFFFFFFFFFFFFFFFFFFFFFFFFFFFFF MUL NOT AND SWAP1 DUP4 PUSH20 0xFFFFFFFFFFFFFFFFFFFFFFFFFFFFFFFFFFFFFFFF AND MUL OR SWAP1 SSTORE POP SWAP2 PUSH1 0x20 ADD SWAP2 SWAP1 PUSH1 0x1 ADD SWAP1 PUSH3 0x78 JUMP JUMPDEST JUMPDEST POP SWAP1 POP PUSH3 0xE2 SWAP2 SWAP1 PUSH3 0xE6 JUMP JUMPDEST POP SWAP1 JUMP JUMPDEST JUMPDEST DUP1 DUP3 GT ISZERO PUSH3 0x101 JUMPI PUSH1 0x0 DUP2 PUSH1 0x0 SWAP1 SSTORE POP PUSH1 0x1 ADD PUSH3 0xE7 JUMP JUMPDEST POP SWAP1 JUMP JUMPDEST PUSH1 0x0 PUSH1 0x40 MLOAD SWAP1 POP SWAP1 JUMP JUMPDEST PUSH1 0x0 DUP1 REVERT JUMPDEST PUSH1 0x0 DUP1 REVERT JUMPDEST PUSH1 0x0 DUP1 REVERT JUMPDEST PUSH1 0x0 PUSH1 0x1F NOT PUSH1 0x1F DUP4 ADD AND SWAP1 POP SWAP2 SWAP1 POP JUMP JUMPDEST PUSH32 0x4E487B7100000000000000000000000000000000000000000000000000000000 PUSH1 0x0 MSTORE PUSH1 0x41 PUSH1 0x4 MSTORE PUSH1 0x24 PUSH1 0x0 REVERT JUMPDEST PUSH3 0x169 DUP3 PUSH3 0x11E JUMP JUMPDEST DUP2 ADD DUP2 DUP2 LT PUSH8 0xFFFFFFFFFFFFFFFF DUP3 GT OR ISZERO PUSH3 0x18B JUMPI PUSH3 0x18A PUSH3 0x12F JUMP JUMPDEST JUMPDEST DUP1 PUSH1 0x40 MSTORE POP POP POP JUMP JUMPDEST PUSH1 0x0 PUSH3 0x1A0 PUSH3 0x105 JUMP JUMPDEST SWAP1 POP PUSH3 0x1AE DUP3 DUP3 PUSH3 0x15E JUMP JUMPDEST SWAP2 SWAP1 POP JUMP JUMPDEST PUSH1 0x0 PUSH8 0xFFFFFFFFFFFFFFFF DUP3 GT ISZERO PUSH3 0x1D1 JUMPI PUSH3 0x1D0 PUSH3 0x12F JUMP JUMPDEST JUMPDEST PUSH1 0x20 DUP3 MUL SWAP1 POP PUSH1 0x20 DUP2 ADD SWAP1 POP SWAP2 SWAP1 POP JUMP JUMPDEST PUSH1 0x0 DUP1 REVERT JUMPDEST PUSH1 0x0 PUSH20 0xFFFFFFFFFFFFFFFFFFFFFFFFFFFFFFFFFFFFFFFF DUP3 AND SWAP1 POP SWAP2 SWAP1 POP JUMP JUMPDEST PUSH1 0x0 PUSH3 0x214 DUP3 PUSH3 0x1E7 JUMP JUMPDEST SWAP1 POP SWAP2 SWAP1 POP JUMP JUMPDEST PUSH3 0x226 DUP2 PUSH3 0x207 JUMP JUMPDEST DUP2 EQ PUSH3 0x232 JUMPI PUSH1 0x0 DUP1 REVERT JUMPDEST POP JUMP JUMPDEST PUSH1 0x0 DUP2 MLOAD SWAP1 POP PUSH3 0x246 DUP2 PUSH3 0x21B JUMP JUMPDEST SWAP3 SWAP2 POP POP JUMP JUMPDEST PUSH1 0x0 PUSH3 0x263 PUSH3 0x25D DUP5 PUSH3 0x1B3 JUMP JUMPDEST PUSH3 0x194 JUMP JUMPDEST SWAP1 POP DUP1 DUP4 DUP3 MSTORE PUSH1 0x20 DUP3 ADD SWAP1 POP PUSH1 0x20 DUP5 MUL DUP4 ADD DUP6 DUP2 GT ISZERO PUSH3 0x289 JUMPI PUSH3 0x288 PUSH3 0x1E2 JUMP JUMPDEST JUMPDEST DUP4 JUMPDEST DUP2 DUP2 LT ISZERO PUSH3 0x2B6 JUMPI DUP1 PUSH3 0x2A1 DUP9 DUP3 PUSH3 0x235 JUMP JUMPDEST DUP5 MSTORE PUSH1 0x20 DUP5 ADD SWAP4 POP POP PUSH1 0x20 DUP2 ADD SWAP1 POP PUSH3 0x28B JUMP JUMPDEST POP POP POP SWAP4 SWAP3 POP POP POP JUMP JUMPDEST PUSH1 0x0 DUP3 PUSH1 0x1F DUP4 ADD SLT PUSH3 0x2D8 JUMPI PUSH3 0x2D7 PUSH3 0x119 JUMP JUMPDEST JUMPDEST DUP2 MLOAD PUSH3 0x2EA DUP5 DUP3 PUSH1 0x20 DUP7 ADD PUSH3 0x24C JUMP JUMPDEST SWAP2 POP POP SWAP3 SWAP2 POP POP JUMP JUMPDEST PUSH1 0x0 PUSH1 0x20 DUP3 DUP5 SUB SLT ISZERO PUSH3 0x30C JUMPI PUSH3 0x30B PUSH3 0x10F JUMP JUMPDEST JUMPDEST PUSH1 0x0 DUP3 ADD MLOAD PUSH8 0xFFFFFFFFFFFFFFFF DUP2 GT ISZERO PUSH3 0x32D JUMPI PUSH3 0x32C PUSH3 0x114 JUMP JUMPDEST JUMPDEST PUSH3 0x33B DUP5 DUP3 DUP6 ADD PUSH3 0x2C0 JUMP JUMPDEST SWAP2 POP POP SWAP3 SWAP2 POP POP JUMP JUMPDEST PUSH2 0xF1C DUP1 PUSH3 0x354 PUSH1 0x0 CODECOPY PUSH1 0x0 RETURN INVALID PUSH1 0x80 PUSH1 0x40 MSTORE CALLVALUE DUP1 ISZERO PUSH2 0x10 JUMPI PUSH1 0x0 DUP1 REVERT JUMPDEST POP PUSH1 0x4 CALLDATASIZE LT PUSH2 0x4C JUMPI PUSH1 0x0 CALLDATALOAD PUSH1 0xE0 SHR DUP1 PUSH4 0x14BFD6D0 EQ PUSH2 0x51 JUMPI DUP1 PUSH4 0x205FDDE6 EQ PUSH2 0x81 JUMPI DUP1 PUSH4 0x7830E6DD EQ PUSH2 0x9D JUMPI DUP1 PUSH4 0xD09EF241 EQ PUSH2 0xB9 JUMPI JUMPDEST PUSH1 0x0 DUP1 REVERT JUMPDEST PUSH2 0x6B PUSH1 0x4 DUP1 CALLDATASIZE SUB DUP2 ADD SWAP1 PUSH2 0x66 SWAP2 SWAP1 PUSH2 0x690 JUMP JUMPDEST PUSH2 0xE9 JUMP JUMPDEST PUSH1 0x40 MLOAD PUSH2 0x78 SWAP2 SWAP1 PUSH2 0x6FE JUMP JUMPDEST PUSH1 0x40 MLOAD DUP1 SWAP2 SUB SWAP1 RETURN JUMPDEST PUSH2 0x9B PUSH1 0x4 DUP1 CALLDATASIZE SUB DUP2 ADD SWAP1 PUSH2 0x96 SWAP2 SWAP1 PUSH2 0x85F JUMP JUMPDEST PUSH2 0x128 JUMP JUMPDEST STOP JUMPDEST PUSH2 0xB7 PUSH1 0x4 DUP1 CALLDATASIZE SUB DUP2 ADD SWAP1 PUSH2 0xB2 SWAP2 SWAP1 PUSH2 0x8BB JUMP JUMPDEST PUSH2 0x22F JUMP JUMPDEST STOP JUMPDEST PUSH2 0xD3 PUSH1 0x4 DUP1 CALLDATASIZE SUB DUP2 ADD SWAP1 PUSH2 0xCE SWAP2 SWAP1 PUSH2 0x690 JUMP JUMPDEST PUSH2 0x3AA JUMP JUMPDEST PUSH1 0x40 MLOAD PUSH2 0xE0 SWAP2 SWAP1 PUSH2 0xA9D JUMP JUMPDEST PUSH1 0x40 MLOAD DUP1 SWAP2 SUB SWAP1 RETURN JUMPDEST PUSH1 0x1 DUP2 DUP2 SLOAD DUP2 LT PUSH2 0xF9 JUMPI PUSH1 0x0 DUP1 REVERT JUMPDEST SWAP1 PUSH1 0x0 MSTORE PUSH1 0x20 PUSH1 0x0 KECCAK256 ADD PUSH1 0x0 SWAP2 POP SLOAD SWAP1 PUSH2 0x100 EXP SWAP1 DIV PUSH20 0xFFFFFFFFFFFFFFFFFFFFFFFFFFFFFFFFFFFFFFFF AND DUP2 JUMP JUMPDEST PUSH1 0x0 DUP1 JUMPDEST PUSH1 0x1 DUP1 SLOAD SWAP1 POP DUP2 LT ISZERO PUSH2 0x1C6 JUMPI PUSH1 0x1 DUP2 DUP2 SLOAD DUP2 LT PUSH2 0x14D JUMPI PUSH2 0x14C PUSH2 0xABF JUMP JUMPDEST JUMPDEST SWAP1 PUSH1 0x0 MSTORE PUSH1 0x20 PUSH1 0x0 KECCAK256 ADD PUSH1 0x0 SWAP1 SLOAD SWAP1 PUSH2 0x100 EXP SWAP1 DIV PUSH20 0xFFFFFFFFFFFFFFFFFFFFFFFFFFFFFFFFFFFFFFFF AND PUSH20 0xFFFFFFFFFFFFFFFFFFFFFFFFFFFFFFFFFFFFFFFF AND CALLER PUSH20 0xFFFFFFFFFFFFFFFFFFFFFFFFFFFFFFFFFFFFFFFF AND SUB PUSH2 0x1B3 JUMPI PUSH1 0x1 SWAP2 POP PUSH2 0x1C6 JUMP JUMPDEST DUP1 DUP1 PUSH2 0x1BE SWAP1 PUSH2 0xB1D JUMP JUMPDEST SWAP2 POP POP PUSH2 0x12C JUMP JUMPDEST POP DUP1 PUSH2 0x207 JUMPI PUSH1 0x40 MLOAD PUSH32 0x8C379A000000000000000000000000000000000000000000000000000000000 DUP2 MSTORE PUSH1 0x4 ADD PUSH2 0x1FE SWAP1 PUSH2 0xBE8 JUMP JUMPDEST PUSH1 0x40 MLOAD DUP1 SWAP2 SUB SWAP1 REVERT JUMPDEST DUP2 PUSH1 0x0 DUP1 DUP6 DUP2 MSTORE PUSH1 0x20 ADD SWAP1 DUP2 MSTORE PUSH1 0x20 ADD PUSH1 0x0 KECCAK256 PUSH1 0x3 ADD SWAP1 DUP2 PUSH2 0x229 SWAP2 SWAP1 PUSH2 0xE14 JUMP JUMPDEST POP POP POP POP JUMP JUMPDEST PUSH1 0x0 DUP1 JUMPDEST PUSH1 0x1 DUP1 SLOAD SWAP1 POP DUP2 LT ISZERO PUSH2 0x2CD JUMPI PUSH1 0x1 DUP2 DUP2 SLOAD DUP2 LT PUSH2 0x254 JUMPI PUSH2 0x253 PUSH2 0xABF JUMP JUMPDEST JUMPDEST SWAP1 PUSH1 0x0 MSTORE PUSH1 0x20 PUSH1 0x0 KECCAK256 ADD PUSH1 0x0 SWAP1 SLOAD SWAP1 PUSH2 0x100 EXP SWAP1 DIV PUSH20 0xFFFFFFFFFFFFFFFFFFFFFFFFFFFFFFFFFFFFFFFF AND PUSH20 0xFFFFFFFFFFFFFFFFFFFFFFFFFFFFFFFFFFFFFFFF AND CALLER PUSH20 0xFFFFFFFFFFFFFFFFFFFFFFFFFFFFFFFFFFFFFFFF AND SUB PUSH2 0x2BA JUMPI PUSH1 0x1 SWAP2 POP PUSH2 0x2CD JUMP JUMPDEST DUP1 DUP1 PUSH2 0x2C5 SWAP1 PUSH2 0xB1D JUMP JUMPDEST SWAP2 POP POP PUSH2 0x233 JUMP JUMPDEST POP DUP1 PUSH2 0x30E JUMPI PUSH1 0x40 MLOAD PUSH32 0x8C379A000000000000000000000000000000000000000000000000000000000 DUP2 MSTORE PUSH1 0x4 ADD PUSH2 0x305 SWAP1 PUSH2 0xBE8 JUMP JUMPDEST PUSH1 0x40 MLOAD DUP1 SWAP2 SUB SWAP1 REVERT JUMPDEST PUSH1 0x0 PUSH1 0x40 MLOAD DUP1 PUSH1 0x80 ADD PUSH1 0x40 MSTORE DUP1 DUP8 DUP2 MSTORE PUSH1 0x20 ADD DUP7 DUP2 MSTORE PUSH1 0x20 ADD DUP6 DUP2 MSTORE PUSH1 0x20 ADD DUP5 DUP2 MSTORE POP SWAP1 POP DUP1 PUSH1 0x0 DUP1 DUP10 DUP2 MSTORE PUSH1 0x20 ADD SWAP1 DUP2 MSTORE PUSH1 0x20 ADD PUSH1 0x0 KECCAK256 PUSH1 0x0 DUP3 ADD MLOAD DUP2 PUSH1 0x0 ADD SWAP1 DUP2 PUSH2 0x35B SWAP2 SWAP1 PUSH2 0xE14 JUMP JUMPDEST POP PUSH1 0x20 DUP3 ADD MLOAD DUP2 PUSH1 0x1 ADD SWAP1 DUP2 PUSH2 0x371 SWAP2 SWAP1 PUSH2 0xE14 JUMP JUMPDEST POP PUSH1 0x40 DUP3 ADD MLOAD DUP2 PUSH1 0x2 ADD SWAP1 DUP2 PUSH2 0x387 SWAP2 SWAP1 PUSH2 0xE14 JUMP JUMPDEST POP PUSH1 0x60 DUP3 ADD MLOAD DUP2 PUSH1 0x3 ADD SWAP1 DUP2 PUSH2 0x39D SWAP2 SWAP1 PUSH2 0xE14 JUMP JUMPDEST POP SWAP1 POP POP POP POP POP POP POP POP POP JUMP JUMPDEST PUSH2 0x3B2 PUSH2 0x61E JUMP JUMPDEST PUSH1 0x0 DUP1 DUP4 DUP2 MSTORE PUSH1 0x20 ADD SWAP1 DUP2 MSTORE PUSH1 0x20 ADD PUSH1 0x0 KECCAK256 PUSH1 0x40 MLOAD DUP1 PUSH1 0x80 ADD PUSH1 0x40 MSTORE SWAP1 DUP2 PUSH1 0x0 DUP3 ADD DUP1 SLOAD PUSH2 0x3DF SWAP1 PUSH2 0xC37 JUMP JUMPDEST DUP1 PUSH1 0x1F ADD PUSH1 0x20 DUP1 SWAP2 DIV MUL PUSH1 0x20 ADD PUSH1 0x40 MLOAD SWAP1 DUP2 ADD PUSH1 0x40 MSTORE DUP1 SWAP3 SWAP2 SWAP1 DUP2 DUP2 MSTORE PUSH1 0x20 ADD DUP3 DUP1 SLOAD PUSH2 0x40B SWAP1 PUSH2 0xC37 JUMP JUMPDEST DUP1 ISZERO PUSH2 0x458 JUMPI DUP1 PUSH1 0x1F LT PUSH2 0x42D JUMPI PUSH2 0x100 DUP1 DUP4 SLOAD DIV MUL DUP4 MSTORE SWAP2 PUSH1 0x20 ADD SWAP2 PUSH2 0x458 JUMP JUMPDEST DUP3 ADD SWAP2 SWAP1 PUSH1 0x0 MSTORE PUSH1 0x20 PUSH1 0x0 KECCAK256 SWAP1 JUMPDEST DUP2 SLOAD DUP2 MSTORE SWAP1 PUSH1 0x1 ADD SWAP1 PUSH1 0x20 ADD DUP1 DUP4 GT PUSH2 0x43B JUMPI DUP3 SWAP1 SUB PUSH1 0x1F AND DUP3 ADD SWAP2 JUMPDEST POP POP POP POP POP DUP2 MSTORE PUSH1 0x20 ADD PUSH1 0x1 DUP3 ADD DUP1 SLOAD PUSH2 0x471 SWAP1 PUSH2 0xC37 JUMP JUMPDEST DUP1 PUSH1 0x1F ADD PUSH1 0x20 DUP1 SWAP2 DIV MUL PUSH1 0x20 ADD PUSH1 0x40 MLOAD SWAP1 DUP2 ADD PUSH1 0x40 MSTORE DUP1 SWAP3 SWAP2 SWAP1 DUP2 DUP2 MSTORE PUSH1 0x20 ADD DUP3 DUP1 SLOAD PUSH2 0x49D SWAP1 PUSH2 0xC37 JUMP JUMPDEST DUP1 ISZERO PUSH2 0x4EA JUMPI DUP1 PUSH1 0x1F LT PUSH2 0x4BF JUMPI PUSH2 0x100 DUP1 DUP4 SLOAD DIV MUL DUP4 MSTORE SWAP2 PUSH1 0x20 ADD SWAP2 PUSH2 0x4EA JUMP JUMPDEST DUP3 ADD SWAP2 SWAP1 PUSH1 0x0 MSTORE PUSH1 0x20 PUSH1 0x0 KECCAK256 SWAP1 JUMPDEST DUP2 SLOAD DUP2 MSTORE SWAP1 PUSH1 0x1 ADD SWAP1 PUSH1 0x20 ADD DUP1 DUP4 GT PUSH2 0x4CD JUMPI DUP3 SWAP1 SUB PUSH1 0x1F AND DUP3 ADD SWAP2 JUMPDEST POP POP POP POP POP DUP2 MSTORE PUSH1 0x20 ADD PUSH1 0x2 DUP3 ADD DUP1 SLOAD PUSH2 0x503 SWAP1 PUSH2 0xC37 JUMP JUMPDEST DUP1 PUSH1 0x1F ADD PUSH1 0x20 DUP1 SWAP2 DIV MUL PUSH1 0x20 ADD PUSH1 0x40 MLOAD SWAP1 DUP2 ADD PUSH1 0x40 MSTORE DUP1 SWAP3 SWAP2 SWAP1 DUP2 DUP2 MSTORE PUSH1 0x20 ADD DUP3 DUP1 SLOAD PUSH2 0x52F SWAP1 PUSH2 0xC37 JUMP JUMPDEST DUP1 ISZERO PUSH2 0x57C JUMPI DUP1 PUSH1 0x1F LT PUSH2 0x551 JUMPI PUSH2 0x100 DUP1 DUP4 SLOAD DIV MUL DUP4 MSTORE SWAP2 PUSH1 0x20 ADD SWAP2 PUSH2 0x57C JUMP JUMPDEST DUP3 ADD SWAP2 SWAP1 PUSH1 0x0 MSTORE PUSH1 0x20 PUSH1 0x0 KECCAK256 SWAP1 JUMPDEST DUP2 SLOAD DUP2 MSTORE SWAP1 PUSH1 0x1 ADD SWAP1 PUSH1 0x20 ADD DUP1 DUP4 GT PUSH2 0x55F JUMPI DUP3 SWAP1 SUB PUSH1 0x1F AND DUP3 ADD SWAP2 JUMPDEST POP POP POP POP POP DUP2 MSTORE PUSH1 0x20 ADD PUSH1 0x3 DUP3 ADD DUP1 SLOAD PUSH2 0x595 SWAP1 PUSH2 0xC37 JUMP JUMPDEST DUP1 PUSH1 0x1F ADD PUSH1 0x20 DUP1 SWAP2 DIV MUL PUSH1 0x20 ADD PUSH1 0x40 MLOAD SWAP1 DUP2 ADD PUSH1 0x40 MSTORE DUP1 SWAP3 SWAP2 SWAP1 DUP2 DUP2 MSTORE PUSH1 0x20 ADD DUP3 DUP1 SLOAD PUSH2 0x5C1 SWAP1 PUSH2 0xC37 JUMP JUMPDEST DUP1 ISZERO PUSH2 0x60E JUMPI DUP1 PUSH1 0x1F LT PUSH2 0x5E3 JUMPI PUSH2 0x100 DUP1 DUP4 SLOAD DIV MUL DUP4 MSTORE SWAP2 PUSH1 0x20 ADD SWAP2 PUSH2 0x60E JUMP JUMPDEST DUP3 ADD SWAP2 SWAP1 PUSH1 0x0 MSTORE PUSH1 0x20 PUSH1 0x0 KECCAK256 SWAP1 JUMPDEST DUP2 SLOAD DUP2 MSTORE SWAP1 PUSH1 0x1 ADD SWAP1 PUSH1 0x20 ADD DUP1 DUP4 GT PUSH2 0x5F1 JUMPI DUP3 SWAP1 SUB PUSH1 0x1F AND DUP3 ADD SWAP2 JUMPDEST POP POP POP POP POP DUP2 MSTORE POP POP SWAP1 POP SWAP2 SWAP1 POP JUMP JUMPDEST PUSH1 0x40 MLOAD DUP1 PUSH1 0x80 ADD PUSH1 0x40 MSTORE DUP1 PUSH1 0x60 DUP2 MSTORE PUSH1 0x20 ADD PUSH1 0x60 DUP2 MSTORE PUSH1 0x20 ADD PUSH1 0x60 DUP2 MSTORE PUSH1 0x20 ADD PUSH1 0x60 DUP2 MSTORE POP SWAP1 JUMP JUMPDEST PUSH1 0x0 PUSH1 0x40 MLOAD SWAP1 POP SWAP1 JUMP JUMPDEST PUSH1 0x0 DUP1 REVERT JUMPDEST PUSH1 0x0 DUP1 REVERT JUMPDEST PUSH1 0x0 DUP2 SWAP1 POP SWAP2 SWAP1 POP JUMP JUMPDEST PUSH2 0x66D DUP2 PUSH2 0x65A JUMP JUMPDEST DUP2 EQ PUSH2 0x678 JUMPI PUSH1 0x0 DUP1 REVERT JUMPDEST POP JUMP JUMPDEST PUSH1 0x0 DUP2 CALLDATALOAD SWAP1 POP PUSH2 0x68A DUP2 PUSH2 0x664 JUMP JUMPDEST SWAP3 SWAP2 POP POP JUMP JUMPDEST PUSH1 0x0 PUSH1 0x20 DUP3 DUP5 SUB SLT ISZERO PUSH2 0x6A6 JUMPI PUSH2 0x6A5 PUSH2 0x650 JUMP JUMPDEST JUMPDEST PUSH1 0x0 PUSH2 0x6B4 DUP5 DUP3 DUP6 ADD PUSH2 0x67B JUMP JUMPDEST SWAP2 POP POP SWAP3 SWAP2 POP POP JUMP JUMPDEST PUSH1 0x0 PUSH20 0xFFFFFFFFFFFFFFFFFFFFFFFFFFFFFFFFFFFFFFFF DUP3 AND SWAP1 POP SWAP2 SWAP1 POP JUMP JUMPDEST PUSH1 0x0 PUSH2 0x6E8 DUP3 PUSH2 0x6BD JUMP JUMPDEST SWAP1 POP SWAP2 SWAP1 POP JUMP JUMPDEST PUSH2 0x6F8 DUP2 PUSH2 0x6DD JUMP JUMPDEST DUP3 MSTORE POP POP JUMP JUMPDEST PUSH1 0x0 PUSH1 0x20 DUP3 ADD SWAP1 POP PUSH2 0x713 PUSH1 0x0 DUP4 ADD DUP5 PUSH2 0x6EF JUMP JUMPDEST SWAP3 SWAP2 POP POP JUMP JUMPDEST PUSH1 0x0 DUP1 REVERT JUMPDEST PUSH1 0x0 DUP1 REVERT JUMPDEST PUSH1 0x0 PUSH1 0x1F NOT PUSH1 0x1F DUP4 ADD AND SWAP1 POP SWAP2 SWAP1 POP JUMP JUMPDEST PUSH32 0x4E487B7100000000000000000000000000000000000000000000000000000000 PUSH1 0x0 MSTORE PUSH1 0x41 PUSH1 0x4 MSTORE PUSH1 0x24 PUSH1 0x0 REVERT JUMPDEST PUSH2 0x76C DUP3 PUSH2 0x723 JUMP JUMPDEST DUP2 ADD DUP2 DUP2 LT PUSH8 0xFFFFFFFFFFFFFFFF DUP3 GT OR ISZERO PUSH2 0x78B JUMPI PUSH2 0x78A PUSH2 0x734 JUMP JUMPDEST JUMPDEST DUP1 PUSH1 0x40 MSTORE POP POP POP JUMP JUMPDEST PUSH1 0x0 PUSH2 0x79E PUSH2 0x646 JUMP JUMPDEST SWAP1 POP PUSH2 0x7AA DUP3 DUP3 PUSH2 0x763 JUMP JUMPDEST SWAP2 SWAP1 POP JUMP JUMPDEST PUSH1 0x0 PUSH8 0xFFFFFFFFFFFFFFFF DUP3 GT ISZERO PUSH2 0x7CA JUMPI PUSH2 0x7C9 PUSH2 0x734 JUMP JUMPDEST JUMPDEST PUSH2 0x7D3 DUP3 PUSH2 0x723 JUMP JUMPDEST SWAP1 POP PUSH1 0x20 DUP2 ADD SWAP1 POP SWAP2 SWAP1 POP JUMP JUMPDEST DUP3 DUP2 DUP4 CALLDATACOPY PUSH1 0x0 DUP4 DUP4 ADD MSTORE POP POP POP JUMP JUMPDEST PUSH1 0x0 PUSH2 0x802 PUSH2 0x7FD DUP5 PUSH2 0x7AF JUMP JUMPDEST PUSH2 0x794 JUMP JUMPDEST SWAP1 POP DUP3 DUP2 MSTORE PUSH1 0x20 DUP2 ADD DUP5 DUP5 DUP5 ADD GT ISZERO PUSH2 0x81E JUMPI PUSH2 0x81D PUSH2 0x71E JUMP JUMPDEST JUMPDEST PUSH2 0x829 DUP5 DUP3 DUP6 PUSH2 0x7E0 JUMP JUMPDEST POP SWAP4 SWAP3 POP POP POP JUMP JUMPDEST PUSH1 0x0 DUP3 PUSH1 0x1F DUP4 ADD SLT PUSH2 0x846 JUMPI PUSH2 0x845 PUSH2 0x719 JUMP JUMPDEST JUMPDEST DUP2 CALLDATALOAD PUSH2 0x856 DUP5 DUP3 PUSH1 0x20 DUP7 ADD PUSH2 0x7EF JUMP JUMPDEST SWAP2 POP POP SWAP3 SWAP2 POP POP JUMP JUMPDEST PUSH1 0x0 DUP1 PUSH1 0x40 DUP4 DUP6 SUB SLT ISZERO PUSH2 0x876 JUMPI PUSH2 0x875 PUSH2 0x650 JUMP JUMPDEST JUMPDEST PUSH1 0x0 PUSH2 0x884 DUP6 DUP3 DUP7 ADD PUSH2 0x67B JUMP JUMPDEST SWAP3 POP POP PUSH1 0x20 DUP4 ADD CALLDATALOAD PUSH8 0xFFFFFFFFFFFFFFFF DUP2 GT ISZERO PUSH2 0x8A5 JUMPI PUSH2 0x8A4 PUSH2 0x655 JUMP JUMPDEST JUMPDEST PUSH2 0x8B1 DUP6 DUP3 DUP7 ADD PUSH2 0x831 JUMP JUMPDEST SWAP2 POP POP SWAP3 POP SWAP3 SWAP1 POP JUMP JUMPDEST PUSH1 0x0 DUP1 PUSH1 0x0 DUP1 PUSH1 0x0 PUSH1 0xA0 DUP7 DUP9 SUB SLT ISZERO PUSH2 0x8D7 JUMPI PUSH2 0x8D6 PUSH2 0x650 JUMP JUMPDEST JUMPDEST PUSH1 0x0 PUSH2 0x8E5 DUP9 DUP3 DUP10 ADD PUSH2 0x67B JUMP JUMPDEST SWAP6 POP POP PUSH1 0x20 DUP7 ADD CALLDATALOAD PUSH8 0xFFFFFFFFFFFFFFFF DUP2 GT ISZERO PUSH2 0x906 JUMPI PUSH2 0x905 PUSH2 0x655 JUMP JUMPDEST JUMPDEST PUSH2 0x912 DUP9 DUP3 DUP10 ADD PUSH2 0x831 JUMP JUMPDEST SWAP5 POP POP PUSH1 0x40 DUP7 ADD CALLDATALOAD PUSH8 0xFFFFFFFFFFFFFFFF DUP2 GT ISZERO PUSH2 0x933 JUMPI PUSH2 0x932 PUSH2 0x655 JUMP JUMPDEST JUMPDEST PUSH2 0x93F DUP9 DUP3 DUP10 ADD PUSH2 0x831 JUMP JUMPDEST SWAP4 POP POP PUSH1 0x60 DUP7 ADD CALLDATALOAD PUSH8 0xFFFFFFFFFFFFFFFF DUP2 GT ISZERO PUSH2 0x960 JUMPI PUSH2 0x95F PUSH2 0x655 JUMP JUMPDEST JUMPDEST PUSH2 0x96C DUP9 DUP3 DUP10 ADD PUSH2 0x831 JUMP JUMPDEST SWAP3 POP POP PUSH1 0x80 DUP7 ADD CALLDATALOAD PUSH8 0xFFFFFFFFFFFFFFFF DUP2 GT ISZERO PUSH2 0x98D JUMPI PUSH2 0x98C PUSH2 0x655 JUMP JUMPDEST JUMPDEST PUSH2 0x999 DUP9 DUP3 DUP10 ADD PUSH2 0x831 JUMP JUMPDEST SWAP2 POP POP SWAP3 SWAP6 POP SWAP3 SWAP6 SWAP1 SWAP4 POP JUMP JUMPDEST PUSH1 0x0 DUP2 MLOAD SWAP1 POP SWAP2 SWAP1 POP JUMP JUMPDEST PUSH1 0x0 DUP3 DUP3 MSTORE PUSH1 0x20 DUP3 ADD SWAP1 POP SWAP3 SWAP2 POP POP JUMP JUMPDEST PUSH1 0x0 JUMPDEST DUP4 DUP2 LT ISZERO PUSH2 0x9E0 JUMPI DUP1 DUP3 ADD MLOAD DUP2 DUP5 ADD MSTORE PUSH1 0x20 DUP2 ADD SWAP1 POP PUSH2 0x9C5 JUMP JUMPDEST PUSH1 0x0 DUP5 DUP5 ADD MSTORE POP POP POP POP JUMP JUMPDEST PUSH1 0x0 PUSH2 0x9F7 DUP3 PUSH2 0x9A6 JUMP JUMPDEST PUSH2 0xA01 DUP2 DUP6 PUSH2 0x9B1 JUMP JUMPDEST SWAP4 POP PUSH2 0xA11 DUP2 DUP6 PUSH1 0x20 DUP7 ADD PUSH2 0x9C2 JUMP JUMPDEST PUSH2 0xA1A DUP2 PUSH2 0x723 JUMP JUMPDEST DUP5 ADD SWAP2 POP POP SWAP3 SWAP2 POP POP JUMP JUMPDEST PUSH1 0x0 PUSH1 0x80 DUP4 ADD PUSH1 0x0 DUP4 ADD MLOAD DUP5 DUP3 SUB PUSH1 0x0 DUP7 ADD MSTORE PUSH2 0xA42 DUP3 DUP3 PUSH2 0x9EC JUMP JUMPDEST SWAP2 POP POP PUSH1 0x20 DUP4 ADD MLOAD DUP5 DUP3 SUB PUSH1 0x20 DUP7 ADD MSTORE PUSH2 0xA5C DUP3 DUP3 PUSH2 0x9EC JUMP JUMPDEST SWAP2 POP POP PUSH1 0x40 DUP4 ADD MLOAD DUP5 DUP3 SUB PUSH1 0x40 DUP7 ADD MSTORE PUSH2 0xA76 DUP3 DUP3 PUSH2 0x9EC JUMP JUMPDEST SWAP2 POP POP PUSH1 0x60 DUP4 ADD MLOAD DUP5 DUP3 SUB PUSH1 0x60 DUP7 ADD MSTORE PUSH2 0xA90 DUP3 DUP3 PUSH2 0x9EC JUMP JUMPDEST SWAP2 POP POP DUP1 SWAP2 POP POP SWAP3 SWAP2 POP POP JUMP JUMPDEST PUSH1 0x0 PUSH1 0x20 DUP3 ADD SWAP1 POP DUP2 DUP2 SUB PUSH1 0x0 DUP4 ADD MSTORE PUSH2 0xAB7 DUP2 DUP5 PUSH2 0xA25 JUMP JUMPDEST SWAP1 POP SWAP3 SWAP2 POP POP JUMP JUMPDEST PUSH32 0x4E487B7100000000000000000000000000000000000000000000000000000000 PUSH1 0x0 MSTORE PUSH1 0x32 PUSH1 0x4 MSTORE PUSH1 0x24 PUSH1 0x0 REVERT JUMPDEST PUSH32 0x4E487B7100000000000000000000000000000000000000000000000000000000 PUSH1 0x0 MSTORE PUSH1 0x11 PUSH1 0x4 MSTORE PUSH1 0x24 PUSH1 0x0 REVERT JUMPDEST PUSH1 0x0 PUSH2 0xB28 DUP3 PUSH2 0x65A JUMP JUMPDEST SWAP2 POP PUSH32 0xFFFFFFFFFFFFFFFFFFFFFFFFFFFFFFFFFFFFFFFFFFFFFFFFFFFFFFFFFFFFFFFF DUP3 SUB PUSH2 0xB5A JUMPI PUSH2 0xB59 PUSH2 0xAEE JUMP JUMPDEST JUMPDEST PUSH1 0x1 DUP3 ADD SWAP1 POP SWAP2 SWAP1 POP JUMP JUMPDEST PUSH1 0x0 DUP3 DUP3 MSTORE PUSH1 0x20 DUP3 ADD SWAP1 POP SWAP3 SWAP2 POP POP JUMP JUMPDEST PUSH32 0x4F6E6C7920616E2061646D696E2063616E2063616C6C20746869732066756E63 PUSH1 0x0 DUP3 ADD MSTORE PUSH32 0x74696F6E2E000000000000000000000000000000000000000000000000000000 PUSH1 0x20 DUP3 ADD MSTORE POP JUMP JUMPDEST PUSH1 0x0 PUSH2 0xBD2 PUSH1 0x25 DUP4 PUSH2 0xB65 JUMP JUMPDEST SWAP2 POP PUSH2 0xBDD DUP3 PUSH2 0xB76 JUMP JUMPDEST PUSH1 0x40 DUP3 ADD SWAP1 POP SWAP2 SWAP1 POP JUMP JUMPDEST PUSH1 0x0 PUSH1 0x20 DUP3 ADD SWAP1 POP DUP2 DUP2 SUB PUSH1 0x0 DUP4 ADD MSTORE PUSH2 0xC01 DUP2 PUSH2 0xBC5 JUMP JUMPDEST SWAP1 POP SWAP2 SWAP1 POP JUMP JUMPDEST PUSH32 0x4E487B7100000000000000000000000000000000000000000000000000000000 PUSH1 0x0 MSTORE PUSH1 0x22 PUSH1 0x4 MSTORE PUSH1 0x24 PUSH1 0x0 REVERT JUMPDEST PUSH1 0x0 PUSH1 0x2 DUP3 DIV SWAP1 POP PUSH1 0x1 DUP3 AND DUP1 PUSH2 0xC4F JUMPI PUSH1 0x7F DUP3 AND SWAP2 POP JUMPDEST PUSH1 0x20 DUP3 LT DUP2 SUB PUSH2 0xC62 JUMPI PUSH2 0xC61 PUSH2 0xC08 JUMP JUMPDEST JUMPDEST POP SWAP2 SWAP1 POP JUMP JUMPDEST PUSH1 0x0 DUP2 SWAP1 POP DUP2 PUSH1 0x0 MSTORE PUSH1 0x20 PUSH1 0x0 KECCAK256 SWAP1 POP SWAP2 SWAP1 POP JUMP JUMPDEST PUSH1 0x0 PUSH1 0x20 PUSH1 0x1F DUP4 ADD DIV SWAP1 POP SWAP2 SWAP1 POP JUMP JUMPDEST PUSH1 0x0 DUP3 DUP3 SHL SWAP1 POP SWAP3 SWAP2 POP POP JUMP JUMPDEST PUSH1 0x0 PUSH1 0x8 DUP4 MUL PUSH2 0xCCA PUSH32 0xFFFFFFFFFFFFFFFFFFFFFFFFFFFFFFFFFFFFFFFFFFFFFFFFFFFFFFFFFFFFFFFF DUP3 PUSH2 0xC8D JUMP JUMPDEST PUSH2 0xCD4 DUP7 DUP4 PUSH2 0xC8D JUMP JUMPDEST SWAP6 POP DUP1 NOT DUP5 AND SWAP4 POP DUP1 DUP7 AND DUP5 OR SWAP3 POP POP POP SWAP4 SWAP3 POP POP POP JUMP JUMPDEST PUSH1 0x0 DUP2 SWAP1 POP SWAP2 SWAP1 POP JUMP JUMPDEST PUSH1 0x0 PUSH2 0xD11 PUSH2 0xD0C PUSH2 0xD07 DUP5 PUSH2 0x65A JUMP JUMPDEST PUSH2 0xCEC JUMP JUMPDEST PUSH2 0x65A JUMP JUMPDEST SWAP1 POP SWAP2 SWAP1 POP JUMP JUMPDEST PUSH1 0x0 DUP2 SWAP1 POP SWAP2 SWAP1 POP JUMP JUMPDEST PUSH2 0xD2B DUP4 PUSH2 0xCF6 JUMP JUMPDEST PUSH2 0xD3F PUSH2 0xD37 DUP3 PUSH2 0xD18 JUMP JUMPDEST DUP5 DUP5 SLOAD PUSH2 0xC9A JUMP JUMPDEST DUP3 SSTORE POP POP POP POP JUMP JUMPDEST PUSH1 0x0 SWAP1 JUMP JUMPDEST PUSH2 0xD54 PUSH2 0xD47 JUMP JUMPDEST PUSH2 0xD5F DUP2 DUP5 DUP5 PUSH2 0xD22 JUMP JUMPDEST POP POP POP JUMP JUMPDEST JUMPDEST DUP2 DUP2 LT ISZERO PUSH2 0xD83 JUMPI PUSH2 0xD78 PUSH1 0x0 DUP3 PUSH2 0xD4C JUMP JUMPDEST PUSH1 0x1 DUP2 ADD SWAP1 POP PUSH2 0xD65 JUMP JUMPDEST POP POP JUMP JUMPDEST PUSH1 0x1F DUP3 GT ISZERO PUSH2 0xDC8 JUMPI PUSH2 0xD99 DUP2 PUSH2 0xC68 JUMP JUMPDEST PUSH2 0xDA2 DUP5 PUSH2 0xC7D JUMP JUMPDEST DUP2 ADD PUSH1 0x20 DUP6 LT ISZERO PUSH2 0xDB1 JUMPI DUP2 SWAP1 POP JUMPDEST PUSH2 0xDC5 PUSH2 0xDBD DUP6 PUSH2 0xC7D JUMP JUMPDEST DUP4 ADD DUP3 PUSH2 0xD64 JUMP JUMPDEST POP POP JUMPDEST POP POP POP JUMP JUMPDEST PUSH1 0x0 DUP3 DUP3 SHR SWAP1 POP SWAP3 SWAP2 POP POP JUMP JUMPDEST PUSH1 0x0 PUSH2 0xDEB PUSH1 0x0 NOT DUP5 PUSH1 0x8 MUL PUSH2 0xDCD JUMP JUMPDEST NOT DUP1 DUP4 AND SWAP2 POP POP SWAP3 SWAP2 POP POP JUMP JUMPDEST PUSH1 0x0 PUSH2 0xE04 DUP4 DUP4 PUSH2 0xDDA JUMP JUMPDEST SWAP2 POP DUP3 PUSH1 0x2 MUL DUP3 OR SWAP1 POP SWAP3 SWAP2 POP POP JUMP JUMPDEST PUSH2 0xE1D DUP3 PUSH2 0x9A6 JUMP JUMPDEST PUSH8 0xFFFFFFFFFFFFFFFF DUP2 GT ISZERO PUSH2 0xE36 JUMPI PUSH2 0xE35 PUSH2 0x734 JUMP JUMPDEST JUMPDEST PUSH2 0xE40 DUP3 SLOAD PUSH2 0xC37 JUMP JUMPDEST PUSH2 0xE4B DUP3 DUP3 DUP6 PUSH2 0xD87 JUMP JUMPDEST PUSH1 0x0 PUSH1 0x20 SWAP1 POP PUSH1 0x1F DUP4 GT PUSH1 0x1 DUP2 EQ PUSH2 0xE7E JUMPI PUSH1 0x0 DUP5 ISZERO PUSH2 0xE6C JUMPI DUP3 DUP8 ADD MLOAD SWAP1 POP JUMPDEST PUSH2 0xE76 DUP6 DUP3 PUSH2 0xDF8 JUMP JUMPDEST DUP7 SSTORE POP PUSH2 0xEDE JUMP JUMPDEST PUSH1 0x1F NOT DUP5 AND PUSH2 0xE8C DUP7 PUSH2 0xC68 JUMP JUMPDEST PUSH1 0x0 JUMPDEST DUP3 DUP2 LT ISZERO PUSH2 0xEB4 JUMPI DUP5 DUP10 ADD MLOAD DUP3 SSTORE PUSH1 0x1 DUP3 ADD SWAP2 POP PUSH1 0x20 DUP6 ADD SWAP5 POP PUSH1 0x20 DUP2 ADD SWAP1 POP PUSH2 0xE8F JUMP JUMPDEST DUP7 DUP4 LT ISZERO PUSH2 0xED1 JUMPI DUP5 DUP10 ADD MLOAD PUSH2 0xECD PUSH1 0x1F DUP10 AND DUP3 PUSH2 0xDDA JUMP JUMPDEST DUP4 SSTORE POP JUMPDEST PUSH1 0x1 PUSH1 0x2 DUP9 MUL ADD DUP9 SSTORE POP POP POP JUMPDEST POP POP POP POP POP POP JUMP INVALID LOG2 PUSH5 0x6970667358 0x22 SLT KECCAK256 0xCF 0x2C 0xCC 0xE6 0xEE BLOCKHASH 0xE9 SSTORE 0xF 0xD8 0xDD AND CODECOPY PUSH4 0xC2D84C53 0x2B 0xC4 PUSH21 0xB61E59EEF66B8CBF8F899264736F6C634300081200 CALLER "
				},
				"gasEstimates": {
					"creation": {
						"codeDepositCost": "773600",
						"executionCost": "infinite",
						"totalCost": "infinite"
					},
					"external": {
						"admins(uint256)": "4934",
						"getOrder(uint256)": "infinite",
						"pushOrder(uint256,string,string,string,string)": "infinite",
						"updateOrderStatus(uint256,string)": "infinite"
					}
				},
				"methodIdentifiers": {
					"admins(uint256)": "14bfd6d0",
					"getOrder(uint256)": "d09ef241",
					"pushOrder(uint256,string,string,string,string)": "7830e6dd",
					"updateOrderStatus(uint256,string)": "205fdde6"
				}
			},
			"storageLayout": {
				"storage": [
					{
						"astId": 15,
						"contract": "contracts/1_Storage.sol:OrderManagement",
						"label": "orders",
						"offset": 0,
						"slot": "0",
						"type": "t_mapping(t_uint256,t_struct(Order)10_storage)"
					},
					{
						"astId": 18,
						"contract": "contracts/1_Storage.sol:OrderManagement",
						"label": "admins",
						"offset": 0,
						"slot": "1",
						"type": "t_array(t_address)dyn_storage"
					}
				],
				"types": {
					"t_address": {
						"encoding": "inplace",
						"label": "address",
						"numberOfBytes": "20"
					},
					"t_array(t_address)dyn_storage": {
						"base": "t_address",
						"encoding": "dynamic_array",
						"label": "address[]",
						"numberOfBytes": "32"
					},
					"t_mapping(t_uint256,t_struct(Order)10_storage)": {
						"encoding": "mapping",
						"key": "t_uint256",
						"label": "mapping(uint256 => struct OrderManagement.Order)",
						"numberOfBytes": "32",
						"value": "t_struct(Order)10_storage"
					},
					"t_string_storage": {
						"encoding": "bytes",
						"label": "string",
						"numberOfBytes": "32"
					},
					"t_struct(Order)10_storage": {
						"encoding": "inplace",
						"label": "struct OrderManagement.Order",
						"members": [
							{
								"astId": 3,
								"contract": "contracts/1_Storage.sol:OrderManagement",
								"label": "productId",
								"offset": 0,
								"slot": "0",
								"type": "t_string_storage"
							},
							{
								"astId": 5,
								"contract": "contracts/1_Storage.sol:OrderManagement",
								"label": "userId",
								"offset": 0,
								"slot": "1",
								"type": "t_string_storage"
							},
							{
								"astId": 7,
								"contract": "contracts/1_Storage.sol:OrderManagement",
								"label": "sellerId",
								"offset": 0,
								"slot": "2",
								"type": "t_string_storage"
							},
							{
								"astId": 9,
								"contract": "contracts/1_Storage.sol:OrderManagement",
								"label": "status",
								"offset": 0,
								"slot": "3",
								"type": "t_string_storage"
							}
						],
						"numberOfBytes": "128"
					},
					"t_uint256": {
						"encoding": "inplace",
						"label": "uint256",
						"numberOfBytes": "32"
					}
				}
			},
			"userdoc": {
				"kind": "user",
				"methods": {},
				"version": 1
			}
		}
	}
}