{
	"contracts/OrderManagement.sol": {
		"OrderManagement": {
			"abi": [
				{
					"inputs": [],
					"stateMutability": "nonpayable",
					"type": "constructor"
				},
				{
					"inputs": [
						{
							"internalType": "address",
							"name": "_admin",
							"type": "address"
						}
					],
					"name": "addAdmin",
					"outputs": [],
					"stateMutability": "nonpayable",
					"type": "function"
				},
				{
					"inputs": [
						{
							"internalType": "address",
							"name": "",
							"type": "address"
						}
					],
					"name": "admins",
					"outputs": [
						{
							"internalType": "bool",
							"name": "",
							"type": "bool"
						}
					],
					"stateMutability": "view",
					"type": "function"
				},
				{
					"inputs": [
						{
							"internalType": "string",
							"name": "_orderId",
							"type": "string"
						}
					],
					"name": "getOrder",
					"outputs": [
						{
							"internalType": "string",
							"name": "",
							"type": "string"
						},
						{
							"internalType": "string",
							"name": "",
							"type": "string"
						},
						{
							"internalType": "string",
							"name": "",
							"type": "string"
						},
						{
							"internalType": "string",
							"name": "",
							"type": "string"
						}
					],
					"stateMutability": "view",
					"type": "function"
				},
				{
					"inputs": [
						{
							"internalType": "string",
							"name": "_orderId",
							"type": "string"
						},
						{
							"internalType": "string",
							"name": "_productId",
							"type": "string"
						},
						{
							"internalType": "string",
							"name": "_userId",
							"type": "string"
						},
						{
							"internalType": "string",
							"name": "_status",
							"type": "string"
						},
						{
							"internalType": "string",
							"name": "_sellerId",
							"type": "string"
						}
					],
					"name": "pushOrder",
					"outputs": [],
					"stateMutability": "nonpayable",
					"type": "function"
				},
				{
					"inputs": [
						{
							"internalType": "address",
							"name": "_admin",
							"type": "address"
						}
					],
					"name": "removeAdmin",
					"outputs": [],
					"stateMutability": "nonpayable",
					"type": "function"
				},
				{
					"inputs": [
						{
							"internalType": "string",
							"name": "_orderId",
							"type": "string"
						},
						{
							"internalType": "string",
							"name": "_newStatus",
							"type": "string"
						}
					],
					"name": "updateOrderStatus",
					"outputs": [],
					"stateMutability": "nonpayable",
					"type": "function"
				}
			],
			"devdoc": {
				"kind": "dev",
				"methods": {},
				"version": 1
			},
			"evm": {
				"assembly": "    /* \"contracts/OrderManagement.sol\":57:1516  contract OrderManagement {... */\n  mstore(0x40, 0x80)\n    /* \"contracts/OrderManagement.sol\":416:472  constructor() {... */\n  callvalue\n  dup1\n  iszero\n  tag_1\n  jumpi\n  0x00\n  dup1\n  revert\ntag_1:\n  pop\n    /* \"contracts/OrderManagement.sol\":461:465  true */\n  0x01\n    /* \"contracts/OrderManagement.sol\":440:446  admins */\n  dup1\n    /* \"contracts/OrderManagement.sol\":440:458  admins[msg.sender] */\n  0x00\n    /* \"contracts/OrderManagement.sol\":447:457  msg.sender */\n  caller\n    /* \"contracts/OrderManagement.sol\":440:458  admins[msg.sender] */\n  0xffffffffffffffffffffffffffffffffffffffff\n  and\n  0xffffffffffffffffffffffffffffffffffffffff\n  and\n  dup2\n  mstore\n  0x20\n  add\n  swap1\n  dup2\n  mstore\n  0x20\n  add\n  0x00\n  keccak256\n  0x00\n    /* \"contracts/OrderManagement.sol\":440:465  admins[msg.sender] = true */\n  0x0100\n  exp\n  dup2\n  sload\n  dup2\n  0xff\n  mul\n  not\n  and\n  swap1\n  dup4\n  iszero\n  iszero\n  mul\n  or\n  swap1\n  sstore\n  pop\n    /* \"contracts/OrderManagement.sol\":57:1516  contract OrderManagement {... */\n  dataSize(sub_0)\n  dup1\n  dataOffset(sub_0)\n  0x00\n  codecopy\n  0x00\n  return\nstop\n\nsub_0: assembly {\n        /* \"contracts/OrderManagement.sol\":57:1516  contract OrderManagement {... */\n      mstore(0x40, 0x80)\n      callvalue\n      dup1\n      iszero\n      tag_1\n      jumpi\n      0x00\n      dup1\n      revert\n    tag_1:\n      pop\n      jumpi(tag_2, lt(calldatasize, 0x04))\n      shr(0xe0, calldataload(0x00))\n      dup1\n      0x1785f53c\n      eq\n      tag_3\n      jumpi\n      dup1\n      0x429b62e5\n      eq\n      tag_4\n      jumpi\n      dup1\n      0x70480275\n      eq\n      tag_5\n      jumpi\n      dup1\n      0x712ca0f8\n      eq\n      tag_6\n      jumpi\n      dup1\n      0x865ff1d6\n      eq\n      tag_7\n      jumpi\n      dup1\n      0xedfa77d0\n      eq\n      tag_8\n      jumpi\n    tag_2:\n      0x00\n      dup1\n      revert\n        /* \"contracts/OrderManagement.sol\":573:666  function removeAdmin(address _admin) public onlyAdmin {... */\n    tag_3:\n      tag_9\n      0x04\n      dup1\n      calldatasize\n      sub\n      dup2\n      add\n      swap1\n      tag_10\n      swap2\n      swap1\n      tag_11\n      jump\t// in\n    tag_10:\n      tag_12\n      jump\t// in\n    tag_9:\n      stop\n        /* \"contracts/OrderManagement.sol\":248:286  mapping(address => bool) public admins */\n    tag_4:\n      tag_13\n      0x04\n      dup1\n      calldatasize\n      sub\n      dup2\n      add\n      swap1\n      tag_14\n      swap2\n      swap1\n      tag_11\n      jump\t// in\n    tag_14:\n      tag_15\n      jump\t// in\n    tag_13:\n      mload(0x40)\n      tag_16\n      swap2\n      swap1\n      tag_17\n      jump\t// in\n    tag_16:\n      mload(0x40)\n      dup1\n      swap2\n      sub\n      swap1\n      return\n        /* \"contracts/OrderManagement.sol\":478:567  function addAdmin(address _admin) public onlyAdmin {... */\n    tag_5:\n      tag_18\n      0x04\n      dup1\n      calldatasize\n      sub\n      dup2\n      add\n      swap1\n      tag_19\n      swap2\n      swap1\n      tag_11\n      jump\t// in\n    tag_19:\n      tag_20\n      jump\t// in\n    tag_18:\n      stop\n        /* \"contracts/OrderManagement.sol\":963:1304  function getOrder(string memory _orderId)... */\n    tag_6:\n      tag_21\n      0x04\n      dup1\n      calldatasize\n      sub\n      dup2\n      add\n      swap1\n      tag_22\n      swap2\n      swap1\n      tag_23\n      jump\t// in\n    tag_22:\n      tag_24\n      jump\t// in\n    tag_21:\n      mload(0x40)\n      tag_25\n      swap5\n      swap4\n      swap3\n      swap2\n      swap1\n      tag_26\n      jump\t// in\n    tag_25:\n      mload(0x40)\n      dup1\n      swap2\n      sub\n      swap1\n      return\n        /* \"contracts/OrderManagement.sol\":672:957  function pushOrder(... */\n    tag_7:\n      tag_27\n      0x04\n      dup1\n      calldatasize\n      sub\n      dup2\n      add\n      swap1\n      tag_28\n      swap2\n      swap1\n      tag_29\n      jump\t// in\n    tag_28:\n      tag_30\n      jump\t// in\n    tag_27:\n      stop\n        /* \"contracts/OrderManagement.sol\":1310:1514  function updateOrderStatus(string memory _orderId, string memory _newStatus)... */\n    tag_8:\n      tag_31\n      0x04\n      dup1\n      calldatasize\n      sub\n      dup2\n      add\n      swap1\n      tag_32\n      swap2\n      swap1\n      tag_33\n      jump\t// in\n    tag_32:\n      tag_34\n      jump\t// in\n    tag_31:\n      stop\n        /* \"contracts/OrderManagement.sol\":573:666  function removeAdmin(address _admin) public onlyAdmin {... */\n    tag_12:\n        /* \"contracts/OrderManagement.sol\":332:338  admins */\n      0x01\n        /* \"contracts/OrderManagement.sol\":332:350  admins[msg.sender] */\n      0x00\n        /* \"contracts/OrderManagement.sol\":339:349  msg.sender */\n      caller\n        /* \"contracts/OrderManagement.sol\":332:350  admins[msg.sender] */\n      0xffffffffffffffffffffffffffffffffffffffff\n      and\n      0xffffffffffffffffffffffffffffffffffffffff\n      and\n      dup2\n      mstore\n      0x20\n      add\n      swap1\n      dup2\n      mstore\n      0x20\n      add\n      0x00\n      keccak256\n      0x00\n      swap1\n      sload\n      swap1\n      0x0100\n      exp\n      swap1\n      div\n      0xff\n      and\n        /* \"contracts/OrderManagement.sol\":324:392  require(admins[msg.sender], \"Only an admin can call this function.\") */\n      tag_36\n      jumpi\n      mload(0x40)\n      0x08c379a000000000000000000000000000000000000000000000000000000000\n      dup2\n      mstore\n      0x04\n      add\n      tag_37\n      swap1\n      tag_38\n      jump\t// in\n    tag_37:\n      mload(0x40)\n      dup1\n      swap2\n      sub\n      swap1\n      revert\n    tag_36:\n        /* \"contracts/OrderManagement.sol\":654:659  false */\n      0x00\n        /* \"contracts/OrderManagement.sol\":637:643  admins */\n      0x01\n        /* \"contracts/OrderManagement.sol\":637:651  admins[_admin] */\n      0x00\n        /* \"contracts/OrderManagement.sol\":644:650  _admin */\n      dup4\n        /* \"contracts/OrderManagement.sol\":637:651  admins[_admin] */\n      0xffffffffffffffffffffffffffffffffffffffff\n      and\n      0xffffffffffffffffffffffffffffffffffffffff\n      and\n      dup2\n      mstore\n      0x20\n      add\n      swap1\n      dup2\n      mstore\n      0x20\n      add\n      0x00\n      keccak256\n      0x00\n        /* \"contracts/OrderManagement.sol\":637:659  admins[_admin] = false */\n      0x0100\n      exp\n      dup2\n      sload\n      dup2\n      0xff\n      mul\n      not\n      and\n      swap1\n      dup4\n      iszero\n      iszero\n      mul\n      or\n      swap1\n      sstore\n      pop\n        /* \"contracts/OrderManagement.sol\":573:666  function removeAdmin(address _admin) public onlyAdmin {... */\n      pop\n      jump\t// out\n        /* \"contracts/OrderManagement.sol\":248:286  mapping(address => bool) public admins */\n    tag_15:\n      mstore(0x20, 0x01)\n      dup1\n      0x00\n      mstore\n      keccak256(0x00, 0x40)\n      0x00\n      swap2\n      pop\n      sload\n      swap1\n      0x0100\n      exp\n      swap1\n      div\n      0xff\n      and\n      dup2\n      jump\t// out\n        /* \"contracts/OrderManagement.sol\":478:567  function addAdmin(address _admin) public onlyAdmin {... */\n    tag_20:\n        /* \"contracts/OrderManagement.sol\":332:338  admins */\n      0x01\n        /* \"contracts/OrderManagement.sol\":332:350  admins[msg.sender] */\n      0x00\n        /* \"contracts/OrderManagement.sol\":339:349  msg.sender */\n      caller\n        /* \"contracts/OrderManagement.sol\":332:350  admins[msg.sender] */\n      0xffffffffffffffffffffffffffffffffffffffff\n      and\n      0xffffffffffffffffffffffffffffffffffffffff\n      and\n      dup2\n      mstore\n      0x20\n      add\n      swap1\n      dup2\n      mstore\n      0x20\n      add\n      0x00\n      keccak256\n      0x00\n      swap1\n      sload\n      swap1\n      0x0100\n      exp\n      swap1\n      div\n      0xff\n      and\n        /* \"contracts/OrderManagement.sol\":324:392  require(admins[msg.sender], \"Only an admin can call this function.\") */\n      tag_41\n      jumpi\n      mload(0x40)\n      0x08c379a000000000000000000000000000000000000000000000000000000000\n      dup2\n      mstore\n      0x04\n      add\n      tag_42\n      swap1\n      tag_38\n      jump\t// in\n    tag_42:\n      mload(0x40)\n      dup1\n      swap2\n      sub\n      swap1\n      revert\n    tag_41:\n        /* \"contracts/OrderManagement.sol\":556:560  true */\n      0x01\n        /* \"contracts/OrderManagement.sol\":539:545  admins */\n      dup1\n        /* \"contracts/OrderManagement.sol\":539:553  admins[_admin] */\n      0x00\n        /* \"contracts/OrderManagement.sol\":546:552  _admin */\n      dup4\n        /* \"contracts/OrderManagement.sol\":539:553  admins[_admin] */\n      0xffffffffffffffffffffffffffffffffffffffff\n      and\n      0xffffffffffffffffffffffffffffffffffffffff\n      and\n      dup2\n      mstore\n      0x20\n      add\n      swap1\n      dup2\n      mstore\n      0x20\n      add\n      0x00\n      keccak256\n      0x00\n        /* \"contracts/OrderManagement.sol\":539:560  admins[_admin] = true */\n      0x0100\n      exp\n      dup2\n      sload\n      dup2\n      0xff\n      mul\n      not\n      and\n      swap1\n      dup4\n      iszero\n      iszero\n      mul\n      or\n      swap1\n      sstore\n      pop\n        /* \"contracts/OrderManagement.sol\":478:567  function addAdmin(address _admin) public onlyAdmin {... */\n      pop\n      jump\t// out\n        /* \"contracts/OrderManagement.sol\":963:1304  function getOrder(string memory _orderId)... */\n    tag_24:\n        /* \"contracts/OrderManagement.sol\":1063:1076  string memory */\n      0x60\n        /* \"contracts/OrderManagement.sol\":1090:1103  string memory */\n      dup1\n        /* \"contracts/OrderManagement.sol\":1117:1130  string memory */\n      0x60\n        /* \"contracts/OrderManagement.sol\":1144:1157  string memory */\n      dup1\n        /* \"contracts/OrderManagement.sol\":1182:1200  Order memory order */\n      0x00\n        /* \"contracts/OrderManagement.sol\":1203:1209  orders */\n      dup1\n        /* \"contracts/OrderManagement.sol\":1210:1218  _orderId */\n      dup7\n        /* \"contracts/OrderManagement.sol\":1203:1219  orders[_orderId] */\n      mload(0x40)\n      tag_45\n      swap2\n      swap1\n      tag_46\n      jump\t// in\n    tag_45:\n      swap1\n      dup2\n      mstore\n      0x20\n      add\n      mload(0x40)\n      dup1\n      swap2\n      sub\n      swap1\n      keccak256\n        /* \"contracts/OrderManagement.sol\":1182:1219  Order memory order = orders[_orderId] */\n      mload(0x40)\n      dup1\n      0x80\n      add\n      0x40\n      mstore\n      swap1\n      dup2\n      0x00\n      dup3\n      add\n      dup1\n      sload\n      tag_47\n      swap1\n      tag_48\n      jump\t// in\n    tag_47:\n      dup1\n      0x1f\n      add\n      0x20\n      dup1\n      swap2\n      div\n      mul\n      0x20\n      add\n      mload(0x40)\n      swap1\n      dup2\n      add\n      0x40\n      mstore\n      dup1\n      swap3\n      swap2\n      swap1\n      dup2\n      dup2\n      mstore\n      0x20\n      add\n      dup3\n      dup1\n      sload\n      tag_49\n      swap1\n      tag_48\n      jump\t// in\n    tag_49:\n      dup1\n      iszero\n      tag_50\n      jumpi\n      dup1\n      0x1f\n      lt\n      tag_51\n      jumpi\n      0x0100\n      dup1\n      dup4\n      sload\n      div\n      mul\n      dup4\n      mstore\n      swap2\n      0x20\n      add\n      swap2\n      jump(tag_50)\n    tag_51:\n      dup3\n      add\n      swap2\n      swap1\n      0x00\n      mstore\n      keccak256(0x00, 0x20)\n      swap1\n    tag_52:\n      dup2\n      sload\n      dup2\n      mstore\n      swap1\n      0x01\n      add\n      swap1\n      0x20\n      add\n      dup1\n      dup4\n      gt\n      tag_52\n      jumpi\n      dup3\n      swap1\n      sub\n      0x1f\n      and\n      dup3\n      add\n      swap2\n    tag_50:\n      pop\n      pop\n      pop\n      pop\n      pop\n      dup2\n      mstore\n      0x20\n      add\n      0x01\n      dup3\n      add\n      dup1\n      sload\n      tag_53\n      swap1\n      tag_48\n      jump\t// in\n    tag_53:\n      dup1\n      0x1f\n      add\n      0x20\n      dup1\n      swap2\n      div\n      mul\n      0x20\n      add\n      mload(0x40)\n      swap1\n      dup2\n      add\n      0x40\n      mstore\n      dup1\n      swap3\n      swap2\n      swap1\n      dup2\n      dup2\n      mstore\n      0x20\n      add\n      dup3\n      dup1\n      sload\n      tag_54\n      swap1\n      tag_48\n      jump\t// in\n    tag_54:\n      dup1\n      iszero\n      tag_55\n      jumpi\n      dup1\n      0x1f\n      lt\n      tag_56\n      jumpi\n      0x0100\n      dup1\n      dup4\n      sload\n      div\n      mul\n      dup4\n      mstore\n      swap2\n      0x20\n      add\n      swap2\n      jump(tag_55)\n    tag_56:\n      dup3\n      add\n      swap2\n      swap1\n      0x00\n      mstore\n      keccak256(0x00, 0x20)\n      swap1\n    tag_57:\n      dup2\n      sload\n      dup2\n      mstore\n      swap1\n      0x01\n      add\n      swap1\n      0x20\n      add\n      dup1\n      dup4\n      gt\n      tag_57\n      jumpi\n      dup3\n      swap1\n      sub\n      0x1f\n      and\n      dup3\n      add\n      swap2\n    tag_55:\n      pop\n      pop\n      pop\n      pop\n      pop\n      dup2\n      mstore\n      0x20\n      add\n      0x02\n      dup3\n      add\n      dup1\n      sload\n      tag_58\n      swap1\n      tag_48\n      jump\t// in\n    tag_58:\n      dup1\n      0x1f\n      add\n      0x20\n      dup1\n      swap2\n      div\n      mul\n      0x20\n      add\n      mload(0x40)\n      swap1\n      dup2\n      add\n      0x40\n      mstore\n      dup1\n      swap3\n      swap2\n      swap1\n      dup2\n      dup2\n      mstore\n      0x20\n      add\n      dup3\n      dup1\n      sload\n      tag_59\n      swap1\n      tag_48\n      jump\t// in\n    tag_59:\n      dup1\n      iszero\n      tag_60\n      jumpi\n      dup1\n      0x1f\n      lt\n      tag_61\n      jumpi\n      0x0100\n      dup1\n      dup4\n      sload\n      div\n      mul\n      dup4\n      mstore\n      swap2\n      0x20\n      add\n      swap2\n      jump(tag_60)\n    tag_61:\n      dup3\n      add\n      swap2\n      swap1\n      0x00\n      mstore\n      keccak256(0x00, 0x20)\n      swap1\n    tag_62:\n      dup2\n      sload\n      dup2\n      mstore\n      swap1\n      0x01\n      add\n      swap1\n      0x20\n      add\n      dup1\n      dup4\n      gt\n      tag_62\n      jumpi\n      dup3\n      swap1\n      sub\n      0x1f\n      and\n      dup3\n      add\n      swap2\n    tag_60:\n      pop\n      pop\n      pop\n      pop\n      pop\n      dup2\n      mstore\n      0x20\n      add\n      0x03\n      dup3\n      add\n      dup1\n      sload\n      tag_63\n      swap1\n      tag_48\n      jump\t// in\n    tag_63:\n      dup1\n      0x1f\n      add\n      0x20\n      dup1\n      swap2\n      div\n      mul\n      0x20\n      add\n      mload(0x40)\n      swap1\n      dup2\n      add\n      0x40\n      mstore\n      dup1\n      swap3\n      swap2\n      swap1\n      dup2\n      dup2\n      mstore\n      0x20\n      add\n      dup3\n      dup1\n      sload\n      tag_64\n      swap1\n      tag_48\n      jump\t// in\n    tag_64:\n      dup1\n      iszero\n      tag_65\n      jumpi\n      dup1\n      0x1f\n      lt\n      tag_66\n      jumpi\n      0x0100\n      dup1\n      dup4\n      sload\n      div\n      mul\n      dup4\n      mstore\n      swap2\n      0x20\n      add\n      swap2\n      jump(tag_65)\n    tag_66:\n      dup3\n      add\n      swap2\n      swap1\n      0x00\n      mstore\n      keccak256(0x00, 0x20)\n      swap1\n    tag_67:\n      dup2\n      sload\n      dup2\n      mstore\n      swap1\n      0x01\n      add\n      swap1\n      0x20\n      add\n      dup1\n      dup4\n      gt\n      tag_67\n      jumpi\n      dup3\n      swap1\n      sub\n      0x1f\n      and\n      dup3\n      add\n      swap2\n    tag_65:\n      pop\n      pop\n      pop\n      pop\n      pop\n      dup2\n      mstore\n      pop\n      pop\n      swap1\n      pop\n        /* \"contracts/OrderManagement.sol\":1237:1242  order */\n      dup1\n        /* \"contracts/OrderManagement.sol\":1237:1252  order.productId */\n      0x00\n      add\n      mload\n        /* \"contracts/OrderManagement.sol\":1254:1259  order */\n      dup2\n        /* \"contracts/OrderManagement.sol\":1254:1266  order.userId */\n      0x20\n      add\n      mload\n        /* \"contracts/OrderManagement.sol\":1268:1273  order */\n      dup3\n        /* \"contracts/OrderManagement.sol\":1268:1280  order.status */\n      0x40\n      add\n      mload\n        /* \"contracts/OrderManagement.sol\":1282:1287  order */\n      dup4\n        /* \"contracts/OrderManagement.sol\":1282:1296  order.sellerId */\n      0x60\n      add\n      mload\n        /* \"contracts/OrderManagement.sol\":1229:1297  return (order.productId, order.userId, order.status, order.sellerId) */\n      swap5\n      pop\n      swap5\n      pop\n      swap5\n      pop\n      swap5\n      pop\n      pop\n        /* \"contracts/OrderManagement.sol\":963:1304  function getOrder(string memory _orderId)... */\n      swap2\n      swap4\n      pop\n      swap2\n      swap4\n      jump\t// out\n        /* \"contracts/OrderManagement.sol\":672:957  function pushOrder(... */\n    tag_30:\n        /* \"contracts/OrderManagement.sol\":332:338  admins */\n      0x01\n        /* \"contracts/OrderManagement.sol\":332:350  admins[msg.sender] */\n      0x00\n        /* \"contracts/OrderManagement.sol\":339:349  msg.sender */\n      caller\n        /* \"contracts/OrderManagement.sol\":332:350  admins[msg.sender] */\n      0xffffffffffffffffffffffffffffffffffffffff\n      and\n      0xffffffffffffffffffffffffffffffffffffffff\n      and\n      dup2\n      mstore\n      0x20\n      add\n      swap1\n      dup2\n      mstore\n      0x20\n      add\n      0x00\n      keccak256\n      0x00\n      swap1\n      sload\n      swap1\n      0x0100\n      exp\n      swap1\n      div\n      0xff\n      and\n        /* \"contracts/OrderManagement.sol\":324:392  require(admins[msg.sender], \"Only an admin can call this function.\") */\n      tag_69\n      jumpi\n      mload(0x40)\n      0x08c379a000000000000000000000000000000000000000000000000000000000\n      dup2\n      mstore\n      0x04\n      add\n      tag_70\n      swap1\n      tag_38\n      jump\t// in\n    tag_70:\n      mload(0x40)\n      dup1\n      swap2\n      sub\n      swap1\n      revert\n    tag_69:\n        /* \"contracts/OrderManagement.sol\":904:950  Order(_productId, _userId, _status, _sellerId) */\n      mload(0x40)\n      dup1\n      0x80\n      add\n      0x40\n      mstore\n      dup1\n        /* \"contracts/OrderManagement.sol\":910:920  _productId */\n      dup6\n        /* \"contracts/OrderManagement.sol\":904:950  Order(_productId, _userId, _status, _sellerId) */\n      dup2\n      mstore\n      0x20\n      add\n        /* \"contracts/OrderManagement.sol\":922:929  _userId */\n      dup5\n        /* \"contracts/OrderManagement.sol\":904:950  Order(_productId, _userId, _status, _sellerId) */\n      dup2\n      mstore\n      0x20\n      add\n        /* \"contracts/OrderManagement.sol\":931:938  _status */\n      dup4\n        /* \"contracts/OrderManagement.sol\":904:950  Order(_productId, _userId, _status, _sellerId) */\n      dup2\n      mstore\n      0x20\n      add\n        /* \"contracts/OrderManagement.sol\":940:949  _sellerId */\n      dup3\n        /* \"contracts/OrderManagement.sol\":904:950  Order(_productId, _userId, _status, _sellerId) */\n      dup2\n      mstore\n      pop\n        /* \"contracts/OrderManagement.sol\":885:891  orders */\n      0x00\n        /* \"contracts/OrderManagement.sol\":892:900  _orderId */\n      dup7\n        /* \"contracts/OrderManagement.sol\":885:901  orders[_orderId] */\n      mload(0x40)\n      tag_72\n      swap2\n      swap1\n      tag_46\n      jump\t// in\n    tag_72:\n      swap1\n      dup2\n      mstore\n      0x20\n      add\n      mload(0x40)\n      dup1\n      swap2\n      sub\n      swap1\n      keccak256\n        /* \"contracts/OrderManagement.sol\":885:950  orders[_orderId] = Order(_productId, _userId, _status, _sellerId) */\n      0x00\n      dup3\n      add\n      mload\n      dup2\n      0x00\n      add\n      swap1\n      dup2\n      tag_73\n      swap2\n      swap1\n      tag_74\n      jump\t// in\n    tag_73:\n      pop\n      0x20\n      dup3\n      add\n      mload\n      dup2\n      0x01\n      add\n      swap1\n      dup2\n      tag_75\n      swap2\n      swap1\n      tag_74\n      jump\t// in\n    tag_75:\n      pop\n      0x40\n      dup3\n      add\n      mload\n      dup2\n      0x02\n      add\n      swap1\n      dup2\n      tag_76\n      swap2\n      swap1\n      tag_74\n      jump\t// in\n    tag_76:\n      pop\n      0x60\n      dup3\n      add\n      mload\n      dup2\n      0x03\n      add\n      swap1\n      dup2\n      tag_77\n      swap2\n      swap1\n      tag_74\n      jump\t// in\n    tag_77:\n      pop\n      swap1\n      pop\n      pop\n        /* \"contracts/OrderManagement.sol\":672:957  function pushOrder(... */\n      pop\n      pop\n      pop\n      pop\n      pop\n      jump\t// out\n        /* \"contracts/OrderManagement.sol\":1310:1514  function updateOrderStatus(string memory _orderId, string memory _newStatus)... */\n    tag_34:\n        /* \"contracts/OrderManagement.sol\":332:338  admins */\n      0x01\n        /* \"contracts/OrderManagement.sol\":332:350  admins[msg.sender] */\n      0x00\n        /* \"contracts/OrderManagement.sol\":339:349  msg.sender */\n      caller\n        /* \"contracts/OrderManagement.sol\":332:350  admins[msg.sender] */\n      0xffffffffffffffffffffffffffffffffffffffff\n      and\n      0xffffffffffffffffffffffffffffffffffffffff\n      and\n      dup2\n      mstore\n      0x20\n      add\n      swap1\n      dup2\n      mstore\n      0x20\n      add\n      0x00\n      keccak256\n      0x00\n      swap1\n      sload\n      swap1\n      0x0100\n      exp\n      swap1\n      div\n      0xff\n      and\n        /* \"contracts/OrderManagement.sol\":324:392  require(admins[msg.sender], \"Only an admin can call this function.\") */\n      tag_79\n      jumpi\n      mload(0x40)\n      0x08c379a000000000000000000000000000000000000000000000000000000000\n      dup2\n      mstore\n      0x04\n      add\n      tag_80\n      swap1\n      tag_38\n      jump\t// in\n    tag_80:\n      mload(0x40)\n      dup1\n      swap2\n      sub\n      swap1\n      revert\n    tag_79:\n        /* \"contracts/OrderManagement.sol\":1434:1453  Order storage order */\n      0x00\n        /* \"contracts/OrderManagement.sol\":1456:1462  orders */\n      dup1\n        /* \"contracts/OrderManagement.sol\":1463:1471  _orderId */\n      dup4\n        /* \"contracts/OrderManagement.sol\":1456:1472  orders[_orderId] */\n      mload(0x40)\n      tag_82\n      swap2\n      swap1\n      tag_46\n      jump\t// in\n    tag_82:\n      swap1\n      dup2\n      mstore\n      0x20\n      add\n      mload(0x40)\n      dup1\n      swap2\n      sub\n      swap1\n      keccak256\n        /* \"contracts/OrderManagement.sol\":1434:1472  Order storage order = orders[_orderId] */\n      swap1\n      pop\n        /* \"contracts/OrderManagement.sol\":1497:1507  _newStatus */\n      dup2\n        /* \"contracts/OrderManagement.sol\":1482:1487  order */\n      dup2\n        /* \"contracts/OrderManagement.sol\":1482:1494  order.status */\n      0x02\n      add\n        /* \"contracts/OrderManagement.sol\":1482:1507  order.status = _newStatus */\n      swap1\n      dup2\n      tag_83\n      swap2\n      swap1\n      tag_74\n      jump\t// in\n    tag_83:\n      pop\n        /* \"contracts/OrderManagement.sol\":1424:1514  {... */\n      pop\n        /* \"contracts/OrderManagement.sol\":1310:1514  function updateOrderStatus(string memory _orderId, string memory _newStatus)... */\n      pop\n      pop\n      jump\t// out\n        /* \"#utility.yul\":7:82   */\n    tag_84:\n        /* \"#utility.yul\":40:46   */\n      0x00\n        /* \"#utility.yul\":73:75   */\n      0x40\n        /* \"#utility.yul\":67:76   */\n      mload\n        /* \"#utility.yul\":57:76   */\n      swap1\n      pop\n        /* \"#utility.yul\":7:82   */\n      swap1\n      jump\t// out\n        /* \"#utility.yul\":88:205   */\n    tag_85:\n        /* \"#utility.yul\":197:198   */\n      0x00\n        /* \"#utility.yul\":194:195   */\n      dup1\n        /* \"#utility.yul\":187:199   */\n      revert\n        /* \"#utility.yul\":211:328   */\n    tag_86:\n        /* \"#utility.yul\":320:321   */\n      0x00\n        /* \"#utility.yul\":317:318   */\n      dup1\n        /* \"#utility.yul\":310:322   */\n      revert\n        /* \"#utility.yul\":334:460   */\n    tag_87:\n        /* \"#utility.yul\":371:378   */\n      0x00\n        /* \"#utility.yul\":411:453   */\n      0xffffffffffffffffffffffffffffffffffffffff\n        /* \"#utility.yul\":404:409   */\n      dup3\n        /* \"#utility.yul\":400:454   */\n      and\n        /* \"#utility.yul\":389:454   */\n      swap1\n      pop\n        /* \"#utility.yul\":334:460   */\n      swap2\n      swap1\n      pop\n      jump\t// out\n        /* \"#utility.yul\":466:562   */\n    tag_88:\n        /* \"#utility.yul\":503:510   */\n      0x00\n        /* \"#utility.yul\":532:556   */\n      tag_134\n        /* \"#utility.yul\":550:555   */\n      dup3\n        /* \"#utility.yul\":532:556   */\n      tag_87\n      jump\t// in\n    tag_134:\n        /* \"#utility.yul\":521:556   */\n      swap1\n      pop\n        /* \"#utility.yul\":466:562   */\n      swap2\n      swap1\n      pop\n      jump\t// out\n        /* \"#utility.yul\":568:690   */\n    tag_89:\n        /* \"#utility.yul\":641:665   */\n      tag_136\n        /* \"#utility.yul\":659:664   */\n      dup2\n        /* \"#utility.yul\":641:665   */\n      tag_88\n      jump\t// in\n    tag_136:\n        /* \"#utility.yul\":634:639   */\n      dup2\n        /* \"#utility.yul\":631:666   */\n      eq\n        /* \"#utility.yul\":621:684   */\n      tag_137\n      jumpi\n        /* \"#utility.yul\":680:681   */\n      0x00\n        /* \"#utility.yul\":677:678   */\n      dup1\n        /* \"#utility.yul\":670:682   */\n      revert\n        /* \"#utility.yul\":621:684   */\n    tag_137:\n        /* \"#utility.yul\":568:690   */\n      pop\n      jump\t// out\n        /* \"#utility.yul\":696:835   */\n    tag_90:\n        /* \"#utility.yul\":742:747   */\n      0x00\n        /* \"#utility.yul\":780:786   */\n      dup2\n        /* \"#utility.yul\":767:787   */\n      calldataload\n        /* \"#utility.yul\":758:787   */\n      swap1\n      pop\n        /* \"#utility.yul\":796:829   */\n      tag_139\n        /* \"#utility.yul\":823:828   */\n      dup2\n        /* \"#utility.yul\":796:829   */\n      tag_89\n      jump\t// in\n    tag_139:\n        /* \"#utility.yul\":696:835   */\n      swap3\n      swap2\n      pop\n      pop\n      jump\t// out\n        /* \"#utility.yul\":841:1170   */\n    tag_11:\n        /* \"#utility.yul\":900:906   */\n      0x00\n        /* \"#utility.yul\":949:951   */\n      0x20\n        /* \"#utility.yul\":937:946   */\n      dup3\n        /* \"#utility.yul\":928:935   */\n      dup5\n        /* \"#utility.yul\":924:947   */\n      sub\n        /* \"#utility.yul\":920:952   */\n      slt\n        /* \"#utility.yul\":917:1036   */\n      iszero\n      tag_141\n      jumpi\n        /* \"#utility.yul\":955:1034   */\n      tag_142\n      tag_85\n      jump\t// in\n    tag_142:\n        /* \"#utility.yul\":917:1036   */\n    tag_141:\n        /* \"#utility.yul\":1075:1076   */\n      0x00\n        /* \"#utility.yul\":1100:1153   */\n      tag_143\n        /* \"#utility.yul\":1145:1152   */\n      dup5\n        /* \"#utility.yul\":1136:1142   */\n      dup3\n        /* \"#utility.yul\":1125:1134   */\n      dup6\n        /* \"#utility.yul\":1121:1143   */\n      add\n        /* \"#utility.yul\":1100:1153   */\n      tag_90\n      jump\t// in\n    tag_143:\n        /* \"#utility.yul\":1090:1153   */\n      swap2\n      pop\n        /* \"#utility.yul\":1046:1163   */\n      pop\n        /* \"#utility.yul\":841:1170   */\n      swap3\n      swap2\n      pop\n      pop\n      jump\t// out\n        /* \"#utility.yul\":1176:1266   */\n    tag_91:\n        /* \"#utility.yul\":1210:1217   */\n      0x00\n        /* \"#utility.yul\":1253:1258   */\n      dup2\n        /* \"#utility.yul\":1246:1259   */\n      iszero\n        /* \"#utility.yul\":1239:1260   */\n      iszero\n        /* \"#utility.yul\":1228:1260   */\n      swap1\n      pop\n        /* \"#utility.yul\":1176:1266   */\n      swap2\n      swap1\n      pop\n      jump\t// out\n        /* \"#utility.yul\":1272:1381   */\n    tag_92:\n        /* \"#utility.yul\":1353:1374   */\n      tag_146\n        /* \"#utility.yul\":1368:1373   */\n      dup2\n        /* \"#utility.yul\":1353:1374   */\n      tag_91\n      jump\t// in\n    tag_146:\n        /* \"#utility.yul\":1348:1351   */\n      dup3\n        /* \"#utility.yul\":1341:1375   */\n      mstore\n        /* \"#utility.yul\":1272:1381   */\n      pop\n      pop\n      jump\t// out\n        /* \"#utility.yul\":1387:1597   */\n    tag_17:\n        /* \"#utility.yul\":1474:1478   */\n      0x00\n        /* \"#utility.yul\":1512:1514   */\n      0x20\n        /* \"#utility.yul\":1501:1510   */\n      dup3\n        /* \"#utility.yul\":1497:1515   */\n      add\n        /* \"#utility.yul\":1489:1515   */\n      swap1\n      pop\n        /* \"#utility.yul\":1525:1590   */\n      tag_148\n        /* \"#utility.yul\":1587:1588   */\n      0x00\n        /* \"#utility.yul\":1576:1585   */\n      dup4\n        /* \"#utility.yul\":1572:1589   */\n      add\n        /* \"#utility.yul\":1563:1569   */\n      dup5\n        /* \"#utility.yul\":1525:1590   */\n      tag_92\n      jump\t// in\n    tag_148:\n        /* \"#utility.yul\":1387:1597   */\n      swap3\n      swap2\n      pop\n      pop\n      jump\t// out\n        /* \"#utility.yul\":1603:1720   */\n    tag_93:\n        /* \"#utility.yul\":1712:1713   */\n      0x00\n        /* \"#utility.yul\":1709:1710   */\n      dup1\n        /* \"#utility.yul\":1702:1714   */\n      revert\n        /* \"#utility.yul\":1726:1843   */\n    tag_94:\n        /* \"#utility.yul\":1835:1836   */\n      0x00\n        /* \"#utility.yul\":1832:1833   */\n      dup1\n        /* \"#utility.yul\":1825:1837   */\n      revert\n        /* \"#utility.yul\":1849:1951   */\n    tag_95:\n        /* \"#utility.yul\":1890:1896   */\n      0x00\n        /* \"#utility.yul\":1941:1943   */\n      0x1f\n        /* \"#utility.yul\":1937:1944   */\n      not\n        /* \"#utility.yul\":1932:1934   */\n      0x1f\n        /* \"#utility.yul\":1925:1930   */\n      dup4\n        /* \"#utility.yul\":1921:1935   */\n      add\n        /* \"#utility.yul\":1917:1945   */\n      and\n        /* \"#utility.yul\":1907:1945   */\n      swap1\n      pop\n        /* \"#utility.yul\":1849:1951   */\n      swap2\n      swap1\n      pop\n      jump\t// out\n        /* \"#utility.yul\":1957:2137   */\n    tag_96:\n        /* \"#utility.yul\":2005:2082   */\n      0x4e487b7100000000000000000000000000000000000000000000000000000000\n        /* \"#utility.yul\":2002:2003   */\n      0x00\n        /* \"#utility.yul\":1995:2083   */\n      mstore\n        /* \"#utility.yul\":2102:2106   */\n      0x41\n        /* \"#utility.yul\":2099:2100   */\n      0x04\n        /* \"#utility.yul\":2092:2107   */\n      mstore\n        /* \"#utility.yul\":2126:2130   */\n      0x24\n        /* \"#utility.yul\":2123:2124   */\n      0x00\n        /* \"#utility.yul\":2116:2131   */\n      revert\n        /* \"#utility.yul\":2143:2424   */\n    tag_97:\n        /* \"#utility.yul\":2226:2253   */\n      tag_154\n        /* \"#utility.yul\":2248:2252   */\n      dup3\n        /* \"#utility.yul\":2226:2253   */\n      tag_95\n      jump\t// in\n    tag_154:\n        /* \"#utility.yul\":2218:2224   */\n      dup2\n        /* \"#utility.yul\":2214:2254   */\n      add\n        /* \"#utility.yul\":2356:2362   */\n      dup2\n        /* \"#utility.yul\":2344:2354   */\n      dup2\n        /* \"#utility.yul\":2341:2363   */\n      lt\n        /* \"#utility.yul\":2320:2338   */\n      0xffffffffffffffff\n        /* \"#utility.yul\":2308:2318   */\n      dup3\n        /* \"#utility.yul\":2305:2339   */\n      gt\n        /* \"#utility.yul\":2302:2364   */\n      or\n        /* \"#utility.yul\":2299:2387   */\n      iszero\n      tag_155\n      jumpi\n        /* \"#utility.yul\":2367:2385   */\n      tag_156\n      tag_96\n      jump\t// in\n    tag_156:\n        /* \"#utility.yul\":2299:2387   */\n    tag_155:\n        /* \"#utility.yul\":2407:2417   */\n      dup1\n        /* \"#utility.yul\":2403:2405   */\n      0x40\n        /* \"#utility.yul\":2396:2418   */\n      mstore\n        /* \"#utility.yul\":2186:2424   */\n      pop\n        /* \"#utility.yul\":2143:2424   */\n      pop\n      pop\n      jump\t// out\n        /* \"#utility.yul\":2430:2559   */\n    tag_98:\n        /* \"#utility.yul\":2464:2470   */\n      0x00\n        /* \"#utility.yul\":2491:2511   */\n      tag_158\n      tag_84\n      jump\t// in\n    tag_158:\n        /* \"#utility.yul\":2481:2511   */\n      swap1\n      pop\n        /* \"#utility.yul\":2520:2553   */\n      tag_159\n        /* \"#utility.yul\":2548:2552   */\n      dup3\n        /* \"#utility.yul\":2540:2546   */\n      dup3\n        /* \"#utility.yul\":2520:2553   */\n      tag_97\n      jump\t// in\n    tag_159:\n        /* \"#utility.yul\":2430:2559   */\n      swap2\n      swap1\n      pop\n      jump\t// out\n        /* \"#utility.yul\":2565:2873   */\n    tag_99:\n        /* \"#utility.yul\":2627:2631   */\n      0x00\n        /* \"#utility.yul\":2717:2735   */\n      0xffffffffffffffff\n        /* \"#utility.yul\":2709:2715   */\n      dup3\n        /* \"#utility.yul\":2706:2736   */\n      gt\n        /* \"#utility.yul\":2703:2759   */\n      iszero\n      tag_161\n      jumpi\n        /* \"#utility.yul\":2739:2757   */\n      tag_162\n      tag_96\n      jump\t// in\n    tag_162:\n        /* \"#utility.yul\":2703:2759   */\n    tag_161:\n        /* \"#utility.yul\":2777:2806   */\n      tag_163\n        /* \"#utility.yul\":2799:2805   */\n      dup3\n        /* \"#utility.yul\":2777:2806   */\n      tag_95\n      jump\t// in\n    tag_163:\n        /* \"#utility.yul\":2769:2806   */\n      swap1\n      pop\n        /* \"#utility.yul\":2861:2865   */\n      0x20\n        /* \"#utility.yul\":2855:2859   */\n      dup2\n        /* \"#utility.yul\":2851:2866   */\n      add\n        /* \"#utility.yul\":2843:2866   */\n      swap1\n      pop\n        /* \"#utility.yul\":2565:2873   */\n      swap2\n      swap1\n      pop\n      jump\t// out\n        /* \"#utility.yul\":2879:3025   */\n    tag_100:\n        /* \"#utility.yul\":2976:2982   */\n      dup3\n        /* \"#utility.yul\":2971:2974   */\n      dup2\n        /* \"#utility.yul\":2966:2969   */\n      dup4\n        /* \"#utility.yul\":2953:2983   */\n      calldatacopy\n        /* \"#utility.yul\":3017:3018   */\n      0x00\n        /* \"#utility.yul\":3008:3014   */\n      dup4\n        /* \"#utility.yul\":3003:3006   */\n      dup4\n        /* \"#utility.yul\":2999:3015   */\n      add\n        /* \"#utility.yul\":2992:3019   */\n      mstore\n        /* \"#utility.yul\":2879:3025   */\n      pop\n      pop\n      pop\n      jump\t// out\n        /* \"#utility.yul\":3031:3456   */\n    tag_101:\n        /* \"#utility.yul\":3109:3114   */\n      0x00\n        /* \"#utility.yul\":3134:3200   */\n      tag_166\n        /* \"#utility.yul\":3150:3199   */\n      tag_167\n        /* \"#utility.yul\":3192:3198   */\n      dup5\n        /* \"#utility.yul\":3150:3199   */\n      tag_99\n      jump\t// in\n    tag_167:\n        /* \"#utility.yul\":3134:3200   */\n      tag_98\n      jump\t// in\n    tag_166:\n        /* \"#utility.yul\":3125:3200   */\n      swap1\n      pop\n        /* \"#utility.yul\":3223:3229   */\n      dup3\n        /* \"#utility.yul\":3216:3221   */\n      dup2\n        /* \"#utility.yul\":3209:3230   */\n      mstore\n        /* \"#utility.yul\":3261:3265   */\n      0x20\n        /* \"#utility.yul\":3254:3259   */\n      dup2\n        /* \"#utility.yul\":3250:3266   */\n      add\n        /* \"#utility.yul\":3299:3302   */\n      dup5\n        /* \"#utility.yul\":3290:3296   */\n      dup5\n        /* \"#utility.yul\":3285:3288   */\n      dup5\n        /* \"#utility.yul\":3281:3297   */\n      add\n        /* \"#utility.yul\":3278:3303   */\n      gt\n        /* \"#utility.yul\":3275:3387   */\n      iszero\n      tag_168\n      jumpi\n        /* \"#utility.yul\":3306:3385   */\n      tag_169\n      tag_94\n      jump\t// in\n    tag_169:\n        /* \"#utility.yul\":3275:3387   */\n    tag_168:\n        /* \"#utility.yul\":3396:3450   */\n      tag_170\n        /* \"#utility.yul\":3443:3449   */\n      dup5\n        /* \"#utility.yul\":3438:3441   */\n      dup3\n        /* \"#utility.yul\":3433:3436   */\n      dup6\n        /* \"#utility.yul\":3396:3450   */\n      tag_100\n      jump\t// in\n    tag_170:\n        /* \"#utility.yul\":3115:3456   */\n      pop\n        /* \"#utility.yul\":3031:3456   */\n      swap4\n      swap3\n      pop\n      pop\n      pop\n      jump\t// out\n        /* \"#utility.yul\":3476:3816   */\n    tag_102:\n        /* \"#utility.yul\":3532:3537   */\n      0x00\n        /* \"#utility.yul\":3581:3584   */\n      dup3\n        /* \"#utility.yul\":3574:3578   */\n      0x1f\n        /* \"#utility.yul\":3566:3572   */\n      dup4\n        /* \"#utility.yul\":3562:3579   */\n      add\n        /* \"#utility.yul\":3558:3585   */\n      slt\n        /* \"#utility.yul\":3548:3670   */\n      tag_172\n      jumpi\n        /* \"#utility.yul\":3589:3668   */\n      tag_173\n      tag_93\n      jump\t// in\n    tag_173:\n        /* \"#utility.yul\":3548:3670   */\n    tag_172:\n        /* \"#utility.yul\":3706:3712   */\n      dup2\n        /* \"#utility.yul\":3693:3713   */\n      calldataload\n        /* \"#utility.yul\":3731:3810   */\n      tag_174\n        /* \"#utility.yul\":3806:3809   */\n      dup5\n        /* \"#utility.yul\":3798:3804   */\n      dup3\n        /* \"#utility.yul\":3791:3795   */\n      0x20\n        /* \"#utility.yul\":3783:3789   */\n      dup7\n        /* \"#utility.yul\":3779:3796   */\n      add\n        /* \"#utility.yul\":3731:3810   */\n      tag_101\n      jump\t// in\n    tag_174:\n        /* \"#utility.yul\":3722:3810   */\n      swap2\n      pop\n        /* \"#utility.yul\":3538:3816   */\n      pop\n        /* \"#utility.yul\":3476:3816   */\n      swap3\n      swap2\n      pop\n      pop\n      jump\t// out\n        /* \"#utility.yul\":3822:4331   */\n    tag_23:\n        /* \"#utility.yul\":3891:3897   */\n      0x00\n        /* \"#utility.yul\":3940:3942   */\n      0x20\n        /* \"#utility.yul\":3928:3937   */\n      dup3\n        /* \"#utility.yul\":3919:3926   */\n      dup5\n        /* \"#utility.yul\":3915:3938   */\n      sub\n        /* \"#utility.yul\":3911:3943   */\n      slt\n        /* \"#utility.yul\":3908:4027   */\n      iszero\n      tag_176\n      jumpi\n        /* \"#utility.yul\":3946:4025   */\n      tag_177\n      tag_85\n      jump\t// in\n    tag_177:\n        /* \"#utility.yul\":3908:4027   */\n    tag_176:\n        /* \"#utility.yul\":4094:4095   */\n      0x00\n        /* \"#utility.yul\":4083:4092   */\n      dup3\n        /* \"#utility.yul\":4079:4096   */\n      add\n        /* \"#utility.yul\":4066:4097   */\n      calldataload\n        /* \"#utility.yul\":4124:4142   */\n      0xffffffffffffffff\n        /* \"#utility.yul\":4116:4122   */\n      dup2\n        /* \"#utility.yul\":4113:4143   */\n      gt\n        /* \"#utility.yul\":4110:4227   */\n      iszero\n      tag_178\n      jumpi\n        /* \"#utility.yul\":4146:4225   */\n      tag_179\n      tag_86\n      jump\t// in\n    tag_179:\n        /* \"#utility.yul\":4110:4227   */\n    tag_178:\n        /* \"#utility.yul\":4251:4314   */\n      tag_180\n        /* \"#utility.yul\":4306:4313   */\n      dup5\n        /* \"#utility.yul\":4297:4303   */\n      dup3\n        /* \"#utility.yul\":4286:4295   */\n      dup6\n        /* \"#utility.yul\":4282:4304   */\n      add\n        /* \"#utility.yul\":4251:4314   */\n      tag_102\n      jump\t// in\n    tag_180:\n        /* \"#utility.yul\":4241:4314   */\n      swap2\n      pop\n        /* \"#utility.yul\":4037:4324   */\n      pop\n        /* \"#utility.yul\":3822:4331   */\n      swap3\n      swap2\n      pop\n      pop\n      jump\t// out\n        /* \"#utility.yul\":4337:4436   */\n    tag_103:\n        /* \"#utility.yul\":4389:4395   */\n      0x00\n        /* \"#utility.yul\":4423:4428   */\n      dup2\n        /* \"#utility.yul\":4417:4429   */\n      mload\n        /* \"#utility.yul\":4407:4429   */\n      swap1\n      pop\n        /* \"#utility.yul\":4337:4436   */\n      swap2\n      swap1\n      pop\n      jump\t// out\n        /* \"#utility.yul\":4442:4611   */\n    tag_104:\n        /* \"#utility.yul\":4526:4537   */\n      0x00\n        /* \"#utility.yul\":4560:4566   */\n      dup3\n        /* \"#utility.yul\":4555:4558   */\n      dup3\n        /* \"#utility.yul\":4548:4567   */\n      mstore\n        /* \"#utility.yul\":4600:4604   */\n      0x20\n        /* \"#utility.yul\":4595:4598   */\n      dup3\n        /* \"#utility.yul\":4591:4605   */\n      add\n        /* \"#utility.yul\":4576:4605   */\n      swap1\n      pop\n        /* \"#utility.yul\":4442:4611   */\n      swap3\n      swap2\n      pop\n      pop\n      jump\t// out\n        /* \"#utility.yul\":4617:4863   */\n    tag_105:\n        /* \"#utility.yul\":4698:4699   */\n      0x00\n        /* \"#utility.yul\":4708:4821   */\n    tag_184:\n        /* \"#utility.yul\":4722:4728   */\n      dup4\n        /* \"#utility.yul\":4719:4720   */\n      dup2\n        /* \"#utility.yul\":4716:4729   */\n      lt\n        /* \"#utility.yul\":4708:4821   */\n      iszero\n      tag_186\n      jumpi\n        /* \"#utility.yul\":4807:4808   */\n      dup1\n        /* \"#utility.yul\":4802:4805   */\n      dup3\n        /* \"#utility.yul\":4798:4809   */\n      add\n        /* \"#utility.yul\":4792:4810   */\n      mload\n        /* \"#utility.yul\":4788:4789   */\n      dup2\n        /* \"#utility.yul\":4783:4786   */\n      dup5\n        /* \"#utility.yul\":4779:4790   */\n      add\n        /* \"#utility.yul\":4772:4811   */\n      mstore\n        /* \"#utility.yul\":4744:4746   */\n      0x20\n        /* \"#utility.yul\":4741:4742   */\n      dup2\n        /* \"#utility.yul\":4737:4747   */\n      add\n        /* \"#utility.yul\":4732:4747   */\n      swap1\n      pop\n        /* \"#utility.yul\":4708:4821   */\n      jump(tag_184)\n    tag_186:\n        /* \"#utility.yul\":4855:4856   */\n      0x00\n        /* \"#utility.yul\":4846:4852   */\n      dup5\n        /* \"#utility.yul\":4841:4844   */\n      dup5\n        /* \"#utility.yul\":4837:4853   */\n      add\n        /* \"#utility.yul\":4830:4857   */\n      mstore\n        /* \"#utility.yul\":4679:4863   */\n      pop\n        /* \"#utility.yul\":4617:4863   */\n      pop\n      pop\n      pop\n      jump\t// out\n        /* \"#utility.yul\":4869:5246   */\n    tag_106:\n        /* \"#utility.yul\":4957:4960   */\n      0x00\n        /* \"#utility.yul\":4985:5024   */\n      tag_188\n        /* \"#utility.yul\":5018:5023   */\n      dup3\n        /* \"#utility.yul\":4985:5024   */\n      tag_103\n      jump\t// in\n    tag_188:\n        /* \"#utility.yul\":5040:5111   */\n      tag_189\n        /* \"#utility.yul\":5104:5110   */\n      dup2\n        /* \"#utility.yul\":5099:5102   */\n      dup6\n        /* \"#utility.yul\":5040:5111   */\n      tag_104\n      jump\t// in\n    tag_189:\n        /* \"#utility.yul\":5033:5111   */\n      swap4\n      pop\n        /* \"#utility.yul\":5120:5185   */\n      tag_190\n        /* \"#utility.yul\":5178:5184   */\n      dup2\n        /* \"#utility.yul\":5173:5176   */\n      dup6\n        /* \"#utility.yul\":5166:5170   */\n      0x20\n        /* \"#utility.yul\":5159:5164   */\n      dup7\n        /* \"#utility.yul\":5155:5171   */\n      add\n        /* \"#utility.yul\":5120:5185   */\n      tag_105\n      jump\t// in\n    tag_190:\n        /* \"#utility.yul\":5210:5239   */\n      tag_191\n        /* \"#utility.yul\":5232:5238   */\n      dup2\n        /* \"#utility.yul\":5210:5239   */\n      tag_95\n      jump\t// in\n    tag_191:\n        /* \"#utility.yul\":5205:5208   */\n      dup5\n        /* \"#utility.yul\":5201:5240   */\n      add\n        /* \"#utility.yul\":5194:5240   */\n      swap2\n      pop\n        /* \"#utility.yul\":4961:5246   */\n      pop\n        /* \"#utility.yul\":4869:5246   */\n      swap3\n      swap2\n      pop\n      pop\n      jump\t// out\n        /* \"#utility.yul\":5252:6169   */\n    tag_26:\n        /* \"#utility.yul\":5509:5513   */\n      0x00\n        /* \"#utility.yul\":5547:5550   */\n      0x80\n        /* \"#utility.yul\":5536:5545   */\n      dup3\n        /* \"#utility.yul\":5532:5551   */\n      add\n        /* \"#utility.yul\":5524:5551   */\n      swap1\n      pop\n        /* \"#utility.yul\":5597:5606   */\n      dup2\n        /* \"#utility.yul\":5591:5595   */\n      dup2\n        /* \"#utility.yul\":5587:5607   */\n      sub\n        /* \"#utility.yul\":5583:5584   */\n      0x00\n        /* \"#utility.yul\":5572:5581   */\n      dup4\n        /* \"#utility.yul\":5568:5585   */\n      add\n        /* \"#utility.yul\":5561:5608   */\n      mstore\n        /* \"#utility.yul\":5625:5703   */\n      tag_193\n        /* \"#utility.yul\":5698:5702   */\n      dup2\n        /* \"#utility.yul\":5689:5695   */\n      dup8\n        /* \"#utility.yul\":5625:5703   */\n      tag_106\n      jump\t// in\n    tag_193:\n        /* \"#utility.yul\":5617:5703   */\n      swap1\n      pop\n        /* \"#utility.yul\":5750:5759   */\n      dup2\n        /* \"#utility.yul\":5744:5748   */\n      dup2\n        /* \"#utility.yul\":5740:5760   */\n      sub\n        /* \"#utility.yul\":5735:5737   */\n      0x20\n        /* \"#utility.yul\":5724:5733   */\n      dup4\n        /* \"#utility.yul\":5720:5738   */\n      add\n        /* \"#utility.yul\":5713:5761   */\n      mstore\n        /* \"#utility.yul\":5778:5856   */\n      tag_194\n        /* \"#utility.yul\":5851:5855   */\n      dup2\n        /* \"#utility.yul\":5842:5848   */\n      dup7\n        /* \"#utility.yul\":5778:5856   */\n      tag_106\n      jump\t// in\n    tag_194:\n        /* \"#utility.yul\":5770:5856   */\n      swap1\n      pop\n        /* \"#utility.yul\":5903:5912   */\n      dup2\n        /* \"#utility.yul\":5897:5901   */\n      dup2\n        /* \"#utility.yul\":5893:5913   */\n      sub\n        /* \"#utility.yul\":5888:5890   */\n      0x40\n        /* \"#utility.yul\":5877:5886   */\n      dup4\n        /* \"#utility.yul\":5873:5891   */\n      add\n        /* \"#utility.yul\":5866:5914   */\n      mstore\n        /* \"#utility.yul\":5931:6009   */\n      tag_195\n        /* \"#utility.yul\":6004:6008   */\n      dup2\n        /* \"#utility.yul\":5995:6001   */\n      dup6\n        /* \"#utility.yul\":5931:6009   */\n      tag_106\n      jump\t// in\n    tag_195:\n        /* \"#utility.yul\":5923:6009   */\n      swap1\n      pop\n        /* \"#utility.yul\":6056:6065   */\n      dup2\n        /* \"#utility.yul\":6050:6054   */\n      dup2\n        /* \"#utility.yul\":6046:6066   */\n      sub\n        /* \"#utility.yul\":6041:6043   */\n      0x60\n        /* \"#utility.yul\":6030:6039   */\n      dup4\n        /* \"#utility.yul\":6026:6044   */\n      add\n        /* \"#utility.yul\":6019:6067   */\n      mstore\n        /* \"#utility.yul\":6084:6162   */\n      tag_196\n        /* \"#utility.yul\":6157:6161   */\n      dup2\n        /* \"#utility.yul\":6148:6154   */\n      dup5\n        /* \"#utility.yul\":6084:6162   */\n      tag_106\n      jump\t// in\n    tag_196:\n        /* \"#utility.yul\":6076:6162   */\n      swap1\n      pop\n        /* \"#utility.yul\":5252:6169   */\n      swap6\n      swap5\n      pop\n      pop\n      pop\n      pop\n      pop\n      jump\t// out\n        /* \"#utility.yul\":6175:7986   */\n    tag_29:\n        /* \"#utility.yul\":6320:6326   */\n      0x00\n        /* \"#utility.yul\":6328:6334   */\n      dup1\n        /* \"#utility.yul\":6336:6342   */\n      0x00\n        /* \"#utility.yul\":6344:6350   */\n      dup1\n        /* \"#utility.yul\":6352:6358   */\n      0x00\n        /* \"#utility.yul\":6401:6404   */\n      0xa0\n        /* \"#utility.yul\":6389:6398   */\n      dup7\n        /* \"#utility.yul\":6380:6387   */\n      dup9\n        /* \"#utility.yul\":6376:6399   */\n      sub\n        /* \"#utility.yul\":6372:6405   */\n      slt\n        /* \"#utility.yul\":6369:6489   */\n      iszero\n      tag_198\n      jumpi\n        /* \"#utility.yul\":6408:6487   */\n      tag_199\n      tag_85\n      jump\t// in\n    tag_199:\n        /* \"#utility.yul\":6369:6489   */\n    tag_198:\n        /* \"#utility.yul\":6556:6557   */\n      0x00\n        /* \"#utility.yul\":6545:6554   */\n      dup7\n        /* \"#utility.yul\":6541:6558   */\n      add\n        /* \"#utility.yul\":6528:6559   */\n      calldataload\n        /* \"#utility.yul\":6586:6604   */\n      0xffffffffffffffff\n        /* \"#utility.yul\":6578:6584   */\n      dup2\n        /* \"#utility.yul\":6575:6605   */\n      gt\n        /* \"#utility.yul\":6572:6689   */\n      iszero\n      tag_200\n      jumpi\n        /* \"#utility.yul\":6608:6687   */\n      tag_201\n      tag_86\n      jump\t// in\n    tag_201:\n        /* \"#utility.yul\":6572:6689   */\n    tag_200:\n        /* \"#utility.yul\":6713:6776   */\n      tag_202\n        /* \"#utility.yul\":6768:6775   */\n      dup9\n        /* \"#utility.yul\":6759:6765   */\n      dup3\n        /* \"#utility.yul\":6748:6757   */\n      dup10\n        /* \"#utility.yul\":6744:6766   */\n      add\n        /* \"#utility.yul\":6713:6776   */\n      tag_102\n      jump\t// in\n    tag_202:\n        /* \"#utility.yul\":6703:6776   */\n      swap6\n      pop\n        /* \"#utility.yul\":6499:6786   */\n      pop\n        /* \"#utility.yul\":6853:6855   */\n      0x20\n        /* \"#utility.yul\":6842:6851   */\n      dup7\n        /* \"#utility.yul\":6838:6856   */\n      add\n        /* \"#utility.yul\":6825:6857   */\n      calldataload\n        /* \"#utility.yul\":6884:6902   */\n      0xffffffffffffffff\n        /* \"#utility.yul\":6876:6882   */\n      dup2\n        /* \"#utility.yul\":6873:6903   */\n      gt\n        /* \"#utility.yul\":6870:6987   */\n      iszero\n      tag_203\n      jumpi\n        /* \"#utility.yul\":6906:6985   */\n      tag_204\n      tag_86\n      jump\t// in\n    tag_204:\n        /* \"#utility.yul\":6870:6987   */\n    tag_203:\n        /* \"#utility.yul\":7011:7074   */\n      tag_205\n        /* \"#utility.yul\":7066:7073   */\n      dup9\n        /* \"#utility.yul\":7057:7063   */\n      dup3\n        /* \"#utility.yul\":7046:7055   */\n      dup10\n        /* \"#utility.yul\":7042:7064   */\n      add\n        /* \"#utility.yul\":7011:7074   */\n      tag_102\n      jump\t// in\n    tag_205:\n        /* \"#utility.yul\":7001:7074   */\n      swap5\n      pop\n        /* \"#utility.yul\":6796:7084   */\n      pop\n        /* \"#utility.yul\":7151:7153   */\n      0x40\n        /* \"#utility.yul\":7140:7149   */\n      dup7\n        /* \"#utility.yul\":7136:7154   */\n      add\n        /* \"#utility.yul\":7123:7155   */\n      calldataload\n        /* \"#utility.yul\":7182:7200   */\n      0xffffffffffffffff\n        /* \"#utility.yul\":7174:7180   */\n      dup2\n        /* \"#utility.yul\":7171:7201   */\n      gt\n        /* \"#utility.yul\":7168:7285   */\n      iszero\n      tag_206\n      jumpi\n        /* \"#utility.yul\":7204:7283   */\n      tag_207\n      tag_86\n      jump\t// in\n    tag_207:\n        /* \"#utility.yul\":7168:7285   */\n    tag_206:\n        /* \"#utility.yul\":7309:7372   */\n      tag_208\n        /* \"#utility.yul\":7364:7371   */\n      dup9\n        /* \"#utility.yul\":7355:7361   */\n      dup3\n        /* \"#utility.yul\":7344:7353   */\n      dup10\n        /* \"#utility.yul\":7340:7362   */\n      add\n        /* \"#utility.yul\":7309:7372   */\n      tag_102\n      jump\t// in\n    tag_208:\n        /* \"#utility.yul\":7299:7372   */\n      swap4\n      pop\n        /* \"#utility.yul\":7094:7382   */\n      pop\n        /* \"#utility.yul\":7449:7451   */\n      0x60\n        /* \"#utility.yul\":7438:7447   */\n      dup7\n        /* \"#utility.yul\":7434:7452   */\n      add\n        /* \"#utility.yul\":7421:7453   */\n      calldataload\n        /* \"#utility.yul\":7480:7498   */\n      0xffffffffffffffff\n        /* \"#utility.yul\":7472:7478   */\n      dup2\n        /* \"#utility.yul\":7469:7499   */\n      gt\n        /* \"#utility.yul\":7466:7583   */\n      iszero\n      tag_209\n      jumpi\n        /* \"#utility.yul\":7502:7581   */\n      tag_210\n      tag_86\n      jump\t// in\n    tag_210:\n        /* \"#utility.yul\":7466:7583   */\n    tag_209:\n        /* \"#utility.yul\":7607:7670   */\n      tag_211\n        /* \"#utility.yul\":7662:7669   */\n      dup9\n        /* \"#utility.yul\":7653:7659   */\n      dup3\n        /* \"#utility.yul\":7642:7651   */\n      dup10\n        /* \"#utility.yul\":7638:7660   */\n      add\n        /* \"#utility.yul\":7607:7670   */\n      tag_102\n      jump\t// in\n    tag_211:\n        /* \"#utility.yul\":7597:7670   */\n      swap3\n      pop\n        /* \"#utility.yul\":7392:7680   */\n      pop\n        /* \"#utility.yul\":7747:7750   */\n      0x80\n        /* \"#utility.yul\":7736:7745   */\n      dup7\n        /* \"#utility.yul\":7732:7751   */\n      add\n        /* \"#utility.yul\":7719:7752   */\n      calldataload\n        /* \"#utility.yul\":7779:7797   */\n      0xffffffffffffffff\n        /* \"#utility.yul\":7771:7777   */\n      dup2\n        /* \"#utility.yul\":7768:7798   */\n      gt\n        /* \"#utility.yul\":7765:7882   */\n      iszero\n      tag_212\n      jumpi\n        /* \"#utility.yul\":7801:7880   */\n      tag_213\n      tag_86\n      jump\t// in\n    tag_213:\n        /* \"#utility.yul\":7765:7882   */\n    tag_212:\n        /* \"#utility.yul\":7906:7969   */\n      tag_214\n        /* \"#utility.yul\":7961:7968   */\n      dup9\n        /* \"#utility.yul\":7952:7958   */\n      dup3\n        /* \"#utility.yul\":7941:7950   */\n      dup10\n        /* \"#utility.yul\":7937:7959   */\n      add\n        /* \"#utility.yul\":7906:7969   */\n      tag_102\n      jump\t// in\n    tag_214:\n        /* \"#utility.yul\":7896:7969   */\n      swap2\n      pop\n        /* \"#utility.yul\":7690:7979   */\n      pop\n        /* \"#utility.yul\":6175:7986   */\n      swap3\n      swap6\n      pop\n      swap3\n      swap6\n      swap1\n      swap4\n      pop\n      jump\t// out\n        /* \"#utility.yul\":7992:8826   */\n    tag_33:\n        /* \"#utility.yul\":8080:8086   */\n      0x00\n        /* \"#utility.yul\":8088:8094   */\n      dup1\n        /* \"#utility.yul\":8137:8139   */\n      0x40\n        /* \"#utility.yul\":8125:8134   */\n      dup4\n        /* \"#utility.yul\":8116:8123   */\n      dup6\n        /* \"#utility.yul\":8112:8135   */\n      sub\n        /* \"#utility.yul\":8108:8140   */\n      slt\n        /* \"#utility.yul\":8105:8224   */\n      iszero\n      tag_216\n      jumpi\n        /* \"#utility.yul\":8143:8222   */\n      tag_217\n      tag_85\n      jump\t// in\n    tag_217:\n        /* \"#utility.yul\":8105:8224   */\n    tag_216:\n        /* \"#utility.yul\":8291:8292   */\n      0x00\n        /* \"#utility.yul\":8280:8289   */\n      dup4\n        /* \"#utility.yul\":8276:8293   */\n      add\n        /* \"#utility.yul\":8263:8294   */\n      calldataload\n        /* \"#utility.yul\":8321:8339   */\n      0xffffffffffffffff\n        /* \"#utility.yul\":8313:8319   */\n      dup2\n        /* \"#utility.yul\":8310:8340   */\n      gt\n        /* \"#utility.yul\":8307:8424   */\n      iszero\n      tag_218\n      jumpi\n        /* \"#utility.yul\":8343:8422   */\n      tag_219\n      tag_86\n      jump\t// in\n    tag_219:\n        /* \"#utility.yul\":8307:8424   */\n    tag_218:\n        /* \"#utility.yul\":8448:8511   */\n      tag_220\n        /* \"#utility.yul\":8503:8510   */\n      dup6\n        /* \"#utility.yul\":8494:8500   */\n      dup3\n        /* \"#utility.yul\":8483:8492   */\n      dup7\n        /* \"#utility.yul\":8479:8501   */\n      add\n        /* \"#utility.yul\":8448:8511   */\n      tag_102\n      jump\t// in\n    tag_220:\n        /* \"#utility.yul\":8438:8511   */\n      swap3\n      pop\n        /* \"#utility.yul\":8234:8521   */\n      pop\n        /* \"#utility.yul\":8588:8590   */\n      0x20\n        /* \"#utility.yul\":8577:8586   */\n      dup4\n        /* \"#utility.yul\":8573:8591   */\n      add\n        /* \"#utility.yul\":8560:8592   */\n      calldataload\n        /* \"#utility.yul\":8619:8637   */\n      0xffffffffffffffff\n        /* \"#utility.yul\":8611:8617   */\n      dup2\n        /* \"#utility.yul\":8608:8638   */\n      gt\n        /* \"#utility.yul\":8605:8722   */\n      iszero\n      tag_221\n      jumpi\n        /* \"#utility.yul\":8641:8720   */\n      tag_222\n      tag_86\n      jump\t// in\n    tag_222:\n        /* \"#utility.yul\":8605:8722   */\n    tag_221:\n        /* \"#utility.yul\":8746:8809   */\n      tag_223\n        /* \"#utility.yul\":8801:8808   */\n      dup6\n        /* \"#utility.yul\":8792:8798   */\n      dup3\n        /* \"#utility.yul\":8781:8790   */\n      dup7\n        /* \"#utility.yul\":8777:8799   */\n      add\n        /* \"#utility.yul\":8746:8809   */\n      tag_102\n      jump\t// in\n    tag_223:\n        /* \"#utility.yul\":8736:8809   */\n      swap2\n      pop\n        /* \"#utility.yul\":8531:8819   */\n      pop\n        /* \"#utility.yul\":7992:8826   */\n      swap3\n      pop\n      swap3\n      swap1\n      pop\n      jump\t// out\n        /* \"#utility.yul\":8832:9056   */\n    tag_107:\n        /* \"#utility.yul\":8972:9006   */\n      0x4f6e6c7920616e2061646d696e2063616e2063616c6c20746869732066756e63\n        /* \"#utility.yul\":8968:8969   */\n      0x00\n        /* \"#utility.yul\":8960:8966   */\n      dup3\n        /* \"#utility.yul\":8956:8970   */\n      add\n        /* \"#utility.yul\":8949:9007   */\n      mstore\n        /* \"#utility.yul\":9041:9048   */\n      0x74696f6e2e000000000000000000000000000000000000000000000000000000\n        /* \"#utility.yul\":9036:9038   */\n      0x20\n        /* \"#utility.yul\":9028:9034   */\n      dup3\n        /* \"#utility.yul\":9024:9039   */\n      add\n        /* \"#utility.yul\":9017:9049   */\n      mstore\n        /* \"#utility.yul\":8832:9056   */\n      pop\n      jump\t// out\n        /* \"#utility.yul\":9062:9428   */\n    tag_108:\n        /* \"#utility.yul\":9204:9207   */\n      0x00\n        /* \"#utility.yul\":9225:9292   */\n      tag_226\n        /* \"#utility.yul\":9289:9291   */\n      0x25\n        /* \"#utility.yul\":9284:9287   */\n      dup4\n        /* \"#utility.yul\":9225:9292   */\n      tag_104\n      jump\t// in\n    tag_226:\n        /* \"#utility.yul\":9218:9292   */\n      swap2\n      pop\n        /* \"#utility.yul\":9301:9394   */\n      tag_227\n        /* \"#utility.yul\":9390:9393   */\n      dup3\n        /* \"#utility.yul\":9301:9394   */\n      tag_107\n      jump\t// in\n    tag_227:\n        /* \"#utility.yul\":9419:9421   */\n      0x40\n        /* \"#utility.yul\":9414:9417   */\n      dup3\n        /* \"#utility.yul\":9410:9422   */\n      add\n        /* \"#utility.yul\":9403:9422   */\n      swap1\n      pop\n        /* \"#utility.yul\":9062:9428   */\n      swap2\n      swap1\n      pop\n      jump\t// out\n        /* \"#utility.yul\":9434:9853   */\n    tag_38:\n        /* \"#utility.yul\":9600:9604   */\n      0x00\n        /* \"#utility.yul\":9638:9640   */\n      0x20\n        /* \"#utility.yul\":9627:9636   */\n      dup3\n        /* \"#utility.yul\":9623:9641   */\n      add\n        /* \"#utility.yul\":9615:9641   */\n      swap1\n      pop\n        /* \"#utility.yul\":9687:9696   */\n      dup2\n        /* \"#utility.yul\":9681:9685   */\n      dup2\n        /* \"#utility.yul\":9677:9697   */\n      sub\n        /* \"#utility.yul\":9673:9674   */\n      0x00\n        /* \"#utility.yul\":9662:9671   */\n      dup4\n        /* \"#utility.yul\":9658:9675   */\n      add\n        /* \"#utility.yul\":9651:9698   */\n      mstore\n        /* \"#utility.yul\":9715:9846   */\n      tag_229\n        /* \"#utility.yul\":9841:9845   */\n      dup2\n        /* \"#utility.yul\":9715:9846   */\n      tag_108\n      jump\t// in\n    tag_229:\n        /* \"#utility.yul\":9707:9846   */\n      swap1\n      pop\n        /* \"#utility.yul\":9434:9853   */\n      swap2\n      swap1\n      pop\n      jump\t// out\n        /* \"#utility.yul\":9859:10007   */\n    tag_109:\n        /* \"#utility.yul\":9961:9972   */\n      0x00\n        /* \"#utility.yul\":9998:10001   */\n      dup2\n        /* \"#utility.yul\":9983:10001   */\n      swap1\n      pop\n        /* \"#utility.yul\":9859:10007   */\n      swap3\n      swap2\n      pop\n      pop\n      jump\t// out\n        /* \"#utility.yul\":10013:10403   */\n    tag_110:\n        /* \"#utility.yul\":10119:10122   */\n      0x00\n        /* \"#utility.yul\":10147:10186   */\n      tag_232\n        /* \"#utility.yul\":10180:10185   */\n      dup3\n        /* \"#utility.yul\":10147:10186   */\n      tag_103\n      jump\t// in\n    tag_232:\n        /* \"#utility.yul\":10202:10291   */\n      tag_233\n        /* \"#utility.yul\":10284:10290   */\n      dup2\n        /* \"#utility.yul\":10279:10282   */\n      dup6\n        /* \"#utility.yul\":10202:10291   */\n      tag_109\n      jump\t// in\n    tag_233:\n        /* \"#utility.yul\":10195:10291   */\n      swap4\n      pop\n        /* \"#utility.yul\":10300:10365   */\n      tag_234\n        /* \"#utility.yul\":10358:10364   */\n      dup2\n        /* \"#utility.yul\":10353:10356   */\n      dup6\n        /* \"#utility.yul\":10346:10350   */\n      0x20\n        /* \"#utility.yul\":10339:10344   */\n      dup7\n        /* \"#utility.yul\":10335:10351   */\n      add\n        /* \"#utility.yul\":10300:10365   */\n      tag_105\n      jump\t// in\n    tag_234:\n        /* \"#utility.yul\":10390:10396   */\n      dup1\n        /* \"#utility.yul\":10385:10388   */\n      dup5\n        /* \"#utility.yul\":10381:10397   */\n      add\n        /* \"#utility.yul\":10374:10397   */\n      swap2\n      pop\n        /* \"#utility.yul\":10123:10403   */\n      pop\n        /* \"#utility.yul\":10013:10403   */\n      swap3\n      swap2\n      pop\n      pop\n      jump\t// out\n        /* \"#utility.yul\":10409:10684   */\n    tag_46:\n        /* \"#utility.yul\":10541:10544   */\n      0x00\n        /* \"#utility.yul\":10563:10658   */\n      tag_236\n        /* \"#utility.yul\":10654:10657   */\n      dup3\n        /* \"#utility.yul\":10645:10651   */\n      dup5\n        /* \"#utility.yul\":10563:10658   */\n      tag_110\n      jump\t// in\n    tag_236:\n        /* \"#utility.yul\":10556:10658   */\n      swap2\n      pop\n        /* \"#utility.yul\":10675:10678   */\n      dup2\n        /* \"#utility.yul\":10668:10678   */\n      swap1\n      pop\n        /* \"#utility.yul\":10409:10684   */\n      swap3\n      swap2\n      pop\n      pop\n      jump\t// out\n        /* \"#utility.yul\":10690:10870   */\n    tag_111:\n        /* \"#utility.yul\":10738:10815   */\n      0x4e487b7100000000000000000000000000000000000000000000000000000000\n        /* \"#utility.yul\":10735:10736   */\n      0x00\n        /* \"#utility.yul\":10728:10816   */\n      mstore\n        /* \"#utility.yul\":10835:10839   */\n      0x22\n        /* \"#utility.yul\":10832:10833   */\n      0x04\n        /* \"#utility.yul\":10825:10840   */\n      mstore\n        /* \"#utility.yul\":10859:10863   */\n      0x24\n        /* \"#utility.yul\":10856:10857   */\n      0x00\n        /* \"#utility.yul\":10849:10864   */\n      revert\n        /* \"#utility.yul\":10876:11196   */\n    tag_48:\n        /* \"#utility.yul\":10920:10926   */\n      0x00\n        /* \"#utility.yul\":10957:10958   */\n      0x02\n        /* \"#utility.yul\":10951:10955   */\n      dup3\n        /* \"#utility.yul\":10947:10959   */\n      div\n        /* \"#utility.yul\":10937:10959   */\n      swap1\n      pop\n        /* \"#utility.yul\":11004:11005   */\n      0x01\n        /* \"#utility.yul\":10998:11002   */\n      dup3\n        /* \"#utility.yul\":10994:11006   */\n      and\n        /* \"#utility.yul\":11025:11043   */\n      dup1\n        /* \"#utility.yul\":11015:11096   */\n      tag_239\n      jumpi\n        /* \"#utility.yul\":11081:11085   */\n      0x7f\n        /* \"#utility.yul\":11073:11079   */\n      dup3\n        /* \"#utility.yul\":11069:11086   */\n      and\n        /* \"#utility.yul\":11059:11086   */\n      swap2\n      pop\n        /* \"#utility.yul\":11015:11096   */\n    tag_239:\n        /* \"#utility.yul\":11143:11145   */\n      0x20\n        /* \"#utility.yul\":11135:11141   */\n      dup3\n        /* \"#utility.yul\":11132:11146   */\n      lt\n        /* \"#utility.yul\":11112:11130   */\n      dup2\n        /* \"#utility.yul\":11109:11147   */\n      sub\n        /* \"#utility.yul\":11106:11190   */\n      tag_240\n      jumpi\n        /* \"#utility.yul\":11162:11180   */\n      tag_241\n      tag_111\n      jump\t// in\n    tag_241:\n        /* \"#utility.yul\":11106:11190   */\n    tag_240:\n        /* \"#utility.yul\":10927:11196   */\n      pop\n        /* \"#utility.yul\":10876:11196   */\n      swap2\n      swap1\n      pop\n      jump\t// out\n        /* \"#utility.yul\":11202:11343   */\n    tag_112:\n        /* \"#utility.yul\":11251:11255   */\n      0x00\n        /* \"#utility.yul\":11274:11277   */\n      dup2\n        /* \"#utility.yul\":11266:11277   */\n      swap1\n      pop\n        /* \"#utility.yul\":11297:11300   */\n      dup2\n        /* \"#utility.yul\":11294:11295   */\n      0x00\n        /* \"#utility.yul\":11287:11301   */\n      mstore\n        /* \"#utility.yul\":11331:11335   */\n      0x20\n        /* \"#utility.yul\":11328:11329   */\n      0x00\n        /* \"#utility.yul\":11318:11336   */\n      keccak256\n        /* \"#utility.yul\":11310:11336   */\n      swap1\n      pop\n        /* \"#utility.yul\":11202:11343   */\n      swap2\n      swap1\n      pop\n      jump\t// out\n        /* \"#utility.yul\":11349:11442   */\n    tag_113:\n        /* \"#utility.yul\":11386:11392   */\n      0x00\n        /* \"#utility.yul\":11433:11435   */\n      0x20\n        /* \"#utility.yul\":11428:11430   */\n      0x1f\n        /* \"#utility.yul\":11421:11426   */\n      dup4\n        /* \"#utility.yul\":11417:11431   */\n      add\n        /* \"#utility.yul\":11413:11436   */\n      div\n        /* \"#utility.yul\":11403:11436   */\n      swap1\n      pop\n        /* \"#utility.yul\":11349:11442   */\n      swap2\n      swap1\n      pop\n      jump\t// out\n        /* \"#utility.yul\":11448:11555   */\n    tag_114:\n        /* \"#utility.yul\":11492:11500   */\n      0x00\n        /* \"#utility.yul\":11542:11547   */\n      dup3\n        /* \"#utility.yul\":11536:11540   */\n      dup3\n        /* \"#utility.yul\":11532:11548   */\n      shl\n        /* \"#utility.yul\":11511:11548   */\n      swap1\n      pop\n        /* \"#utility.yul\":11448:11555   */\n      swap3\n      swap2\n      pop\n      pop\n      jump\t// out\n        /* \"#utility.yul\":11561:11954   */\n    tag_115:\n        /* \"#utility.yul\":11630:11636   */\n      0x00\n        /* \"#utility.yul\":11680:11681   */\n      0x08\n        /* \"#utility.yul\":11668:11678   */\n      dup4\n        /* \"#utility.yul\":11664:11682   */\n      mul\n        /* \"#utility.yul\":11703:11800   */\n      tag_246\n        /* \"#utility.yul\":11733:11799   */\n      0xffffffffffffffffffffffffffffffffffffffffffffffffffffffffffffffff\n        /* \"#utility.yul\":11722:11731   */\n      dup3\n        /* \"#utility.yul\":11703:11800   */\n      tag_114\n      jump\t// in\n    tag_246:\n        /* \"#utility.yul\":11821:11860   */\n      tag_247\n        /* \"#utility.yul\":11851:11859   */\n      dup7\n        /* \"#utility.yul\":11840:11849   */\n      dup4\n        /* \"#utility.yul\":11821:11860   */\n      tag_114\n      jump\t// in\n    tag_247:\n        /* \"#utility.yul\":11809:11860   */\n      swap6\n      pop\n        /* \"#utility.yul\":11893:11897   */\n      dup1\n        /* \"#utility.yul\":11889:11898   */\n      not\n        /* \"#utility.yul\":11882:11887   */\n      dup5\n        /* \"#utility.yul\":11878:11899   */\n      and\n        /* \"#utility.yul\":11869:11899   */\n      swap4\n      pop\n        /* \"#utility.yul\":11942:11946   */\n      dup1\n        /* \"#utility.yul\":11932:11940   */\n      dup7\n        /* \"#utility.yul\":11928:11947   */\n      and\n        /* \"#utility.yul\":11921:11926   */\n      dup5\n        /* \"#utility.yul\":11918:11948   */\n      or\n        /* \"#utility.yul\":11908:11948   */\n      swap3\n      pop\n        /* \"#utility.yul\":11637:11954   */\n      pop\n      pop\n        /* \"#utility.yul\":11561:11954   */\n      swap4\n      swap3\n      pop\n      pop\n      pop\n      jump\t// out\n        /* \"#utility.yul\":11960:12037   */\n    tag_116:\n        /* \"#utility.yul\":11997:12004   */\n      0x00\n        /* \"#utility.yul\":12026:12031   */\n      dup2\n        /* \"#utility.yul\":12015:12031   */\n      swap1\n      pop\n        /* \"#utility.yul\":11960:12037   */\n      swap2\n      swap1\n      pop\n      jump\t// out\n        /* \"#utility.yul\":12043:12103   */\n    tag_117:\n        /* \"#utility.yul\":12071:12074   */\n      0x00\n        /* \"#utility.yul\":12092:12097   */\n      dup2\n        /* \"#utility.yul\":12085:12097   */\n      swap1\n      pop\n        /* \"#utility.yul\":12043:12103   */\n      swap2\n      swap1\n      pop\n      jump\t// out\n        /* \"#utility.yul\":12109:12251   */\n    tag_118:\n        /* \"#utility.yul\":12159:12168   */\n      0x00\n        /* \"#utility.yul\":12192:12245   */\n      tag_251\n        /* \"#utility.yul\":12210:12244   */\n      tag_252\n        /* \"#utility.yul\":12219:12243   */\n      tag_253\n        /* \"#utility.yul\":12237:12242   */\n      dup5\n        /* \"#utility.yul\":12219:12243   */\n      tag_116\n      jump\t// in\n    tag_253:\n        /* \"#utility.yul\":12210:12244   */\n      tag_117\n      jump\t// in\n    tag_252:\n        /* \"#utility.yul\":12192:12245   */\n      tag_116\n      jump\t// in\n    tag_251:\n        /* \"#utility.yul\":12179:12245   */\n      swap1\n      pop\n        /* \"#utility.yul\":12109:12251   */\n      swap2\n      swap1\n      pop\n      jump\t// out\n        /* \"#utility.yul\":12257:12332   */\n    tag_119:\n        /* \"#utility.yul\":12300:12303   */\n      0x00\n        /* \"#utility.yul\":12321:12326   */\n      dup2\n        /* \"#utility.yul\":12314:12326   */\n      swap1\n      pop\n        /* \"#utility.yul\":12257:12332   */\n      swap2\n      swap1\n      pop\n      jump\t// out\n        /* \"#utility.yul\":12338:12607   */\n    tag_120:\n        /* \"#utility.yul\":12448:12487   */\n      tag_256\n        /* \"#utility.yul\":12479:12486   */\n      dup4\n        /* \"#utility.yul\":12448:12487   */\n      tag_118\n      jump\t// in\n    tag_256:\n        /* \"#utility.yul\":12509:12600   */\n      tag_257\n        /* \"#utility.yul\":12558:12599   */\n      tag_258\n        /* \"#utility.yul\":12582:12598   */\n      dup3\n        /* \"#utility.yul\":12558:12599   */\n      tag_119\n      jump\t// in\n    tag_258:\n        /* \"#utility.yul\":12550:12556   */\n      dup5\n        /* \"#utility.yul\":12543:12547   */\n      dup5\n        /* \"#utility.yul\":12537:12548   */\n      sload\n        /* \"#utility.yul\":12509:12600   */\n      tag_115\n      jump\t// in\n    tag_257:\n        /* \"#utility.yul\":12503:12507   */\n      dup3\n        /* \"#utility.yul\":12496:12601   */\n      sstore\n        /* \"#utility.yul\":12414:12607   */\n      pop\n        /* \"#utility.yul\":12338:12607   */\n      pop\n      pop\n      pop\n      jump\t// out\n        /* \"#utility.yul\":12613:12686   */\n    tag_121:\n        /* \"#utility.yul\":12658:12661   */\n      0x00\n        /* \"#utility.yul\":12613:12686   */\n      swap1\n      jump\t// out\n        /* \"#utility.yul\":12692:12881   */\n    tag_122:\n        /* \"#utility.yul\":12769:12801   */\n      tag_261\n      tag_121\n      jump\t// in\n    tag_261:\n        /* \"#utility.yul\":12810:12875   */\n      tag_262\n        /* \"#utility.yul\":12868:12874   */\n      dup2\n        /* \"#utility.yul\":12860:12866   */\n      dup5\n        /* \"#utility.yul\":12854:12858   */\n      dup5\n        /* \"#utility.yul\":12810:12875   */\n      tag_120\n      jump\t// in\n    tag_262:\n        /* \"#utility.yul\":12745:12881   */\n      pop\n        /* \"#utility.yul\":12692:12881   */\n      pop\n      pop\n      jump\t// out\n        /* \"#utility.yul\":12887:13073   */\n    tag_123:\n        /* \"#utility.yul\":12947:13067   */\n    tag_264:\n        /* \"#utility.yul\":12964:12967   */\n      dup2\n        /* \"#utility.yul\":12957:12962   */\n      dup2\n        /* \"#utility.yul\":12954:12968   */\n      lt\n        /* \"#utility.yul\":12947:13067   */\n      iszero\n      tag_266\n      jumpi\n        /* \"#utility.yul\":13018:13057   */\n      tag_267\n        /* \"#utility.yul\":13055:13056   */\n      0x00\n        /* \"#utility.yul\":13048:13053   */\n      dup3\n        /* \"#utility.yul\":13018:13057   */\n      tag_122\n      jump\t// in\n    tag_267:\n        /* \"#utility.yul\":12991:12992   */\n      0x01\n        /* \"#utility.yul\":12984:12989   */\n      dup2\n        /* \"#utility.yul\":12980:12993   */\n      add\n        /* \"#utility.yul\":12971:12993   */\n      swap1\n      pop\n        /* \"#utility.yul\":12947:13067   */\n      jump(tag_264)\n    tag_266:\n        /* \"#utility.yul\":12887:13073   */\n      pop\n      pop\n      jump\t// out\n        /* \"#utility.yul\":13079:13622   */\n    tag_124:\n        /* \"#utility.yul\":13180:13182   */\n      0x1f\n        /* \"#utility.yul\":13175:13178   */\n      dup3\n        /* \"#utility.yul\":13172:13183   */\n      gt\n        /* \"#utility.yul\":13169:13615   */\n      iszero\n      tag_269\n      jumpi\n        /* \"#utility.yul\":13214:13252   */\n      tag_270\n        /* \"#utility.yul\":13246:13251   */\n      dup2\n        /* \"#utility.yul\":13214:13252   */\n      tag_112\n      jump\t// in\n    tag_270:\n        /* \"#utility.yul\":13298:13327   */\n      tag_271\n        /* \"#utility.yul\":13316:13326   */\n      dup5\n        /* \"#utility.yul\":13298:13327   */\n      tag_113\n      jump\t// in\n    tag_271:\n        /* \"#utility.yul\":13288:13296   */\n      dup2\n        /* \"#utility.yul\":13284:13328   */\n      add\n        /* \"#utility.yul\":13481:13483   */\n      0x20\n        /* \"#utility.yul\":13469:13479   */\n      dup6\n        /* \"#utility.yul\":13466:13484   */\n      lt\n        /* \"#utility.yul\":13463:13512   */\n      iszero\n      tag_272\n      jumpi\n        /* \"#utility.yul\":13502:13510   */\n      dup2\n        /* \"#utility.yul\":13487:13510   */\n      swap1\n      pop\n        /* \"#utility.yul\":13463:13512   */\n    tag_272:\n        /* \"#utility.yul\":13525:13605   */\n      tag_273\n        /* \"#utility.yul\":13581:13603   */\n      tag_274\n        /* \"#utility.yul\":13599:13602   */\n      dup6\n        /* \"#utility.yul\":13581:13603   */\n      tag_113\n      jump\t// in\n    tag_274:\n        /* \"#utility.yul\":13571:13579   */\n      dup4\n        /* \"#utility.yul\":13567:13604   */\n      add\n        /* \"#utility.yul\":13554:13565   */\n      dup3\n        /* \"#utility.yul\":13525:13605   */\n      tag_123\n      jump\t// in\n    tag_273:\n        /* \"#utility.yul\":13184:13615   */\n      pop\n      pop\n        /* \"#utility.yul\":13169:13615   */\n    tag_269:\n        /* \"#utility.yul\":13079:13622   */\n      pop\n      pop\n      pop\n      jump\t// out\n        /* \"#utility.yul\":13628:13745   */\n    tag_125:\n        /* \"#utility.yul\":13682:13690   */\n      0x00\n        /* \"#utility.yul\":13732:13737   */\n      dup3\n        /* \"#utility.yul\":13726:13730   */\n      dup3\n        /* \"#utility.yul\":13722:13738   */\n      shr\n        /* \"#utility.yul\":13701:13738   */\n      swap1\n      pop\n        /* \"#utility.yul\":13628:13745   */\n      swap3\n      swap2\n      pop\n      pop\n      jump\t// out\n        /* \"#utility.yul\":13751:13920   */\n    tag_126:\n        /* \"#utility.yul\":13795:13801   */\n      0x00\n        /* \"#utility.yul\":13828:13879   */\n      tag_277\n        /* \"#utility.yul\":13876:13877   */\n      0x00\n        /* \"#utility.yul\":13872:13878   */\n      not\n        /* \"#utility.yul\":13864:13869   */\n      dup5\n        /* \"#utility.yul\":13861:13862   */\n      0x08\n        /* \"#utility.yul\":13857:13870   */\n      mul\n        /* \"#utility.yul\":13828:13879   */\n      tag_125\n      jump\t// in\n    tag_277:\n        /* \"#utility.yul\":13824:13880   */\n      not\n        /* \"#utility.yul\":13909:13913   */\n      dup1\n        /* \"#utility.yul\":13903:13907   */\n      dup4\n        /* \"#utility.yul\":13899:13914   */\n      and\n        /* \"#utility.yul\":13889:13914   */\n      swap2\n      pop\n        /* \"#utility.yul\":13802:13920   */\n      pop\n        /* \"#utility.yul\":13751:13920   */\n      swap3\n      swap2\n      pop\n      pop\n      jump\t// out\n        /* \"#utility.yul\":13925:14220   */\n    tag_127:\n        /* \"#utility.yul\":14001:14005   */\n      0x00\n        /* \"#utility.yul\":14147:14176   */\n      tag_279\n        /* \"#utility.yul\":14172:14175   */\n      dup4\n        /* \"#utility.yul\":14166:14170   */\n      dup4\n        /* \"#utility.yul\":14147:14176   */\n      tag_126\n      jump\t// in\n    tag_279:\n        /* \"#utility.yul\":14139:14176   */\n      swap2\n      pop\n        /* \"#utility.yul\":14209:14212   */\n      dup3\n        /* \"#utility.yul\":14206:14207   */\n      0x02\n        /* \"#utility.yul\":14202:14213   */\n      mul\n        /* \"#utility.yul\":14196:14200   */\n      dup3\n        /* \"#utility.yul\":14193:14214   */\n      or\n        /* \"#utility.yul\":14185:14214   */\n      swap1\n      pop\n        /* \"#utility.yul\":13925:14220   */\n      swap3\n      swap2\n      pop\n      pop\n      jump\t// out\n        /* \"#utility.yul\":14225:15620   */\n    tag_74:\n        /* \"#utility.yul\":14342:14379   */\n      tag_281\n        /* \"#utility.yul\":14375:14378   */\n      dup3\n        /* \"#utility.yul\":14342:14379   */\n      tag_103\n      jump\t// in\n    tag_281:\n        /* \"#utility.yul\":14444:14462   */\n      0xffffffffffffffff\n        /* \"#utility.yul\":14436:14442   */\n      dup2\n        /* \"#utility.yul\":14433:14463   */\n      gt\n        /* \"#utility.yul\":14430:14486   */\n      iszero\n      tag_282\n      jumpi\n        /* \"#utility.yul\":14466:14484   */\n      tag_283\n      tag_96\n      jump\t// in\n    tag_283:\n        /* \"#utility.yul\":14430:14486   */\n    tag_282:\n        /* \"#utility.yul\":14510:14548   */\n      tag_284\n        /* \"#utility.yul\":14542:14546   */\n      dup3\n        /* \"#utility.yul\":14536:14547   */\n      sload\n        /* \"#utility.yul\":14510:14548   */\n      tag_48\n      jump\t// in\n    tag_284:\n        /* \"#utility.yul\":14595:14662   */\n      tag_285\n        /* \"#utility.yul\":14655:14661   */\n      dup3\n        /* \"#utility.yul\":14647:14653   */\n      dup3\n        /* \"#utility.yul\":14641:14645   */\n      dup6\n        /* \"#utility.yul\":14595:14662   */\n      tag_124\n      jump\t// in\n    tag_285:\n        /* \"#utility.yul\":14689:14690   */\n      0x00\n        /* \"#utility.yul\":14713:14717   */\n      0x20\n        /* \"#utility.yul\":14700:14717   */\n      swap1\n      pop\n        /* \"#utility.yul\":14745:14747   */\n      0x1f\n        /* \"#utility.yul\":14737:14743   */\n      dup4\n        /* \"#utility.yul\":14734:14748   */\n      gt\n        /* \"#utility.yul\":14762:14763   */\n      0x01\n        /* \"#utility.yul\":14757:15375   */\n      dup2\n      eq\n      tag_287\n      jumpi\n        /* \"#utility.yul\":15419:15420   */\n      0x00\n        /* \"#utility.yul\":15436:15442   */\n      dup5\n        /* \"#utility.yul\":15433:15510   */\n      iszero\n      tag_288\n      jumpi\n        /* \"#utility.yul\":15485:15494   */\n      dup3\n        /* \"#utility.yul\":15480:15483   */\n      dup8\n        /* \"#utility.yul\":15476:15495   */\n      add\n        /* \"#utility.yul\":15470:15496   */\n      mload\n        /* \"#utility.yul\":15461:15496   */\n      swap1\n      pop\n        /* \"#utility.yul\":15433:15510   */\n    tag_288:\n        /* \"#utility.yul\":15536:15603   */\n      tag_289\n        /* \"#utility.yul\":15596:15602   */\n      dup6\n        /* \"#utility.yul\":15589:15594   */\n      dup3\n        /* \"#utility.yul\":15536:15603   */\n      tag_127\n      jump\t// in\n    tag_289:\n        /* \"#utility.yul\":15530:15534   */\n      dup7\n        /* \"#utility.yul\":15523:15604   */\n      sstore\n        /* \"#utility.yul\":15392:15614   */\n      pop\n        /* \"#utility.yul\":14727:15614   */\n      jump(tag_286)\n        /* \"#utility.yul\":14757:15375   */\n    tag_287:\n        /* \"#utility.yul\":14809:14813   */\n      0x1f\n        /* \"#utility.yul\":14805:14814   */\n      not\n        /* \"#utility.yul\":14797:14803   */\n      dup5\n        /* \"#utility.yul\":14793:14815   */\n      and\n        /* \"#utility.yul\":14843:14880   */\n      tag_290\n        /* \"#utility.yul\":14875:14879   */\n      dup7\n        /* \"#utility.yul\":14843:14880   */\n      tag_112\n      jump\t// in\n    tag_290:\n        /* \"#utility.yul\":14902:14903   */\n      0x00\n        /* \"#utility.yul\":14916:15124   */\n    tag_291:\n        /* \"#utility.yul\":14930:14937   */\n      dup3\n        /* \"#utility.yul\":14927:14928   */\n      dup2\n        /* \"#utility.yul\":14924:14938   */\n      lt\n        /* \"#utility.yul\":14916:15124   */\n      iszero\n      tag_293\n      jumpi\n        /* \"#utility.yul\":15009:15018   */\n      dup5\n        /* \"#utility.yul\":15004:15007   */\n      dup10\n        /* \"#utility.yul\":15000:15019   */\n      add\n        /* \"#utility.yul\":14994:15020   */\n      mload\n        /* \"#utility.yul\":14986:14992   */\n      dup3\n        /* \"#utility.yul\":14979:15021   */\n      sstore\n        /* \"#utility.yul\":15060:15061   */\n      0x01\n        /* \"#utility.yul\":15052:15058   */\n      dup3\n        /* \"#utility.yul\":15048:15062   */\n      add\n        /* \"#utility.yul\":15038:15062   */\n      swap2\n      pop\n        /* \"#utility.yul\":15107:15109   */\n      0x20\n        /* \"#utility.yul\":15096:15105   */\n      dup6\n        /* \"#utility.yul\":15092:15110   */\n      add\n        /* \"#utility.yul\":15079:15110   */\n      swap5\n      pop\n        /* \"#utility.yul\":14953:14957   */\n      0x20\n        /* \"#utility.yul\":14950:14951   */\n      dup2\n        /* \"#utility.yul\":14946:14958   */\n      add\n        /* \"#utility.yul\":14941:14958   */\n      swap1\n      pop\n        /* \"#utility.yul\":14916:15124   */\n      jump(tag_291)\n    tag_293:\n        /* \"#utility.yul\":15152:15158   */\n      dup7\n        /* \"#utility.yul\":15143:15150   */\n      dup4\n        /* \"#utility.yul\":15140:15159   */\n      lt\n        /* \"#utility.yul\":15137:15316   */\n      iszero\n      tag_294\n      jumpi\n        /* \"#utility.yul\":15210:15219   */\n      dup5\n        /* \"#utility.yul\":15205:15208   */\n      dup10\n        /* \"#utility.yul\":15201:15220   */\n      add\n        /* \"#utility.yul\":15195:15221   */\n      mload\n        /* \"#utility.yul\":15253:15301   */\n      tag_295\n        /* \"#utility.yul\":15295:15299   */\n      0x1f\n        /* \"#utility.yul\":15287:15293   */\n      dup10\n        /* \"#utility.yul\":15283:15300   */\n      and\n        /* \"#utility.yul\":15272:15281   */\n      dup3\n        /* \"#utility.yul\":15253:15301   */\n      tag_126\n      jump\t// in\n    tag_295:\n        /* \"#utility.yul\":15245:15251   */\n      dup4\n        /* \"#utility.yul\":15238:15302   */\n      sstore\n        /* \"#utility.yul\":15160:15316   */\n      pop\n        /* \"#utility.yul\":15137:15316   */\n    tag_294:\n        /* \"#utility.yul\":15362:15363   */\n      0x01\n        /* \"#utility.yul\":15358:15359   */\n      0x02\n        /* \"#utility.yul\":15350:15356   */\n      dup9\n        /* \"#utility.yul\":15346:15360   */\n      mul\n        /* \"#utility.yul\":15342:15364   */\n      add\n        /* \"#utility.yul\":15336:15340   */\n      dup9\n        /* \"#utility.yul\":15329:15365   */\n      sstore\n        /* \"#utility.yul\":14764:15375   */\n      pop\n      pop\n      pop\n        /* \"#utility.yul\":14727:15614   */\n    tag_286:\n      pop\n        /* \"#utility.yul\":14317:15620   */\n      pop\n      pop\n      pop\n        /* \"#utility.yul\":14225:15620   */\n      pop\n      pop\n      jump\t// out\n\n    auxdata: 0xa26469706673582212201f2878bd2083b6d93cf794af187776a336195916766f94e18b8d53cc9a456fbf64736f6c63430008120033\n}\n",
				"bytecode": {
					"linkReferences": {},
					"object": "608060405234801561001057600080fd5b5060018060003373ffffffffffffffffffffffffffffffffffffffff1673ffffffffffffffffffffffffffffffffffffffff16815260200190815260200160002060006101000a81548160ff02191690831515021790555061107c806100776000396000f3fe608060405234801561001057600080fd5b50600436106100625760003560e01c80631785f53c14610067578063429b62e51461008357806370480275146100b3578063712ca0f8146100cf578063865ff1d614610102578063edfa77d01461011e575b600080fd5b610081600480360381019061007c9190610828565b61013a565b005b61009d60048036038101906100989190610828565b610221565b6040516100aa9190610870565b60405180910390f35b6100cd60048036038101906100c89190610828565b610241565b005b6100e960048036038101906100e491906109d1565b610327565b6040516100f99493929190610a99565b60405180910390f35b61011c60048036038101906101179190610afa565b6105c5565b005b61013860048036038101906101339190610c01565b6106f2565b005b600160003373ffffffffffffffffffffffffffffffffffffffff1673ffffffffffffffffffffffffffffffffffffffff16815260200190815260200160002060009054906101000a900460ff166101c6576040517f08c379a00000000000000000000000000000000000000000000000000000000081526004016101bd90610ceb565b60405180910390fd5b6000600160008373ffffffffffffffffffffffffffffffffffffffff1673ffffffffffffffffffffffffffffffffffffffff16815260200190815260200160002060006101000a81548160ff02191690831515021790555050565b60016020528060005260406000206000915054906101000a900460ff1681565b600160003373ffffffffffffffffffffffffffffffffffffffff1673ffffffffffffffffffffffffffffffffffffffff16815260200190815260200160002060009054906101000a900460ff166102cd576040517f08c379a00000000000000000000000000000000000000000000000000000000081526004016102c490610ceb565b60405180910390fd5b60018060008373ffffffffffffffffffffffffffffffffffffffff1673ffffffffffffffffffffffffffffffffffffffff16815260200190815260200160002060006101000a81548160ff02191690831515021790555050565b6060806060806000808660405161033e9190610d47565b908152602001604051809103902060405180608001604052908160008201805461036790610d8d565b80601f016020809104026020016040519081016040528092919081815260200182805461039390610d8d565b80156103e05780601f106103b5576101008083540402835291602001916103e0565b820191906000526020600020905b8154815290600101906020018083116103c357829003601f168201915b505050505081526020016001820180546103f990610d8d565b80601f016020809104026020016040519081016040528092919081815260200182805461042590610d8d565b80156104725780601f1061044757610100808354040283529160200191610472565b820191906000526020600020905b81548152906001019060200180831161045557829003601f168201915b5050505050815260200160028201805461048b90610d8d565b80601f01602080910402602001604051908101604052809291908181526020018280546104b790610d8d565b80156105045780601f106104d957610100808354040283529160200191610504565b820191906000526020600020905b8154815290600101906020018083116104e757829003601f168201915b5050505050815260200160038201805461051d90610d8d565b80601f016020809104026020016040519081016040528092919081815260200182805461054990610d8d565b80156105965780601f1061056b57610100808354040283529160200191610596565b820191906000526020600020905b81548152906001019060200180831161057957829003601f168201915b505050505081525050905080600001518160200151826040015183606001519450945094509450509193509193565b600160003373ffffffffffffffffffffffffffffffffffffffff1673ffffffffffffffffffffffffffffffffffffffff16815260200190815260200160002060009054906101000a900460ff16610651576040517f08c379a000000000000000000000000000000000000000000000000000000000815260040161064890610ceb565b60405180910390fd5b6040518060800160405280858152602001848152602001838152602001828152506000866040516106829190610d47565b908152602001604051809103902060008201518160000190816106a59190610f74565b5060208201518160010190816106bb9190610f74565b5060408201518160020190816106d19190610f74565b5060608201518160030190816106e79190610f74565b509050505050505050565b600160003373ffffffffffffffffffffffffffffffffffffffff1673ffffffffffffffffffffffffffffffffffffffff16815260200190815260200160002060009054906101000a900460ff1661077e576040517f08c379a000000000000000000000000000000000000000000000000000000000815260040161077590610ceb565b60405180910390fd5b6000808360405161078f9190610d47565b90815260200160405180910390209050818160020190816107b09190610f74565b50505050565b6000604051905090565b600080fd5b600080fd5b600073ffffffffffffffffffffffffffffffffffffffff82169050919050565b60006107f5826107ca565b9050919050565b610805816107ea565b811461081057600080fd5b50565b600081359050610822816107fc565b92915050565b60006020828403121561083e5761083d6107c0565b5b600061084c84828501610813565b91505092915050565b60008115159050919050565b61086a81610855565b82525050565b60006020820190506108856000830184610861565b92915050565b600080fd5b600080fd5b6000601f19601f8301169050919050565b7f4e487b7100000000000000000000000000000000000000000000000000000000600052604160045260246000fd5b6108de82610895565b810181811067ffffffffffffffff821117156108fd576108fc6108a6565b5b80604052505050565b60006109106107b6565b905061091c82826108d5565b919050565b600067ffffffffffffffff82111561093c5761093b6108a6565b5b61094582610895565b9050602081019050919050565b82818337600083830152505050565b600061097461096f84610921565b610906565b9050828152602081018484840111156109905761098f610890565b5b61099b848285610952565b509392505050565b600082601f8301126109b8576109b761088b565b5b81356109c8848260208601610961565b91505092915050565b6000602082840312156109e7576109e66107c0565b5b600082013567ffffffffffffffff811115610a0557610a046107c5565b5b610a11848285016109a3565b91505092915050565b600081519050919050565b600082825260208201905092915050565b60005b83811015610a54578082015181840152602081019050610a39565b60008484015250505050565b6000610a6b82610a1a565b610a758185610a25565b9350610a85818560208601610a36565b610a8e81610895565b840191505092915050565b60006080820190508181036000830152610ab38187610a60565b90508181036020830152610ac78186610a60565b90508181036040830152610adb8185610a60565b90508181036060830152610aef8184610a60565b905095945050505050565b600080600080600060a08688031215610b1657610b156107c0565b5b600086013567ffffffffffffffff811115610b3457610b336107c5565b5b610b40888289016109a3565b955050602086013567ffffffffffffffff811115610b6157610b606107c5565b5b610b6d888289016109a3565b945050604086013567ffffffffffffffff811115610b8e57610b8d6107c5565b5b610b9a888289016109a3565b935050606086013567ffffffffffffffff811115610bbb57610bba6107c5565b5b610bc7888289016109a3565b925050608086013567ffffffffffffffff811115610be857610be76107c5565b5b610bf4888289016109a3565b9150509295509295909350565b60008060408385031215610c1857610c176107c0565b5b600083013567ffffffffffffffff811115610c3657610c356107c5565b5b610c42858286016109a3565b925050602083013567ffffffffffffffff811115610c6357610c626107c5565b5b610c6f858286016109a3565b9150509250929050565b7f4f6e6c7920616e2061646d696e2063616e2063616c6c20746869732066756e6360008201527f74696f6e2e000000000000000000000000000000000000000000000000000000602082015250565b6000610cd5602583610a25565b9150610ce082610c79565b604082019050919050565b60006020820190508181036000830152610d0481610cc8565b9050919050565b600081905092915050565b6000610d2182610a1a565b610d2b8185610d0b565b9350610d3b818560208601610a36565b80840191505092915050565b6000610d538284610d16565b915081905092915050565b7f4e487b7100000000000000000000000000000000000000000000000000000000600052602260045260246000fd5b60006002820490506001821680610da557607f821691505b602082108103610db857610db7610d5e565b5b50919050565b60008190508160005260206000209050919050565b60006020601f8301049050919050565b600082821b905092915050565b600060088302610e207fffffffffffffffffffffffffffffffffffffffffffffffffffffffffffffffff82610de3565b610e2a8683610de3565b95508019841693508086168417925050509392505050565b6000819050919050565b6000819050919050565b6000610e71610e6c610e6784610e42565b610e4c565b610e42565b9050919050565b6000819050919050565b610e8b83610e56565b610e9f610e9782610e78565b848454610df0565b825550505050565b600090565b610eb4610ea7565b610ebf818484610e82565b505050565b5b81811015610ee357610ed8600082610eac565b600181019050610ec5565b5050565b601f821115610f2857610ef981610dbe565b610f0284610dd3565b81016020851015610f11578190505b610f25610f1d85610dd3565b830182610ec4565b50505b505050565b600082821c905092915050565b6000610f4b60001984600802610f2d565b1980831691505092915050565b6000610f648383610f3a565b9150826002028217905092915050565b610f7d82610a1a565b67ffffffffffffffff811115610f9657610f956108a6565b5b610fa08254610d8d565b610fab828285610ee7565b600060209050601f831160018114610fde5760008415610fcc578287015190505b610fd68582610f58565b86555061103e565b601f198416610fec86610dbe565b60005b8281101561101457848901518255600182019150602085019450602081019050610fef565b86831015611031578489015161102d601f891682610f3a565b8355505b6001600288020188555050505b50505050505056fea26469706673582212201f2878bd2083b6d93cf794af187776a336195916766f94e18b8d53cc9a456fbf64736f6c63430008120033",
					"opcodes": "PUSH1 0x80 PUSH1 0x40 MSTORE CALLVALUE DUP1 ISZERO PUSH2 0x10 JUMPI PUSH1 0x0 DUP1 REVERT JUMPDEST POP PUSH1 0x1 DUP1 PUSH1 0x0 CALLER PUSH20 0xFFFFFFFFFFFFFFFFFFFFFFFFFFFFFFFFFFFFFFFF AND PUSH20 0xFFFFFFFFFFFFFFFFFFFFFFFFFFFFFFFFFFFFFFFF AND DUP2 MSTORE PUSH1 0x20 ADD SWAP1 DUP2 MSTORE PUSH1 0x20 ADD PUSH1 0x0 KECCAK256 PUSH1 0x0 PUSH2 0x100 EXP DUP2 SLOAD DUP2 PUSH1 0xFF MUL NOT AND SWAP1 DUP4 ISZERO ISZERO MUL OR SWAP1 SSTORE POP PUSH2 0x107C DUP1 PUSH2 0x77 PUSH1 0x0 CODECOPY PUSH1 0x0 RETURN INVALID PUSH1 0x80 PUSH1 0x40 MSTORE CALLVALUE DUP1 ISZERO PUSH2 0x10 JUMPI PUSH1 0x0 DUP1 REVERT JUMPDEST POP PUSH1 0x4 CALLDATASIZE LT PUSH2 0x62 JUMPI PUSH1 0x0 CALLDATALOAD PUSH1 0xE0 SHR DUP1 PUSH4 0x1785F53C EQ PUSH2 0x67 JUMPI DUP1 PUSH4 0x429B62E5 EQ PUSH2 0x83 JUMPI DUP1 PUSH4 0x70480275 EQ PUSH2 0xB3 JUMPI DUP1 PUSH4 0x712CA0F8 EQ PUSH2 0xCF JUMPI DUP1 PUSH4 0x865FF1D6 EQ PUSH2 0x102 JUMPI DUP1 PUSH4 0xEDFA77D0 EQ PUSH2 0x11E JUMPI JUMPDEST PUSH1 0x0 DUP1 REVERT JUMPDEST PUSH2 0x81 PUSH1 0x4 DUP1 CALLDATASIZE SUB DUP2 ADD SWAP1 PUSH2 0x7C SWAP2 SWAP1 PUSH2 0x828 JUMP JUMPDEST PUSH2 0x13A JUMP JUMPDEST STOP JUMPDEST PUSH2 0x9D PUSH1 0x4 DUP1 CALLDATASIZE SUB DUP2 ADD SWAP1 PUSH2 0x98 SWAP2 SWAP1 PUSH2 0x828 JUMP JUMPDEST PUSH2 0x221 JUMP JUMPDEST PUSH1 0x40 MLOAD PUSH2 0xAA SWAP2 SWAP1 PUSH2 0x870 JUMP JUMPDEST PUSH1 0x40 MLOAD DUP1 SWAP2 SUB SWAP1 RETURN JUMPDEST PUSH2 0xCD PUSH1 0x4 DUP1 CALLDATASIZE SUB DUP2 ADD SWAP1 PUSH2 0xC8 SWAP2 SWAP1 PUSH2 0x828 JUMP JUMPDEST PUSH2 0x241 JUMP JUMPDEST STOP JUMPDEST PUSH2 0xE9 PUSH1 0x4 DUP1 CALLDATASIZE SUB DUP2 ADD SWAP1 PUSH2 0xE4 SWAP2 SWAP1 PUSH2 0x9D1 JUMP JUMPDEST PUSH2 0x327 JUMP JUMPDEST PUSH1 0x40 MLOAD PUSH2 0xF9 SWAP5 SWAP4 SWAP3 SWAP2 SWAP1 PUSH2 0xA99 JUMP JUMPDEST PUSH1 0x40 MLOAD DUP1 SWAP2 SUB SWAP1 RETURN JUMPDEST PUSH2 0x11C PUSH1 0x4 DUP1 CALLDATASIZE SUB DUP2 ADD SWAP1 PUSH2 0x117 SWAP2 SWAP1 PUSH2 0xAFA JUMP JUMPDEST PUSH2 0x5C5 JUMP JUMPDEST STOP JUMPDEST PUSH2 0x138 PUSH1 0x4 DUP1 CALLDATASIZE SUB DUP2 ADD SWAP1 PUSH2 0x133 SWAP2 SWAP1 PUSH2 0xC01 JUMP JUMPDEST PUSH2 0x6F2 JUMP JUMPDEST STOP JUMPDEST PUSH1 0x1 PUSH1 0x0 CALLER PUSH20 0xFFFFFFFFFFFFFFFFFFFFFFFFFFFFFFFFFFFFFFFF AND PUSH20 0xFFFFFFFFFFFFFFFFFFFFFFFFFFFFFFFFFFFFFFFF AND DUP2 MSTORE PUSH1 0x20 ADD SWAP1 DUP2 MSTORE PUSH1 0x20 ADD PUSH1 0x0 KECCAK256 PUSH1 0x0 SWAP1 SLOAD SWAP1 PUSH2 0x100 EXP SWAP1 DIV PUSH1 0xFF AND PUSH2 0x1C6 JUMPI PUSH1 0x40 MLOAD PUSH32 0x8C379A000000000000000000000000000000000000000000000000000000000 DUP2 MSTORE PUSH1 0x4 ADD PUSH2 0x1BD SWAP1 PUSH2 0xCEB JUMP JUMPDEST PUSH1 0x40 MLOAD DUP1 SWAP2 SUB SWAP1 REVERT JUMPDEST PUSH1 0x0 PUSH1 0x1 PUSH1 0x0 DUP4 PUSH20 0xFFFFFFFFFFFFFFFFFFFFFFFFFFFFFFFFFFFFFFFF AND PUSH20 0xFFFFFFFFFFFFFFFFFFFFFFFFFFFFFFFFFFFFFFFF AND DUP2 MSTORE PUSH1 0x20 ADD SWAP1 DUP2 MSTORE PUSH1 0x20 ADD PUSH1 0x0 KECCAK256 PUSH1 0x0 PUSH2 0x100 EXP DUP2 SLOAD DUP2 PUSH1 0xFF MUL NOT AND SWAP1 DUP4 ISZERO ISZERO MUL OR SWAP1 SSTORE POP POP JUMP JUMPDEST PUSH1 0x1 PUSH1 0x20 MSTORE DUP1 PUSH1 0x0 MSTORE PUSH1 0x40 PUSH1 0x0 KECCAK256 PUSH1 0x0 SWAP2 POP SLOAD SWAP1 PUSH2 0x100 EXP SWAP1 DIV PUSH1 0xFF AND DUP2 JUMP JUMPDEST PUSH1 0x1 PUSH1 0x0 CALLER PUSH20 0xFFFFFFFFFFFFFFFFFFFFFFFFFFFFFFFFFFFFFFFF AND PUSH20 0xFFFFFFFFFFFFFFFFFFFFFFFFFFFFFFFFFFFFFFFF AND DUP2 MSTORE PUSH1 0x20 ADD SWAP1 DUP2 MSTORE PUSH1 0x20 ADD PUSH1 0x0 KECCAK256 PUSH1 0x0 SWAP1 SLOAD SWAP1 PUSH2 0x100 EXP SWAP1 DIV PUSH1 0xFF AND PUSH2 0x2CD JUMPI PUSH1 0x40 MLOAD PUSH32 0x8C379A000000000000000000000000000000000000000000000000000000000 DUP2 MSTORE PUSH1 0x4 ADD PUSH2 0x2C4 SWAP1 PUSH2 0xCEB JUMP JUMPDEST PUSH1 0x40 MLOAD DUP1 SWAP2 SUB SWAP1 REVERT JUMPDEST PUSH1 0x1 DUP1 PUSH1 0x0 DUP4 PUSH20 0xFFFFFFFFFFFFFFFFFFFFFFFFFFFFFFFFFFFFFFFF AND PUSH20 0xFFFFFFFFFFFFFFFFFFFFFFFFFFFFFFFFFFFFFFFF AND DUP2 MSTORE PUSH1 0x20 ADD SWAP1 DUP2 MSTORE PUSH1 0x20 ADD PUSH1 0x0 KECCAK256 PUSH1 0x0 PUSH2 0x100 EXP DUP2 SLOAD DUP2 PUSH1 0xFF MUL NOT AND SWAP1 DUP4 ISZERO ISZERO MUL OR SWAP1 SSTORE POP POP JUMP JUMPDEST PUSH1 0x60 DUP1 PUSH1 0x60 DUP1 PUSH1 0x0 DUP1 DUP7 PUSH1 0x40 MLOAD PUSH2 0x33E SWAP2 SWAP1 PUSH2 0xD47 JUMP JUMPDEST SWAP1 DUP2 MSTORE PUSH1 0x20 ADD PUSH1 0x40 MLOAD DUP1 SWAP2 SUB SWAP1 KECCAK256 PUSH1 0x40 MLOAD DUP1 PUSH1 0x80 ADD PUSH1 0x40 MSTORE SWAP1 DUP2 PUSH1 0x0 DUP3 ADD DUP1 SLOAD PUSH2 0x367 SWAP1 PUSH2 0xD8D JUMP JUMPDEST DUP1 PUSH1 0x1F ADD PUSH1 0x20 DUP1 SWAP2 DIV MUL PUSH1 0x20 ADD PUSH1 0x40 MLOAD SWAP1 DUP2 ADD PUSH1 0x40 MSTORE DUP1 SWAP3 SWAP2 SWAP1 DUP2 DUP2 MSTORE PUSH1 0x20 ADD DUP3 DUP1 SLOAD PUSH2 0x393 SWAP1 PUSH2 0xD8D JUMP JUMPDEST DUP1 ISZERO PUSH2 0x3E0 JUMPI DUP1 PUSH1 0x1F LT PUSH2 0x3B5 JUMPI PUSH2 0x100 DUP1 DUP4 SLOAD DIV MUL DUP4 MSTORE SWAP2 PUSH1 0x20 ADD SWAP2 PUSH2 0x3E0 JUMP JUMPDEST DUP3 ADD SWAP2 SWAP1 PUSH1 0x0 MSTORE PUSH1 0x20 PUSH1 0x0 KECCAK256 SWAP1 JUMPDEST DUP2 SLOAD DUP2 MSTORE SWAP1 PUSH1 0x1 ADD SWAP1 PUSH1 0x20 ADD DUP1 DUP4 GT PUSH2 0x3C3 JUMPI DUP3 SWAP1 SUB PUSH1 0x1F AND DUP3 ADD SWAP2 JUMPDEST POP POP POP POP POP DUP2 MSTORE PUSH1 0x20 ADD PUSH1 0x1 DUP3 ADD DUP1 SLOAD PUSH2 0x3F9 SWAP1 PUSH2 0xD8D JUMP JUMPDEST DUP1 PUSH1 0x1F ADD PUSH1 0x20 DUP1 SWAP2 DIV MUL PUSH1 0x20 ADD PUSH1 0x40 MLOAD SWAP1 DUP2 ADD PUSH1 0x40 MSTORE DUP1 SWAP3 SWAP2 SWAP1 DUP2 DUP2 MSTORE PUSH1 0x20 ADD DUP3 DUP1 SLOAD PUSH2 0x425 SWAP1 PUSH2 0xD8D JUMP JUMPDEST DUP1 ISZERO PUSH2 0x472 JUMPI DUP1 PUSH1 0x1F LT PUSH2 0x447 JUMPI PUSH2 0x100 DUP1 DUP4 SLOAD DIV MUL DUP4 MSTORE SWAP2 PUSH1 0x20 ADD SWAP2 PUSH2 0x472 JUMP JUMPDEST DUP3 ADD SWAP2 SWAP1 PUSH1 0x0 MSTORE PUSH1 0x20 PUSH1 0x0 KECCAK256 SWAP1 JUMPDEST DUP2 SLOAD DUP2 MSTORE SWAP1 PUSH1 0x1 ADD SWAP1 PUSH1 0x20 ADD DUP1 DUP4 GT PUSH2 0x455 JUMPI DUP3 SWAP1 SUB PUSH1 0x1F AND DUP3 ADD SWAP2 JUMPDEST POP POP POP POP POP DUP2 MSTORE PUSH1 0x20 ADD PUSH1 0x2 DUP3 ADD DUP1 SLOAD PUSH2 0x48B SWAP1 PUSH2 0xD8D JUMP JUMPDEST DUP1 PUSH1 0x1F ADD PUSH1 0x20 DUP1 SWAP2 DIV MUL PUSH1 0x20 ADD PUSH1 0x40 MLOAD SWAP1 DUP2 ADD PUSH1 0x40 MSTORE DUP1 SWAP3 SWAP2 SWAP1 DUP2 DUP2 MSTORE PUSH1 0x20 ADD DUP3 DUP1 SLOAD PUSH2 0x4B7 SWAP1 PUSH2 0xD8D JUMP JUMPDEST DUP1 ISZERO PUSH2 0x504 JUMPI DUP1 PUSH1 0x1F LT PUSH2 0x4D9 JUMPI PUSH2 0x100 DUP1 DUP4 SLOAD DIV MUL DUP4 MSTORE SWAP2 PUSH1 0x20 ADD SWAP2 PUSH2 0x504 JUMP JUMPDEST DUP3 ADD SWAP2 SWAP1 PUSH1 0x0 MSTORE PUSH1 0x20 PUSH1 0x0 KECCAK256 SWAP1 JUMPDEST DUP2 SLOAD DUP2 MSTORE SWAP1 PUSH1 0x1 ADD SWAP1 PUSH1 0x20 ADD DUP1 DUP4 GT PUSH2 0x4E7 JUMPI DUP3 SWAP1 SUB PUSH1 0x1F AND DUP3 ADD SWAP2 JUMPDEST POP POP POP POP POP DUP2 MSTORE PUSH1 0x20 ADD PUSH1 0x3 DUP3 ADD DUP1 SLOAD PUSH2 0x51D SWAP1 PUSH2 0xD8D JUMP JUMPDEST DUP1 PUSH1 0x1F ADD PUSH1 0x20 DUP1 SWAP2 DIV MUL PUSH1 0x20 ADD PUSH1 0x40 MLOAD SWAP1 DUP2 ADD PUSH1 0x40 MSTORE DUP1 SWAP3 SWAP2 SWAP1 DUP2 DUP2 MSTORE PUSH1 0x20 ADD DUP3 DUP1 SLOAD PUSH2 0x549 SWAP1 PUSH2 0xD8D JUMP JUMPDEST DUP1 ISZERO PUSH2 0x596 JUMPI DUP1 PUSH1 0x1F LT PUSH2 0x56B JUMPI PUSH2 0x100 DUP1 DUP4 SLOAD DIV MUL DUP4 MSTORE SWAP2 PUSH1 0x20 ADD SWAP2 PUSH2 0x596 JUMP JUMPDEST DUP3 ADD SWAP2 SWAP1 PUSH1 0x0 MSTORE PUSH1 0x20 PUSH1 0x0 KECCAK256 SWAP1 JUMPDEST DUP2 SLOAD DUP2 MSTORE SWAP1 PUSH1 0x1 ADD SWAP1 PUSH1 0x20 ADD DUP1 DUP4 GT PUSH2 0x579 JUMPI DUP3 SWAP1 SUB PUSH1 0x1F AND DUP3 ADD SWAP2 JUMPDEST POP POP POP POP POP DUP2 MSTORE POP POP SWAP1 POP DUP1 PUSH1 0x0 ADD MLOAD DUP2 PUSH1 0x20 ADD MLOAD DUP3 PUSH1 0x40 ADD MLOAD DUP4 PUSH1 0x60 ADD MLOAD SWAP5 POP SWAP5 POP SWAP5 POP SWAP5 POP POP SWAP2 SWAP4 POP SWAP2 SWAP4 JUMP JUMPDEST PUSH1 0x1 PUSH1 0x0 CALLER PUSH20 0xFFFFFFFFFFFFFFFFFFFFFFFFFFFFFFFFFFFFFFFF AND PUSH20 0xFFFFFFFFFFFFFFFFFFFFFFFFFFFFFFFFFFFFFFFF AND DUP2 MSTORE PUSH1 0x20 ADD SWAP1 DUP2 MSTORE PUSH1 0x20 ADD PUSH1 0x0 KECCAK256 PUSH1 0x0 SWAP1 SLOAD SWAP1 PUSH2 0x100 EXP SWAP1 DIV PUSH1 0xFF AND PUSH2 0x651 JUMPI PUSH1 0x40 MLOAD PUSH32 0x8C379A000000000000000000000000000000000000000000000000000000000 DUP2 MSTORE PUSH1 0x4 ADD PUSH2 0x648 SWAP1 PUSH2 0xCEB JUMP JUMPDEST PUSH1 0x40 MLOAD DUP1 SWAP2 SUB SWAP1 REVERT JUMPDEST PUSH1 0x40 MLOAD DUP1 PUSH1 0x80 ADD PUSH1 0x40 MSTORE DUP1 DUP6 DUP2 MSTORE PUSH1 0x20 ADD DUP5 DUP2 MSTORE PUSH1 0x20 ADD DUP4 DUP2 MSTORE PUSH1 0x20 ADD DUP3 DUP2 MSTORE POP PUSH1 0x0 DUP7 PUSH1 0x40 MLOAD PUSH2 0x682 SWAP2 SWAP1 PUSH2 0xD47 JUMP JUMPDEST SWAP1 DUP2 MSTORE PUSH1 0x20 ADD PUSH1 0x40 MLOAD DUP1 SWAP2 SUB SWAP1 KECCAK256 PUSH1 0x0 DUP3 ADD MLOAD DUP2 PUSH1 0x0 ADD SWAP1 DUP2 PUSH2 0x6A5 SWAP2 SWAP1 PUSH2 0xF74 JUMP JUMPDEST POP PUSH1 0x20 DUP3 ADD MLOAD DUP2 PUSH1 0x1 ADD SWAP1 DUP2 PUSH2 0x6BB SWAP2 SWAP1 PUSH2 0xF74 JUMP JUMPDEST POP PUSH1 0x40 DUP3 ADD MLOAD DUP2 PUSH1 0x2 ADD SWAP1 DUP2 PUSH2 0x6D1 SWAP2 SWAP1 PUSH2 0xF74 JUMP JUMPDEST POP PUSH1 0x60 DUP3 ADD MLOAD DUP2 PUSH1 0x3 ADD SWAP1 DUP2 PUSH2 0x6E7 SWAP2 SWAP1 PUSH2 0xF74 JUMP JUMPDEST POP SWAP1 POP POP POP POP POP POP POP JUMP JUMPDEST PUSH1 0x1 PUSH1 0x0 CALLER PUSH20 0xFFFFFFFFFFFFFFFFFFFFFFFFFFFFFFFFFFFFFFFF AND PUSH20 0xFFFFFFFFFFFFFFFFFFFFFFFFFFFFFFFFFFFFFFFF AND DUP2 MSTORE PUSH1 0x20 ADD SWAP1 DUP2 MSTORE PUSH1 0x20 ADD PUSH1 0x0 KECCAK256 PUSH1 0x0 SWAP1 SLOAD SWAP1 PUSH2 0x100 EXP SWAP1 DIV PUSH1 0xFF AND PUSH2 0x77E JUMPI PUSH1 0x40 MLOAD PUSH32 0x8C379A000000000000000000000000000000000000000000000000000000000 DUP2 MSTORE PUSH1 0x4 ADD PUSH2 0x775 SWAP1 PUSH2 0xCEB JUMP JUMPDEST PUSH1 0x40 MLOAD DUP1 SWAP2 SUB SWAP1 REVERT JUMPDEST PUSH1 0x0 DUP1 DUP4 PUSH1 0x40 MLOAD PUSH2 0x78F SWAP2 SWAP1 PUSH2 0xD47 JUMP JUMPDEST SWAP1 DUP2 MSTORE PUSH1 0x20 ADD PUSH1 0x40 MLOAD DUP1 SWAP2 SUB SWAP1 KECCAK256 SWAP1 POP DUP2 DUP2 PUSH1 0x2 ADD SWAP1 DUP2 PUSH2 0x7B0 SWAP2 SWAP1 PUSH2 0xF74 JUMP JUMPDEST POP POP POP POP JUMP JUMPDEST PUSH1 0x0 PUSH1 0x40 MLOAD SWAP1 POP SWAP1 JUMP JUMPDEST PUSH1 0x0 DUP1 REVERT JUMPDEST PUSH1 0x0 DUP1 REVERT JUMPDEST PUSH1 0x0 PUSH20 0xFFFFFFFFFFFFFFFFFFFFFFFFFFFFFFFFFFFFFFFF DUP3 AND SWAP1 POP SWAP2 SWAP1 POP JUMP JUMPDEST PUSH1 0x0 PUSH2 0x7F5 DUP3 PUSH2 0x7CA JUMP JUMPDEST SWAP1 POP SWAP2 SWAP1 POP JUMP JUMPDEST PUSH2 0x805 DUP2 PUSH2 0x7EA JUMP JUMPDEST DUP2 EQ PUSH2 0x810 JUMPI PUSH1 0x0 DUP1 REVERT JUMPDEST POP JUMP JUMPDEST PUSH1 0x0 DUP2 CALLDATALOAD SWAP1 POP PUSH2 0x822 DUP2 PUSH2 0x7FC JUMP JUMPDEST SWAP3 SWAP2 POP POP JUMP JUMPDEST PUSH1 0x0 PUSH1 0x20 DUP3 DUP5 SUB SLT ISZERO PUSH2 0x83E JUMPI PUSH2 0x83D PUSH2 0x7C0 JUMP JUMPDEST JUMPDEST PUSH1 0x0 PUSH2 0x84C DUP5 DUP3 DUP6 ADD PUSH2 0x813 JUMP JUMPDEST SWAP2 POP POP SWAP3 SWAP2 POP POP JUMP JUMPDEST PUSH1 0x0 DUP2 ISZERO ISZERO SWAP1 POP SWAP2 SWAP1 POP JUMP JUMPDEST PUSH2 0x86A DUP2 PUSH2 0x855 JUMP JUMPDEST DUP3 MSTORE POP POP JUMP JUMPDEST PUSH1 0x0 PUSH1 0x20 DUP3 ADD SWAP1 POP PUSH2 0x885 PUSH1 0x0 DUP4 ADD DUP5 PUSH2 0x861 JUMP JUMPDEST SWAP3 SWAP2 POP POP JUMP JUMPDEST PUSH1 0x0 DUP1 REVERT JUMPDEST PUSH1 0x0 DUP1 REVERT JUMPDEST PUSH1 0x0 PUSH1 0x1F NOT PUSH1 0x1F DUP4 ADD AND SWAP1 POP SWAP2 SWAP1 POP JUMP JUMPDEST PUSH32 0x4E487B7100000000000000000000000000000000000000000000000000000000 PUSH1 0x0 MSTORE PUSH1 0x41 PUSH1 0x4 MSTORE PUSH1 0x24 PUSH1 0x0 REVERT JUMPDEST PUSH2 0x8DE DUP3 PUSH2 0x895 JUMP JUMPDEST DUP2 ADD DUP2 DUP2 LT PUSH8 0xFFFFFFFFFFFFFFFF DUP3 GT OR ISZERO PUSH2 0x8FD JUMPI PUSH2 0x8FC PUSH2 0x8A6 JUMP JUMPDEST JUMPDEST DUP1 PUSH1 0x40 MSTORE POP POP POP JUMP JUMPDEST PUSH1 0x0 PUSH2 0x910 PUSH2 0x7B6 JUMP JUMPDEST SWAP1 POP PUSH2 0x91C DUP3 DUP3 PUSH2 0x8D5 JUMP JUMPDEST SWAP2 SWAP1 POP JUMP JUMPDEST PUSH1 0x0 PUSH8 0xFFFFFFFFFFFFFFFF DUP3 GT ISZERO PUSH2 0x93C JUMPI PUSH2 0x93B PUSH2 0x8A6 JUMP JUMPDEST JUMPDEST PUSH2 0x945 DUP3 PUSH2 0x895 JUMP JUMPDEST SWAP1 POP PUSH1 0x20 DUP2 ADD SWAP1 POP SWAP2 SWAP1 POP JUMP JUMPDEST DUP3 DUP2 DUP4 CALLDATACOPY PUSH1 0x0 DUP4 DUP4 ADD MSTORE POP POP POP JUMP JUMPDEST PUSH1 0x0 PUSH2 0x974 PUSH2 0x96F DUP5 PUSH2 0x921 JUMP JUMPDEST PUSH2 0x906 JUMP JUMPDEST SWAP1 POP DUP3 DUP2 MSTORE PUSH1 0x20 DUP2 ADD DUP5 DUP5 DUP5 ADD GT ISZERO PUSH2 0x990 JUMPI PUSH2 0x98F PUSH2 0x890 JUMP JUMPDEST JUMPDEST PUSH2 0x99B DUP5 DUP3 DUP6 PUSH2 0x952 JUMP JUMPDEST POP SWAP4 SWAP3 POP POP POP JUMP JUMPDEST PUSH1 0x0 DUP3 PUSH1 0x1F DUP4 ADD SLT PUSH2 0x9B8 JUMPI PUSH2 0x9B7 PUSH2 0x88B JUMP JUMPDEST JUMPDEST DUP2 CALLDATALOAD PUSH2 0x9C8 DUP5 DUP3 PUSH1 0x20 DUP7 ADD PUSH2 0x961 JUMP JUMPDEST SWAP2 POP POP SWAP3 SWAP2 POP POP JUMP JUMPDEST PUSH1 0x0 PUSH1 0x20 DUP3 DUP5 SUB SLT ISZERO PUSH2 0x9E7 JUMPI PUSH2 0x9E6 PUSH2 0x7C0 JUMP JUMPDEST JUMPDEST PUSH1 0x0 DUP3 ADD CALLDATALOAD PUSH8 0xFFFFFFFFFFFFFFFF DUP2 GT ISZERO PUSH2 0xA05 JUMPI PUSH2 0xA04 PUSH2 0x7C5 JUMP JUMPDEST JUMPDEST PUSH2 0xA11 DUP5 DUP3 DUP6 ADD PUSH2 0x9A3 JUMP JUMPDEST SWAP2 POP POP SWAP3 SWAP2 POP POP JUMP JUMPDEST PUSH1 0x0 DUP2 MLOAD SWAP1 POP SWAP2 SWAP1 POP JUMP JUMPDEST PUSH1 0x0 DUP3 DUP3 MSTORE PUSH1 0x20 DUP3 ADD SWAP1 POP SWAP3 SWAP2 POP POP JUMP JUMPDEST PUSH1 0x0 JUMPDEST DUP4 DUP2 LT ISZERO PUSH2 0xA54 JUMPI DUP1 DUP3 ADD MLOAD DUP2 DUP5 ADD MSTORE PUSH1 0x20 DUP2 ADD SWAP1 POP PUSH2 0xA39 JUMP JUMPDEST PUSH1 0x0 DUP5 DUP5 ADD MSTORE POP POP POP POP JUMP JUMPDEST PUSH1 0x0 PUSH2 0xA6B DUP3 PUSH2 0xA1A JUMP JUMPDEST PUSH2 0xA75 DUP2 DUP6 PUSH2 0xA25 JUMP JUMPDEST SWAP4 POP PUSH2 0xA85 DUP2 DUP6 PUSH1 0x20 DUP7 ADD PUSH2 0xA36 JUMP JUMPDEST PUSH2 0xA8E DUP2 PUSH2 0x895 JUMP JUMPDEST DUP5 ADD SWAP2 POP POP SWAP3 SWAP2 POP POP JUMP JUMPDEST PUSH1 0x0 PUSH1 0x80 DUP3 ADD SWAP1 POP DUP2 DUP2 SUB PUSH1 0x0 DUP4 ADD MSTORE PUSH2 0xAB3 DUP2 DUP8 PUSH2 0xA60 JUMP JUMPDEST SWAP1 POP DUP2 DUP2 SUB PUSH1 0x20 DUP4 ADD MSTORE PUSH2 0xAC7 DUP2 DUP7 PUSH2 0xA60 JUMP JUMPDEST SWAP1 POP DUP2 DUP2 SUB PUSH1 0x40 DUP4 ADD MSTORE PUSH2 0xADB DUP2 DUP6 PUSH2 0xA60 JUMP JUMPDEST SWAP1 POP DUP2 DUP2 SUB PUSH1 0x60 DUP4 ADD MSTORE PUSH2 0xAEF DUP2 DUP5 PUSH2 0xA60 JUMP JUMPDEST SWAP1 POP SWAP6 SWAP5 POP POP POP POP POP JUMP JUMPDEST PUSH1 0x0 DUP1 PUSH1 0x0 DUP1 PUSH1 0x0 PUSH1 0xA0 DUP7 DUP9 SUB SLT ISZERO PUSH2 0xB16 JUMPI PUSH2 0xB15 PUSH2 0x7C0 JUMP JUMPDEST JUMPDEST PUSH1 0x0 DUP7 ADD CALLDATALOAD PUSH8 0xFFFFFFFFFFFFFFFF DUP2 GT ISZERO PUSH2 0xB34 JUMPI PUSH2 0xB33 PUSH2 0x7C5 JUMP JUMPDEST JUMPDEST PUSH2 0xB40 DUP9 DUP3 DUP10 ADD PUSH2 0x9A3 JUMP JUMPDEST SWAP6 POP POP PUSH1 0x20 DUP7 ADD CALLDATALOAD PUSH8 0xFFFFFFFFFFFFFFFF DUP2 GT ISZERO PUSH2 0xB61 JUMPI PUSH2 0xB60 PUSH2 0x7C5 JUMP JUMPDEST JUMPDEST PUSH2 0xB6D DUP9 DUP3 DUP10 ADD PUSH2 0x9A3 JUMP JUMPDEST SWAP5 POP POP PUSH1 0x40 DUP7 ADD CALLDATALOAD PUSH8 0xFFFFFFFFFFFFFFFF DUP2 GT ISZERO PUSH2 0xB8E JUMPI PUSH2 0xB8D PUSH2 0x7C5 JUMP JUMPDEST JUMPDEST PUSH2 0xB9A DUP9 DUP3 DUP10 ADD PUSH2 0x9A3 JUMP JUMPDEST SWAP4 POP POP PUSH1 0x60 DUP7 ADD CALLDATALOAD PUSH8 0xFFFFFFFFFFFFFFFF DUP2 GT ISZERO PUSH2 0xBBB JUMPI PUSH2 0xBBA PUSH2 0x7C5 JUMP JUMPDEST JUMPDEST PUSH2 0xBC7 DUP9 DUP3 DUP10 ADD PUSH2 0x9A3 JUMP JUMPDEST SWAP3 POP POP PUSH1 0x80 DUP7 ADD CALLDATALOAD PUSH8 0xFFFFFFFFFFFFFFFF DUP2 GT ISZERO PUSH2 0xBE8 JUMPI PUSH2 0xBE7 PUSH2 0x7C5 JUMP JUMPDEST JUMPDEST PUSH2 0xBF4 DUP9 DUP3 DUP10 ADD PUSH2 0x9A3 JUMP JUMPDEST SWAP2 POP POP SWAP3 SWAP6 POP SWAP3 SWAP6 SWAP1 SWAP4 POP JUMP JUMPDEST PUSH1 0x0 DUP1 PUSH1 0x40 DUP4 DUP6 SUB SLT ISZERO PUSH2 0xC18 JUMPI PUSH2 0xC17 PUSH2 0x7C0 JUMP JUMPDEST JUMPDEST PUSH1 0x0 DUP4 ADD CALLDATALOAD PUSH8 0xFFFFFFFFFFFFFFFF DUP2 GT ISZERO PUSH2 0xC36 JUMPI PUSH2 0xC35 PUSH2 0x7C5 JUMP JUMPDEST JUMPDEST PUSH2 0xC42 DUP6 DUP3 DUP7 ADD PUSH2 0x9A3 JUMP JUMPDEST SWAP3 POP POP PUSH1 0x20 DUP4 ADD CALLDATALOAD PUSH8 0xFFFFFFFFFFFFFFFF DUP2 GT ISZERO PUSH2 0xC63 JUMPI PUSH2 0xC62 PUSH2 0x7C5 JUMP JUMPDEST JUMPDEST PUSH2 0xC6F DUP6 DUP3 DUP7 ADD PUSH2 0x9A3 JUMP JUMPDEST SWAP2 POP POP SWAP3 POP SWAP3 SWAP1 POP JUMP JUMPDEST PUSH32 0x4F6E6C7920616E2061646D696E2063616E2063616C6C20746869732066756E63 PUSH1 0x0 DUP3 ADD MSTORE PUSH32 0x74696F6E2E000000000000000000000000000000000000000000000000000000 PUSH1 0x20 DUP3 ADD MSTORE POP JUMP JUMPDEST PUSH1 0x0 PUSH2 0xCD5 PUSH1 0x25 DUP4 PUSH2 0xA25 JUMP JUMPDEST SWAP2 POP PUSH2 0xCE0 DUP3 PUSH2 0xC79 JUMP JUMPDEST PUSH1 0x40 DUP3 ADD SWAP1 POP SWAP2 SWAP1 POP JUMP JUMPDEST PUSH1 0x0 PUSH1 0x20 DUP3 ADD SWAP1 POP DUP2 DUP2 SUB PUSH1 0x0 DUP4 ADD MSTORE PUSH2 0xD04 DUP2 PUSH2 0xCC8 JUMP JUMPDEST SWAP1 POP SWAP2 SWAP1 POP JUMP JUMPDEST PUSH1 0x0 DUP2 SWAP1 POP SWAP3 SWAP2 POP POP JUMP JUMPDEST PUSH1 0x0 PUSH2 0xD21 DUP3 PUSH2 0xA1A JUMP JUMPDEST PUSH2 0xD2B DUP2 DUP6 PUSH2 0xD0B JUMP JUMPDEST SWAP4 POP PUSH2 0xD3B DUP2 DUP6 PUSH1 0x20 DUP7 ADD PUSH2 0xA36 JUMP JUMPDEST DUP1 DUP5 ADD SWAP2 POP POP SWAP3 SWAP2 POP POP JUMP JUMPDEST PUSH1 0x0 PUSH2 0xD53 DUP3 DUP5 PUSH2 0xD16 JUMP JUMPDEST SWAP2 POP DUP2 SWAP1 POP SWAP3 SWAP2 POP POP JUMP JUMPDEST PUSH32 0x4E487B7100000000000000000000000000000000000000000000000000000000 PUSH1 0x0 MSTORE PUSH1 0x22 PUSH1 0x4 MSTORE PUSH1 0x24 PUSH1 0x0 REVERT JUMPDEST PUSH1 0x0 PUSH1 0x2 DUP3 DIV SWAP1 POP PUSH1 0x1 DUP3 AND DUP1 PUSH2 0xDA5 JUMPI PUSH1 0x7F DUP3 AND SWAP2 POP JUMPDEST PUSH1 0x20 DUP3 LT DUP2 SUB PUSH2 0xDB8 JUMPI PUSH2 0xDB7 PUSH2 0xD5E JUMP JUMPDEST JUMPDEST POP SWAP2 SWAP1 POP JUMP JUMPDEST PUSH1 0x0 DUP2 SWAP1 POP DUP2 PUSH1 0x0 MSTORE PUSH1 0x20 PUSH1 0x0 KECCAK256 SWAP1 POP SWAP2 SWAP1 POP JUMP JUMPDEST PUSH1 0x0 PUSH1 0x20 PUSH1 0x1F DUP4 ADD DIV SWAP1 POP SWAP2 SWAP1 POP JUMP JUMPDEST PUSH1 0x0 DUP3 DUP3 SHL SWAP1 POP SWAP3 SWAP2 POP POP JUMP JUMPDEST PUSH1 0x0 PUSH1 0x8 DUP4 MUL PUSH2 0xE20 PUSH32 0xFFFFFFFFFFFFFFFFFFFFFFFFFFFFFFFFFFFFFFFFFFFFFFFFFFFFFFFFFFFFFFFF DUP3 PUSH2 0xDE3 JUMP JUMPDEST PUSH2 0xE2A DUP7 DUP4 PUSH2 0xDE3 JUMP JUMPDEST SWAP6 POP DUP1 NOT DUP5 AND SWAP4 POP DUP1 DUP7 AND DUP5 OR SWAP3 POP POP POP SWAP4 SWAP3 POP POP POP JUMP JUMPDEST PUSH1 0x0 DUP2 SWAP1 POP SWAP2 SWAP1 POP JUMP JUMPDEST PUSH1 0x0 DUP2 SWAP1 POP SWAP2 SWAP1 POP JUMP JUMPDEST PUSH1 0x0 PUSH2 0xE71 PUSH2 0xE6C PUSH2 0xE67 DUP5 PUSH2 0xE42 JUMP JUMPDEST PUSH2 0xE4C JUMP JUMPDEST PUSH2 0xE42 JUMP JUMPDEST SWAP1 POP SWAP2 SWAP1 POP JUMP JUMPDEST PUSH1 0x0 DUP2 SWAP1 POP SWAP2 SWAP1 POP JUMP JUMPDEST PUSH2 0xE8B DUP4 PUSH2 0xE56 JUMP JUMPDEST PUSH2 0xE9F PUSH2 0xE97 DUP3 PUSH2 0xE78 JUMP JUMPDEST DUP5 DUP5 SLOAD PUSH2 0xDF0 JUMP JUMPDEST DUP3 SSTORE POP POP POP POP JUMP JUMPDEST PUSH1 0x0 SWAP1 JUMP JUMPDEST PUSH2 0xEB4 PUSH2 0xEA7 JUMP JUMPDEST PUSH2 0xEBF DUP2 DUP5 DUP5 PUSH2 0xE82 JUMP JUMPDEST POP POP POP JUMP JUMPDEST JUMPDEST DUP2 DUP2 LT ISZERO PUSH2 0xEE3 JUMPI PUSH2 0xED8 PUSH1 0x0 DUP3 PUSH2 0xEAC JUMP JUMPDEST PUSH1 0x1 DUP2 ADD SWAP1 POP PUSH2 0xEC5 JUMP JUMPDEST POP POP JUMP JUMPDEST PUSH1 0x1F DUP3 GT ISZERO PUSH2 0xF28 JUMPI PUSH2 0xEF9 DUP2 PUSH2 0xDBE JUMP JUMPDEST PUSH2 0xF02 DUP5 PUSH2 0xDD3 JUMP JUMPDEST DUP2 ADD PUSH1 0x20 DUP6 LT ISZERO PUSH2 0xF11 JUMPI DUP2 SWAP1 POP JUMPDEST PUSH2 0xF25 PUSH2 0xF1D DUP6 PUSH2 0xDD3 JUMP JUMPDEST DUP4 ADD DUP3 PUSH2 0xEC4 JUMP JUMPDEST POP POP JUMPDEST POP POP POP JUMP JUMPDEST PUSH1 0x0 DUP3 DUP3 SHR SWAP1 POP SWAP3 SWAP2 POP POP JUMP JUMPDEST PUSH1 0x0 PUSH2 0xF4B PUSH1 0x0 NOT DUP5 PUSH1 0x8 MUL PUSH2 0xF2D JUMP JUMPDEST NOT DUP1 DUP4 AND SWAP2 POP POP SWAP3 SWAP2 POP POP JUMP JUMPDEST PUSH1 0x0 PUSH2 0xF64 DUP4 DUP4 PUSH2 0xF3A JUMP JUMPDEST SWAP2 POP DUP3 PUSH1 0x2 MUL DUP3 OR SWAP1 POP SWAP3 SWAP2 POP POP JUMP JUMPDEST PUSH2 0xF7D DUP3 PUSH2 0xA1A JUMP JUMPDEST PUSH8 0xFFFFFFFFFFFFFFFF DUP2 GT ISZERO PUSH2 0xF96 JUMPI PUSH2 0xF95 PUSH2 0x8A6 JUMP JUMPDEST JUMPDEST PUSH2 0xFA0 DUP3 SLOAD PUSH2 0xD8D JUMP JUMPDEST PUSH2 0xFAB DUP3 DUP3 DUP6 PUSH2 0xEE7 JUMP JUMPDEST PUSH1 0x0 PUSH1 0x20 SWAP1 POP PUSH1 0x1F DUP4 GT PUSH1 0x1 DUP2 EQ PUSH2 0xFDE JUMPI PUSH1 0x0 DUP5 ISZERO PUSH2 0xFCC JUMPI DUP3 DUP8 ADD MLOAD SWAP1 POP JUMPDEST PUSH2 0xFD6 DUP6 DUP3 PUSH2 0xF58 JUMP JUMPDEST DUP7 SSTORE POP PUSH2 0x103E JUMP JUMPDEST PUSH1 0x1F NOT DUP5 AND PUSH2 0xFEC DUP7 PUSH2 0xDBE JUMP JUMPDEST PUSH1 0x0 JUMPDEST DUP3 DUP2 LT ISZERO PUSH2 0x1014 JUMPI DUP5 DUP10 ADD MLOAD DUP3 SSTORE PUSH1 0x1 DUP3 ADD SWAP2 POP PUSH1 0x20 DUP6 ADD SWAP5 POP PUSH1 0x20 DUP2 ADD SWAP1 POP PUSH2 0xFEF JUMP JUMPDEST DUP7 DUP4 LT ISZERO PUSH2 0x1031 JUMPI DUP5 DUP10 ADD MLOAD PUSH2 0x102D PUSH1 0x1F DUP10 AND DUP3 PUSH2 0xF3A JUMP JUMPDEST DUP4 SSTORE POP JUMPDEST PUSH1 0x1 PUSH1 0x2 DUP9 MUL ADD DUP9 SSTORE POP POP POP JUMPDEST POP POP POP POP POP POP JUMP INVALID LOG2 PUSH5 0x6970667358 0x22 SLT KECCAK256 0x1F 0x28 PUSH25 0xBD2083B6D93CF794AF187776A336195916766F94E18B8D53CC SWAP11 GASLIMIT PUSH16 0xBF64736F6C6343000812003300000000 "
				},
				"gasEstimates": {
					"creation": {
						"codeDepositCost": "844000",
						"executionCost": "25233",
						"totalCost": "869233"
					},
					"external": {
						"addAdmin(address)": "27076",
						"admins(address)": "2845",
						"getOrder(string)": "infinite",
						"pushOrder(string,string,string,string,string)": "infinite",
						"removeAdmin(address)": "27032",
						"updateOrderStatus(string,string)": "infinite"
					}
				},
				"methodIdentifiers": {
					"addAdmin(address)": "70480275",
					"admins(address)": "429b62e5",
					"getOrder(string)": "712ca0f8",
					"pushOrder(string,string,string,string,string)": "865ff1d6",
					"removeAdmin(address)": "1785f53c",
					"updateOrderStatus(string,string)": "edfa77d0"
				}
			},
			"storageLayout": {
				"storage": [
					{
						"astId": 15,
						"contract": "contracts/OrderManagement.sol:OrderManagement",
						"label": "orders",
						"offset": 0,
						"slot": "0",
						"type": "t_mapping(t_string_memory_ptr,t_struct(Order)10_storage)"
					},
					{
						"astId": 19,
						"contract": "contracts/OrderManagement.sol:OrderManagement",
						"label": "admins",
						"offset": 0,
						"slot": "1",
						"type": "t_mapping(t_address,t_bool)"
					}
				],
				"types": {
					"t_address": {
						"encoding": "inplace",
						"label": "address",
						"numberOfBytes": "20"
					},
					"t_bool": {
						"encoding": "inplace",
						"label": "bool",
						"numberOfBytes": "1"
					},
					"t_mapping(t_address,t_bool)": {
						"encoding": "mapping",
						"key": "t_address",
						"label": "mapping(address => bool)",
						"numberOfBytes": "32",
						"value": "t_bool"
					},
					"t_mapping(t_string_memory_ptr,t_struct(Order)10_storage)": {
						"encoding": "mapping",
						"key": "t_string_memory_ptr",
						"label": "mapping(string => struct OrderManagement.Order)",
						"numberOfBytes": "32",
						"value": "t_struct(Order)10_storage"
					},
					"t_string_memory_ptr": {
						"encoding": "bytes",
						"label": "string",
						"numberOfBytes": "32"
					},
					"t_string_storage": {
						"encoding": "bytes",
						"label": "string",
						"numberOfBytes": "32"
					},
					"t_struct(Order)10_storage": {
						"encoding": "inplace",
						"label": "struct OrderManagement.Order",
						"members": [
							{
								"astId": 3,
								"contract": "contracts/OrderManagement.sol:OrderManagement",
								"label": "productId",
								"offset": 0,
								"slot": "0",
								"type": "t_string_storage"
							},
							{
								"astId": 5,
								"contract": "contracts/OrderManagement.sol:OrderManagement",
								"label": "userId",
								"offset": 0,
								"slot": "1",
								"type": "t_string_storage"
							},
							{
								"astId": 7,
								"contract": "contracts/OrderManagement.sol:OrderManagement",
								"label": "status",
								"offset": 0,
								"slot": "2",
								"type": "t_string_storage"
							},
							{
								"astId": 9,
								"contract": "contracts/OrderManagement.sol:OrderManagement",
								"label": "sellerId",
								"offset": 0,
								"slot": "3",
								"type": "t_string_storage"
							}
						],
						"numberOfBytes": "128"
					}
				}
			},
			"userdoc": {
				"kind": "user",
				"methods": {},
				"version": 1
			}
		}
	}
}